:020000022000DC
:10600000000004207963020061630200FD7E02004B
:10601000656302006763020069630200000000001C
:106020000000000000000000000000006B630200A0
:106030006D630200000000006F63020071630200E4
:10604000B9D0020073630200BDDB0200ADE10200C3
:1060500073630200DDD90200DDD302007363020026
:1060600073630200736302007363020073630200D0
:1060700073630200D9DC02007363020073630200E1
:1060800073630200656C02007363020073630200B5
:10609000016D020073630200791103007363020053
:1060A00073630200736302007363020071DE020017
:1060B0007363020073630200000000000000000030
:1060C0007363020073630200736302007363020070
:1060D0007363020073630200736302007363020060
:1060E00073630200736302003DAF03000000000011
:1060F00000000000736302000000000073630200F0
:10610000000000000000000000000000000000008F
:10611000000000000000000000000000000000007F
:10612000000000000000000000000000000000006F
:10613000000000000000000000000000000000005F
:10614000000000000000000000000000000000004F
:10615000000000000000000000000000000000003F
:10616000000000000000000000000000000000002F
:10617000000000000000000000000000000000001F
:10618000000000000000000000000000000000000F
:1061900000000000000000000000000000000000FF
:1061A00000000000000000000000000000000000EF
:1061B00000000000000000000000000000000000DF
:1061C00000000000000000000000000000000000CF
:1061D00000000000000000000000000000000000BF
:1061E00000000000000000000000000000000000AF
:1061F000000000000000000000000000000000009F
:10620000364937480A1A02D0072291438D4635494C
:1062100035480A1A06D00722914381F309880222E1
:1062200082F3148831483249324A00F045F8324846
:106230003249334A00F040F832483349334A00F0DB
:106240003BF833483349344A00F036F83348344990
:10625000344A00F031F834483449354A00F02CF81B
:1062600034483549354A00F027F835483549002289
:1062700000F02DF834483549002200F028F8344861
:106280003449091A082903DB002202600430016046
:10629000314A90471F482049884205D0026804309F
:1062A00003B4904703BCF7E700208646EC46002085
:1062B00000212A4A9047FEE7884207D0521A05D0AB
:1062C000037801300B700131013AF9D170478842EF
:1062D00002D002700130FAE770470000000004208D
:1062E00000E0032000000420000004203C650400BE
:1062F000487B00200C7C0020D8630200D863020099
:1063000048ED03003C650400487B0020487B0020EA
:1063100054F2030054F2030054F2030054F2030059
:1063200054F2030054F2030054F2030054F2030049
:106330003C650400006604000C7C00200C7C0020FE
:106340000C7C0020C0E00020C0E00020C0E0002065
:10635000C0E00020C0E00020A1630200C90A0300E1
:10636000FEE7FEE7FEE7FEE7FEE7FEE7FEE7FEE705
:10637000FEE7FEE7704700BF1048804710484FF027
:106380000701884385460F4880470F48016841F45C
:1063900070010160BFF34F8FBFF36F8FFFF730BF06
:1063A0000A480B490B4A884207D0521A05D0037895
:1063B00001300B700131013AF9D170477563020069
:1063C000000004202D60030088ED00E084F003004D
:0863D00078790020487B0020D1
:1063D800022006F0B5BB00002DE9F04781460D46C6
:1063E80006F0C8FB0328044604D8012D04D024D3A2
:1063F800022D2FD0BDE8F087194D47003A18A9188B
:10640800AE5C4A7852B1DFF86880164842464FF4CD
:10641800004100F009FE08B988F800903B192B44A8
:106428009A78114B1A55002EE4D0104B1B68002B9C
:10643800E0D03046BDE8F04718470A4800F038FE7B
:10644800074B04EB440213449E78074B1B5DB34291
:10645800D0D1E8E7024B00EB40041C446678E2E741
:10646800707C0020307C0020897C0020847C002007
:106478000C7C002002210078FFF7AEBF08B5094B5D
:106488001B7853B1002006F029FB012006F026FBFB
:106498000320BDE8084006F021BBBDE8084006F02F
:1064A80031BB00BF0D7C0020F8B57B4C2378054636
:1064B8001BB100232370FFF7E1FF172D00F288803E
:1064C800DFE805F00C17174354657680888D888DB2
:1064D800959A9A9A9A9AC4C9D1D9E4E4FFF7CEFF5B
:1064E8006E4800F0E5FD6E4B002204461A70204607
:1064F800F8BD002006F0CAFAF8B1002006F0EEFA5E
:10650800022D0CBF4FF4E1614FF47A61644B1D70AA
:106518004FF400404FF4FA740025E0FB01454FF4B6
:106528007A7200232046294611F0F0F9002201462C
:106538005A48BDE8F84000F077BD06F0BBFA022DD6
:106548000CBFC8214FF4C871E0E7002006F09EFA9E
:1065580040B1002006F0C2FA4FF44871504B0322B4
:106568001A70D5E706F0A6FAC821F7E7002006F06A
:106578008DFA38B1002006F0B1FA4FF47A61484B31
:106588000422EDE706F096FA4FF4C871F7E7002009
:1065980006F07CFA48B1002006F0A0FA404B05222C
:1065A8001A7041F69A110022C2E706F083FAF5E75D
:1065B800002006F0C5FA3A4B06221A70002240F66F
:1065C800CD41B5E7002006F075FA354B07221A7061
:1065D80000248CE70120207006F0B2FAEEE70120D3
:1065E800207006F0ADFA00224FF48041A0E706F0D3
:1065F80098FA2B4B0C22EAE72A482B4E00F058FD5C
:10660800D5F1110504461CD0D8B9012D13D0C823E3
:106618005D434FF400474FF4FA7000214FF47A724B
:106628000023C7FB050111F071F9224601461D48F8
:1066380000F0FAFC0446022006F03CFA012333700D
:1066480055E7022006F04AFA0023F8E7FFF716FF9D
:10665800134B1222BBE7FFF711FF002006F02AFABE
:106668000F4B1322B3E7FFF709FF012006F022FAC8
:106678000B4B1422ABE7FFF701FF002006F01AFAD4
:10668800012006F017FA064B1522A0E706F049FA92
:10669800034B1D709CE700BF807C0020507C0020CD
:1066A800887C0020107C00200D7C0020044B1B6897
:1066B800DB0703D5034B1878FFF7F6BE704700BF1A
:1066C8007C7C0020887C002038B51C4B18601C4B53
:1066D80010F00204054619601AD01A4B1A480E2207
:1066E8001A700F22DA7010229A7111225A7204213C
:1066F80040F2666200F08EF9044648B900F0DEF90F
:10670800044628B90146114A114800F07BFC0446AA
:10671800EB0711D5012006F03FFA6CB921460D4A66
:106728000D4800F06FFC044630B90C4A0C480121B2
:10673800BDE8384000F066BC204638BD7C7C0020AF
:10674800847C0020707C002054F203007D640200E9
:1067580078F20300B56602007CF20300D9630200F8
:1067680074F20300032812D8012A0BD1012908D199
:1067780000F10E02D2B200EB40000C4B1A5400207C
:10678800704700220129F6D009D3022901D0072039
:106798007047064B00EB400018444270EFE7034B8C
:1067A80000EB400018448270E9E700BF707C0020CD
:1067B80008B5012202210020FFF7D4FF08B10728FD
:1067C80010D1072202210120FFF7CCFF08B10728CA
:1067D80008D100210A220846FFF7C4FF10B1072894
:1067E80008BF002008BD00000388102B10B502D098
:1067F800112B1ED010BD1A4C2168B1B901220846D0
:10680800FFF7B0FF08B1072824D107220221012091
:10681800FFF7A8FF08B107281CD104220221002095
:10682800FFF7A0FF08B1072814D1236801332360BC
:10683800E0E70B4A1368013B1360002BDAD1FFF73E
:10684800B7FF0028D6D0074B1B68002BD2D0BDE875
:1068580010401847034B1B68002BE6D09847E4E725
:10686800947C0020907C00202DE9F04F3B4F89B0AC
:1068780000263B4B1B78F5B2AB4202D809B0BDE805
:10688800F08F384B196811F835000124A0F1200267
:10689800C0F1200304FA02F924FA03F349EA0309D0
:1068A800D7E9002304FA00F8CDE9042302EA080234
:1068B80003EA0903134301EBC50B4CD0DDE90423BC
:1068C80022EA080223EA0903C7E90023079106F030
:1068D80071FD0799844611F83500A0F12002C0F136
:1068E800200324FA03F304FA02F21A4304FA00F329
:1068F80000931D4B0192DDE90045D3E900231440C4
:106908001D4022462B465FFA8CF40025CDE904454C
:10691800049CA0F12005AC400394049CC0F1200124
:1069280024FA01F1039C0C430499039481400291D9
:10693800DDE90245AB4208BFA2420CD19BF8011029
:106948004B1E59425941A1EB0C02DBF8043051426D
:10695800514103B1984701368BE700BFC87C00203E
:10696800987C0020D07C0020C07C00202DE9F84FC6
:106978000646244800F09CFB002841D10123A6F1DB
:106988002001C6F1200203FA01FB23FA02F203FAFE
:1069980006FA1D4BD3E900014BEA020B00EA0A088C
:1069A80001EA0B0958EA09021F4623D1304606F0CE
:1069B80001FD164BB8B1D3E9000140EA0A0441EAE7
:1069C8000B05C3E90045D7E900234BEA0305104B43
:1069D8000C4819684AEA0204C7E900450022BDE8E4
:1069E800F84F00F021BBD3E9000120EA0A0421EAAC
:1069F8000B05E6E720EA0A0421EA0B05C3E900458E
:106A0800BDE8F88FA07C0020C87C0020C07C002056
:106A18009C7C0020042A2DE9F34105460C461646C5
:106A28003AD906F0EDFBD8B11C4B1D491D601D4B32
:106A3800DFF884801C701C4B00221E600023C1E913
:106A480000231A49C1E90023013CE4B200260327C8
:106A5800FF2C0CD1164A1748002100F0D3FA03E0A6
:106A680006F098FB0028DFD002B0BDE8F08123B221
:106A780005EBC30201A992788DF8052015F83300BB
:106A88008DF8066042468DF8047006F0C3FB013CA1
:106A9800E4B20028DCD0E7E70720E5E7D07C002057
:106AA800C07C0020987C00209C7C0020C87C0020B2
:106AB8007168020080F203007569020070B5084D24
:106AC800084E00242B789C4201D3002070BD336807
:106AD800012113F8340006F023FC0134F2E700BF6B
:106AE800987C0020D07C00201FB50021039001AACB
:106AF80044F20100CDE9011100F004F805B05DF899
:106B080004FB000010B572B605F02AFD05F028FB5D
:106B18000028FBD1154C62884AB11548154B164917
:106B2800C01AC008000440F0010005F0A7FC134B90
:106B38001B68DB0700D500BE6388012B09D90C4808
:106B48000C4B0F49C01AC008000440F0020005F0C1
:106B580095FCBFF34F8F0B490B4BCA6802F4E062F8
:106B68001343CB60BFF34F8F00BFFDE7D8790020F8
:106B7800A8EE030050EE030084F20300F0ED00E0FD
:106B880090F2030000ED00E00400FA05094A53788A
:106B980091780133DBB2994208BF002311789942FA
:106BA8001FBF03705078182303FB002014BF043064
:106BB80000207047D47C002073B5054602A8002445
:106BC80000F8014D0E4600F089FA0DF10600FFF7B6
:106BD800DDFF90B106700A4B9DF8062045605A709B
:106BE8009DF8070000F09EFA24B9064B4FF4801276
:106BF800C3F80021204602B070BD0424F0E700BFAE
:106C0800D47C002000E100E0024B4FF43C6043F0EC
:106C180001031847A0F2030038B50C4B0C4C4FF495
:106C28000032C3F8802001254FF48033C4F848337C
:106C3800C4F808336560FFF7E7FF064BA56000243A
:106C48001C60FFF7E1FF044B1C7038BD00E100E059
:106C580000100140F07D0020E17D0020F8B51F4BB9
:106C68001F491B680025C1F84051C1F84451C1F8BB
:106C78004851C1F84C51C1F80051C1F804514BB307
:106C8800D1F8044517490968641A24F07F442F464F
:106C98001A68A24209D8A41A15441A7CDE691AB1E6
:106CA8001F74D3E905209047AEB90F4B0F4A1978E6
:106CB80013788B4205D10133DBB2022B08BF0023C6
:106CC800137012780A4B43F822500A4B4FF4801283
:106CD800C3F80021F8BD3346DAE700BFF47D002091
:106CE80000100140F07D0020EC7D0020ED7D0020AB
:106CF800E47D002000E100E02DE9F74F9E4A9F491E
:106D0800137809789E4D99423CD00133DBB2022BAF
:106D180008BF002313709B4912789B4B0F6853F8E8
:106D280022003B1823F07F4300220B602B68164695
:106D38001446944613B942B12B6006E019688142A3
:106D48000ED902B12B60091A19604FF001082B689F
:106D5800DFF83CA200930027BEB9DFF83CB260E040
:106D6800401A0C44D968C3F800C0D3F81CE031B10C
:106D78003A1922F07F42C3E90121DE611E46012251
:106D88007346D7E70026B046E1E73446F6697D4A00
:106D980063681268DFF804C2A068991A21F07F417D
:106DA800614500F2A58001442160012222742A680D
:106DB8000023C4E90133E361002A40F0A2802C607B
:106DC800CAE75A1C9BF80210D2B291428BF80020F5
:106DD80004BF00228BF80020182202FB03B32A68A4
:106DE80019799C68022974D003297ED0012918D109
:106DF800217CB1B9DA6862601A69A2605A699B6934
:106E0800A361624BE2601B78002BC0D06160BEE7D3
:106E18009C4200F093809946DB69002BF8D100234F
:106E280023749BF800309BF801209A42C9D12B6843
:106E38002FB9009A934202D1B8F1000F43D0002B2A
:106E480079D0D3F800A0524D4E4BD5F804751C6884
:106E5800DFF84C813E1B98F8003026F07F46033659
:106E68009BB94FF48033C5F84433C5F80433494B14
:106E78004FF400324FF00109C3F880211A60C5F8B9
:106E88000090FFF7C1FE88F80090B2452CBF54442B
:106E9800A41924F07F44C5F84045D5F80435DB1B18
:106EA80023F07F43E41B033324F07F44A3420AD931
:106EB800D5F80435C5F84035FFF7A6FE354B4FF435
:106EC8000032C3F80021314B00221A7003B0BDE82C
:106ED800F08F13469146A0E71174D2690123002A66
:106EE800FAD1002B9DD02A609BE700231946F6E7CC
:106EF800D31A23F07F43834234BFC31A002323608D
:106F080053E721681368994213D8591A1160E2614E
:106F180055E7091AD8691A4638B1034618688842ED
:106F2800F7D3401A1860184613462160E061DC6107
:106F380012E71346F2E7FFF76FFEC4E74C450DD1A1
:106F4800D3692B6053B90F4801920121CAF8081080
:106F580003600E4B1970FFF757FE019AE169236829
:106F6800C9F81C1011B1086803440B602B689A42D9
:106F780018BF012753E700BFEC7D0020ED7D0020FE
:106F8800F47D0020F07D0020E47D0020E07D0020DD
:106F98000010014000E100E0D47C0020FEFF7F00EB
:106FA800E17D002008B5FFF737FE104B00200B22CB
:106FB80018809A700E4B18600E4B18700E4B187094
:106FC8000E4B4FF48012C021C3F8802183F81413AC
:106FD8001A6002F18042A2F56F22C2F8080583F810
:106FE8001113074BD2F804251A6008BDD47C002081
:106FF800F47D0020EC7D0020ED7D002000E100E024
:10700800F07D0020074B9B784BB132B128B1036863
:10701800187C20B959745A617047072070470820B6
:10702800704700BFD47C00202DE9F7431D4FBB7883
:1070380005460E4690469BB390B304292ED9436962
:1070480073B3437C02A80024012B00F8014D0CBF48
:107058008946A14600F042F80DF10600FFF796FDBB
:10706800D0B101230370104B4560D3F80435C0E953
:107078000498C0E902369DF806307B709DF8070039
:1070880000F050F824B9094B4FF48012C3F80021DE
:10709800204603B0BDE8F0830424EFE70724F7E7B0
:1070A8000824F5E7D47C00200010014000E100E04E
:1070B800064A92783AB130B1426922B1002202748C
:1070C8000221FFF779BD0820704700BFD47C00205B
:1070D800014BD3F8040570470010014070B5EFF379
:1070E800108672B60C4A946801239CB993600B4BC6
:1070F8000B4DD3F8801029401160C3F88050D3F8A5
:10710800841051604FF0FF32C3F88420047006B930
:1071180062B670BD0370FAE7F87D002000E100E078
:10712800FC06FFBD084B9A6810B55AB150B9EFF389
:10713800108172B6054A1C6814605C6854609860D7
:1071480001B962B610BD00BFF87D002000E100E083
:1071580070B5064E0546002456F824300BB1284673
:1071680098470134042CF7D170BD00BF107E002071
:10717800033080B240F2FD33984230B51FD8124B2D
:107188001A783AB91C895D892C440444A4B2B4F530
:10719800806F0AD31A7DA2B99A8BDC8B22440244F1
:1071A80092B2B2F5806F0CD201220A8014461422E2
:1071B80002FB04335A8910445881002030BD09204D
:1071C800FCE70720FAE700BF447E00200B4A0C4B7F
:1071D8005188142000FB0131CB6833B90420496879
:1071E80010700122074803F0E1BC0523064913701B
:1071F80002238B80012200230968F3E7287E002000
:10720800447E0020347B0020FC7E002007B500234C
:1072180005490093054A09680548082303F006FC58
:1072280003B05DF804FB00BFFC7E0020B4F203004D
:10723800347B002007B50023009301460823034A46
:10724800034803F0F3FB03B05DF804FBACF2030062
:10725800347B002013B500230C4600930146042319
:10726800074A084803F0E2FB38B9074B142202FB2F
:1072780004340123237402B010BD0E20FBE700BFC5
:10728800A8F20300347B0020447E002037B50A486A
:107298000A4B42689C881968538803250333057094
:1072A8009BB2002000909B0001EB8401044803F08E
:1072B800BDFB03B030BD00BF287E0020FC7E00204F
:1072C800347B002010B50146044800F006FF1C225C
:1072D8000446002110F041FE204610BD487B0020E6
:1072E8004388033300EB8303994209D382884FF61E
:1072F800FF739A4206D00088B0FA80F040097047C0
:1073080002207047012070472DE9F8430223DFF877
:1073180060800B800D46174600F5805600F1080482
:107328004FF00109B4420FD2236801330CD0314623
:107338002046FFF7D5FF48B10FB187F80090022823
:107348000BD14FF480632B80BDE8F883A368D8F88D
:107358000020934201D9C8F800302B886288033393
:1073680013442B806388033304EB8304DAE700BFFC
:107378003C7E0020144A142303FB002070B50B68E0
:1073880044680D4604F580569BB15C88033403EBD2
:107398008404B4420BD22368013308D03146204616
:1073A800FFF79EFF012809D005D30228F1D100205C
:1073B80003E00834EDE72C60012070BD63880333D7
:1073C80004EB8304E5E700BF447E0020436873B5FF
:1073D80005460C466BB3254AD1688B4229D31269FE
:1073E800934226D813F0030223D121490089098941
:1073F80088421ED12868996888421AD11D49486870
:10740800834203D900F5805083420ED38A699342A0
:107418000DD902F58052934209D20123238000201E
:10742800B0FA80F0400902B070BD1346F6E70A20B2
:10743800F6E7002323801E462388012B01D900206C
:10744800F1E7019601A92088FFF794FF18B923886E
:1074580001332380F0E7019B2A6899689142F1D1B2
:107468006B60034B1B892B81DDE700BF347B002059
:10747800287E0020447E00202DE9F8431C461E4B40
:107488001B7806460F461546002B30D0002A30D010
:107498007CB3DFF86C804FF01409A388012B01D965
:1074A8000A201AE009FB03F318F80330BBB1A388DC
:1074B8000133A380F1E723681EB19988328891428D
:1074C8000DD11FB119883A88914208D19A68C5E947
:1074D80000230A4B1B892B810020BDE8F883214635
:1074E800A088FFF747FF0028E5D12060DFE70220EA
:1074F800F3E70520F1E700BF207E0020287E00206A
:10750800447E002008B5074B191D5888FFF732FF45
:1075180018B1BDE80840FFF7B9BEBDE80840FFF75D
:1075280055BE00BF287E00202DE9F04FA04FDFF8A0
:10753800A49289B00646B8463B6823B949469D4897
:1075480000F005FE3860D8F8005029784B1E052B4E
:1075580000F21281DFE813F00600760076000601DB
:1075680006015D0126B1944B00225A60012424E0F3
:107578002B79032B1DD8DFE803F01502424D8F4904
:107588000B78022B084631D00B7D022B4FF00103FC
:107598002ED114225343C2180020C8545068FFF754
:1075A80049FE03E001232B71FFF730FE002800F0AD
:1075B800D380814B00225A600E241422002103A894
:1075C80010F0CBFC41F61D539C4208BF0024D8F8AC
:1075D800003004941A78023A042A00F2D381DFE8D2
:1075E80012F0B401C001E301EB01F2010023D0E77E
:1075F800714A13700023536041F61D54DDE770494A
:107608007048002302222B718A800122096803F046
:10761800CDFACBE76A4C00262E712068674DFFF73C
:1076280009FE694BD4F800C05A8814235343EA185A
:10763800EE5451682160A188C2F804C01181022269
:10764800A280B3E7B5F814A0AA7DDFF870B1AEB197
:10765800022AEB8806D9142101FB0AB1DA1C088931
:1076680002440A81142202FB0ABAC3F57F43BAF81E
:107678000A20FD331344AAF80A3077E7142303FBE2
:107688000AB318895C6804EB8004062A05D8DFE889
:1076980002F0264C34421C5866000F24AA7DEB8861
:1076A800022A06D9142101FB0AB1DA1C088902440E
:1076B8000A81142202FB0ABAC3F57F43BAF80A20EA
:1076C800FD331344AAF80A3077E7404840490023BD
:1076D8004360AB690360FFF779FE00285AD00223A4
:1076E800AB75002300930423EA182146354803F0BC
:1076F8009DF9002830D00E24D0E72B69002B0CBF51
:1077080001230323AB750023009305F10C02042326
:1077180004F10801EAE70123AB750022EB88009227
:107728009B002A6904F10C01E0E7032914BF062332
:107738000523AB7500230093042305F10802E11823
:10774800D4E70623AB75224B1988204B5868FFF7FE
:1077580081FD04460028A1D109B0BDE8F08F41F6AB
:107768001D549BE7002E7FF401AF2B79012B33D0FA
:1077780004D3022B3FF440AF0F241EE702232B71E2
:107788000DF10A01EB68039303A8CDE90466FFF73E
:107798001DFE08B90A2410E70498BDF80A1083886A
:1077A800EB8003882B81FFF755FD044627E000BFD7
:1077B800407E0020487B0020207E0020447E002060
:1077C800FC7E0020347B0020287E0020047E0020E0
:1077D800087F0020387E0020DFF808A203AA53465D
:1077E8003146A81DFFF748FE044660B9BAF80410F0
:1077F8000498FFF72FFD04460A2C3FF4FDAE002C39
:107808007FF4DBAEA8E708223146504610F0A5FB0E
:10781800F2E7002E7FF4AAAE6D4B1A7BB2B11E734D
:107828001A78013A062AA7D801A151F822F000BF18
:10783800DF78020005790200237902002979020025
:10784800817702002F790200457902001A78072A09
:10785800E6D801A151F822F08178020029780200C7
:1078680029780200A7780200BB780200DB780200C2
:10787800DB780200A37802001A89564901321A817E
:1078880000225A801A730A78B2FA82F252099A725E
:107898000A7DB2FA82F25209DA72012207E04E49F1
:1078A80058688A884088033202448A8002221A7003
:1078B800B6E7484C5A884849142505FB024208682F
:1078C800546850608888108102228A800C600622E1
:1078D800EDE70722EBE79A7A32B9DA7A8AB9002219
:1078E8001A705A805A6087E63A4900229A72CA6822
:1078F800002AF2D1097C0029EFD05A80FFF702FE56
:1079080053E70022DA72334A116A0029E7D192F864
:107918002420002AE3D00122EFE7FFF7B7FC44E771
:10792800FFF754FC41E706221A702A4A5B881421A3
:1079380001FB03235868FFF77DFC36E707221A701E
:1079480000225A60FFF762FC2FE701228DF80C2015
:107958001A89ADF818209A88DB68ADF81A200593C3
:1079680010E002228DF80C201A89ADF818209A88A8
:10797800ADF81A20DA689B7D05929A1F534253414D
:107988008DF81C3003A8FFF7E3FB0026494613488F
:10799800C8F8006000F006FC0121114800F0B5FCB1
:1079A80000287FF4C9ADD7E603228DF80C20DA88C9
:1079B800ADF818201A89CFE70422DB888DF80C204F
:1079C800ADF81830DEE705238DF80C30DAE700BF94
:1079D800287E0020447E0020FC7E0020487B00207A
:1079E800F87E00200C7F00204068FFF79DBD000056
:1079F80008B50121044800F072FC18B9BDE8084038
:107A0800FFF792BD08BD00BFF87E00202DE9F341C5
:107A18009846354B1B7806460D46002B5BD000294F
:107A28005BD009884FF6FF73994258D06B88002BBA
:107A380055D06B689B0754D14AB92F890DF10201C3
:107A48003846FFF795FB30B102B0BDE8F0811388E6
:107A58005788ADF8023001A8FFF734FC044658B93E
:107A6800BDF80230214A142101FB03235889033849
:107A7800C01B58810820E7E700238375BDF8023052
:107A880083826B68036180F800800121184800F048
:107A980031FC2B882381B8F1030F6B88A38004BFC6
:107AA8000423A3754FF0000508BF3368E06008BFE2
:107AB800A361E780658101A90E4800F038FB36B163
:107AC800E36833600C4B75601B89B5723381FFF72F
:107AD8008FFF0020B8E70220B6E70520B4E70420AE
:107AE800B2E70320B0E700BF207E0020447E0020DC
:107AF8003C7E0020487B0020287E002008B5084BEB
:107B08001A68042A09D01968064A42F82100012196
:107B1800184600F0EFFB002008BD0C20FCE700BF72
:107B2800047F0020107E00202DE9F04F89B0142238
:107B3800002103A810F011FA7D4A137803F0FF0121
:107B4800009190463BB103A8FFF702FB00263046A0
:107B580009B0BDE8F08F101D00F0E2FB05460028D3
:107B6800F4D140F6F8734FF080521B68DFF8ECA1AF
:107B78005C1C04BF6F4B1B6811695269581C08BF15
:107B880002FB01F3CAF810300022A3F540536A49FA
:107B9800CAF80C30504602F00DFF06460028D6D130
:107BA8001C238C226549664800F062FA3746B346C2
:107BB8004FF003093446CDF804A0019BD9680BEBBC
:107BC800010002465BF80110002835D05D4B994250
:107BD80032D141685C4B994215D0013399422BD17F
:107BE800009BDFF870A1002B59D100225749CAF831
:107BF8000000FFF789FBBAF80420022A14BF082204
:107C0800042217433AE052494FF0140C0CFB04FCD1
:107C180001EB0C024FF0000E01F80CE050600CF183
:107C280010020CF1080C0A446144FFF76DFB47F0A1
:107C380002070134A4B221E000F5805C116801312B
:107C480067D104329445F9D1424A116829B9022111
:107C580001231060918000930EE0142262433C4B94
:107C68004FF0020E991803F802E03B4A486054802E
:107C78000134A1F808E0A4B247F001070BF5805BD6
:107C8800BBF5405F99D1B9F1010F88BF3D46EDB210
:107C9800022D02D0062D12D0DDB90B2657E72C4B4A
:107CA8001422624399184FF0020C03F802C0013401
:107CB800DAF800204A60A1F808C0A4B295E70123C9
:107CC80088F8003003A80023C8F80430FFF740FA0A
:107CD8003DE702A8FFF7F6FAC8B10123013D03709A
:107CE8000A2D09D8DFE805F006080608070807087E
:107CF8000F110F000023037102A9114800F017FAB1
:107D0800FFF776FE23E70323F5E70223F3E70826C8
:107D18001DE70F491422624301EB020C09F1FF39F8
:107D2800CCF8040003201FFA89F9885481E700BFC2
:107D3800207E002014100010700204006C7E0020C9
:107D4800487B0020DEC0ADDEFE011EF1007F002072
:107D5800447E0020FC7E0020287E0020347B00200A
:107D680073B50D460446C8B1C1B10DF10601FFF760
:107D78002DFBA8B10B4BBDF806006668142202FB68
:107D8800003001210C3000F0B5FA63682E600C3326
:107D98006B600123A372002002B070BD0520FBE7D1
:107DA8000A20F9E7447E002013B50446A8B10DF176
:107DB8000601FFF70BFB90B10B4ABDF80630142102
:107DC80001FB0323DA6862B1A27A52B1DA680020B3
:107DD800013ADA60A07202B010BD0520FBE70A2064
:107DE800F9E70620F7E700BF447E002002230022BF
:107DF800FFF70CBE18B103230022FFF707BE0520CA
:107E080070470000104B1B7813B50446ABB14FF612
:107E1800FF73984213D001A8FFF754FA88B10523DD
:107E2800037001230371C48001A9084800F07FF999
:107E3800FFF7DEFD002002B010BD0220FBE70420A2
:107E4800F9E70820F7E700BF207E0020487B0020E4
:107E58000E4B1B7807B5A3B101A8FFF733FA90B111
:107E68000623037001A90A4800F061F9094B1A7842
:107E78000AB101221A73FFF7BBFD002003B05DF8B9
:107E880004FB0220FAE70820F8E700BF207E002064
:107E9800487B0020287E002007B5ADF8060002A820
:107EA80020F8041D01460DF10600FFF7E5FA03B0BE
:107EB8005DF804FB13B502AC134624F8020D0A461C
:107EC80000202146FFF7D8FA02B010BD13B502AC66
:107ED800134624F8020D0A4620460021FFF7CCFA83
:107EE80002B010BD20B119B103680B6000207047C3
:107EF800052070471EF0040F1CBFEFF309800AE04D
:107F0800EFF308800549064A884201D8904202D812
:107F18008D464FF00000034B184700000000042076
:107F280000E00320557F0200BFF34F8F0549064B41
:107F3800CA6802F4E0621343CB60BFF34F8F00BFFF
:107F4800FDE700BF00ED00E00400FA052DE9F74F5A
:107F5800064604F005FB04F003F90028FBD1374C72
:107F6800374A384B384D9F6A6B88A41AE4082404B2
:107F780044F00104002E59D023B1B2693349204698
:107F880004F080FA6B884BB1F3680193B3680093EF
:107F98002F49D6E90023204604F094FA6B883BB1B8
:107FA800F36900932B49D6E90423204604F07EFAAE
:107FB800244BDB6A990705D56B881BB126492046F7
:107FC80004F05CFADFF8A0A0DFF8A0B04FF00008DA
:107FD8004FF0010909FA08F33B4208D05AF8282063
:107FE8002AB16B881BB15946204604F04BFA08F1B8
:107FF8000108B8F11A0FEDD13A0607D56B882BB1F5
:10800800104B16495A6B204604F03CFA3B0407D53E
:108018006B882BB10B4B12499A6B204604F032FA4D
:108028003046FFF781FF03B0BDE8F08F002BBFD0CB
:108038000C49204604F022FABAE700BF00EF03001B
:1080480050EE030000ED00E0047A0020CBF20300BC
:10805800E0F2030015F3030070F30300BFF303001D
:10806800DFF303003DF30300FCF30300B4F3030064
:1080780010B561B1B2FBF3F403FB1424A4B244B904
:10808800C0E9001484608281C381204610BD0E209F
:10809800FCE70920FAE782B050E8022FC188B2EB6A
:1080A800324F4FF0000317BF92B241EA014142EA52
:1080B800014104E04268B2EB324F08BF012340E8B7
:1080C8000212002AE8D18DF807309DF80730002BFE
:1080D8000CBF1120002002B0704737B550E8013FAF
:1080E8009DB2C48925448489A54228BF2D1B0489D3
:1080F800A54202BFBFF32F8F002207E0C5EA0305A0
:1081080040E80154002CE9D14FF001028DF803201A
:108118000193019B9DF803200B6002F0FF0322B13D
:108128000B880068184403B030BD1846FBE70A887E
:108138004B889A4209D150E8012FC2EA024240E82E
:108148000123002BF7D1012070470020704737B575
:1081580050E8023F1FFAA3F5C488A54202BFBFF347
:108168002F8F00220DE0C48925448489A54228BFA9
:108178002D1BC3EA054540E80254002CE8D14FF016
:1081880001028DF803200193019B9DF803200B60E9
:1081980002F0FF0322B14B880068184403B030BDD9
:1081A8001846FBE70A884B889A4209D150E8022F03
:1081B800C2EA224240E80223002BF7D1012070478F
:1081C8000020704701F01F024B090121914000EB8C
:1081D800830000F063B84B0910B501F01F040121BA
:1081E800A14000EB830000F04EF8E04000F00100F1
:1081F80010BD01F01F0301229A404B0900EB8300D8
:10820800D14300F061B84B0901F01F0150F8230079
:10821800C84000F0010070472DE9F0474E1E76096E
:1082280080460F460136002558F8254008EB850A98
:10823800E44394FAA4F4B4FA84F44FEA4519202CE0
:1082480006D10135AE42EFD83C462046BDE8F0875E
:108258004C44A742F5D921464046FFF7BCFF002809
:10826800F3D0DAF80040E44394FAA4F4B4FA84F4BE
:10827800E5E750E8002F0B4640E8003C9CF0000F73
:10828800F7D11046704750E8002F42EA010340E852
:10829800003C9CF0000FF6D11046704750E8003FB4
:1082A80043EA010240E8002C9CF0000FF6D110468A
:1082B800704750E8002F02EA010340E8003C9CF0B8
:1082C800000FF6D11046704750E8003F03EA01025C
:1082D80040E8002C9CF0000FF6D11046704750E89B
:1082E800002F02EB010340E8003C9CF0000FF6D1A0
:1082F8001046704750E8003F03EB010240E8002CAD
:108308009CF0000FF6D11046704750E8003FA3EBF1
:10831800010240E8002C9CF0000FF6D1104670478F
:108328000121FFF7B0BF0121FFF7B8BF0021FFF718
:10833800C0BF0021FFF7C8BF2DE9F0438368D3F819
:108348004861C6F3400689B0074636B10022114697
:1083580009B0BDE8F04301F021BD012906D91E4A44
:10836800022109B0BDE8F04300F0C6BC1B4C1C4D0F
:10837800DFF870901C23E2182D1B4FF06408B5FB42
:10838800F3F503FB05251C34AC4202D109B0BDE866
:10839800F08354F81C0C54E90623017900689A1AF2
:1083A8001B1ADBB2039308FB03F3B3FBF2F3CDE92B
:1083B800016334F8043C0093CDE9061254F8083CF4
:1083C80011FB08F13846B1FBF2F1CDE904214A4628
:1083D800082100F091FCD6E758F90300D8EF030014
:1083E8002CF003006BF9030010B590B1D0E901231C
:1083F80001689B1ADBB20A60013BDBB2FF2B026803
:1084080002D10020107110BD11684C1C14600B7053
:10841800F2E70E20F7E737B5054602A8002400F872
:10842800014DFEF75BFE2A686B68116899420ED908
:10843800481E106011F8014CEB68298B01FB0434CD
:10844800AB6811791B1ADBB2994238BF13719DF8DA
:108458000700FEF767FE204603B030BD37B5054676
:1084680002A8002300F8013D0C46FEF737FE2A68F3
:108478001368591C1160E968641A298BB4FBF1F47C
:108488001C709DF80700FEF74DFE03B030BD30B1FB
:108498008A68B2F8483143F02003A2F8483170479F
:1084A800436810B59C686068036801219B68984719
:1084B800A36810B903221A7010BD0422FBE70968EB
:1084C80000680FF09FBD08B10FF0C3BD704738B505
:1084D800836805460068DC7FFFF7F5FFAB685A7EC6
:1084E8002044B0FBF2F302FB1300B0FA80F040091D
:1084F80038BD10B584680068FFF7E5FFE37F627E4A
:10850800A076C0B2034493FBF2F102FB11330133AE
:108518002375A37F01311844A17590FBF2F3591C10
:1085280002FB13030133E175637504F1140010BDF8
:1085380038B58368054600689C7FFFF7C4FFAB68C1
:108548005A7E2044B0FBF2F302FB1300B0FA80F02D
:10855800400938BD2DE9F047089C1E4609BB1B4F52
:108568001B4CE41BE4089442B94606D91948E500B7
:1085780000EB82080C46A54201D100230EE009EB6E
:108588000403D8F800005B6819680FF03BFD07EB9F
:10859800040A08340028EED1DAF804303360BDE864
:1085A800F0870028E9D00178436839B121461046A0
:1085B80098472368002BE0D03460F0E7120199183F
:1085C8009B58002BD9D03160E9E700BF60ED03006C
:1085D800C8ED03007879002030B50368D3F840511E
:1085E80085B00446EDB10023092201A9284602F00E
:1085F80093FD2368029AC3F840210021092201A8AB
:108608000FF0ABFC0023092201A9284602F079FDEE
:10861800284602F01EFD2368D3F8400118B9C3F8B4
:108628003C0105B030BD01A90023092202F074FD08
:1086380020680023092201A9D0F84001019302F023
:1086480060FDEEE707B58368B9B1DA7E8A4211D0DA
:108658000B4A009233228DF8042001F12F028DF885
:1086680005206D22ADF80620D9766A4605490069CD
:1086780001F0DDFF03B05DF804FBD976024AF5E7A7
:108688001B5B313BB7FD03008FFA0300836807B516
:108698001A7F8A4213D045F61B32ADF800203422E7
:1086A8008DF8022001F12F028DF803206D22ADF81C
:1086B800042019776A460349006901F0B8FF03B03E
:1086C8005DF804FBB7FD0300014901F0B0BF00BF2E
:1086D800CDFD03000A460068014901F0A8BF00BFAC
:1086E800BFFA030009B1FFF7F5BF7047014A024915
:1086F80001F09DBF85FA0300B7FD03002DE9F84F8F
:1087080000250746884614460560207840B10FF0DA
:10871800F3F960B10023237001343B680B2BF4D9C3
:108728003B68002248F823202846BDE8F88F3B68BC
:108738005A1C3A6048F82340054694F80090B9F16D
:10874800000FEAD0002D40F08980B9F1270F05D03D
:10875800B9F15C0F0ED0B9F1220F79D12046FFF79D
:10876800B2FE611C024620460FF006FA4D46264628
:108778003446E2E7661C2046FFF7A5FE314602466E
:1087880020460FF0F9F9F3E7B9F15C0F01D0661C48
:10879800EEE760788542EED0302825D102234FF0ED
:1087A8000009E05CA0F13001C9B207295FFA83FA39
:1087B80017D8013341EAC901052B5FFA81F9F0D1D5
:1087C8009A462046FFF77FFE0AF1FF3BA344821C2E
:1087D800A2EB0A02594620460FF0CEF984F8009021
:1087E800C6E7BAF1020FECD17828D0D102214FF0B8
:1087F8000009635CA3F13002D2B2092AC8B214D8C6
:1088080042EA091303295FFA83F90CD14FF0040BEC
:108818002046FFF758FE0BF1FF3AA244821CA2EB58
:108828000B025146D7E70321E3E7A3F16102052ACA
:1088380003D8573B43EA0913E4E7A3F14102052AA9
:1088480001D8373BF6E70228A1D04FF0030BDFE74A
:1088580048460FF051F9002899D05EE7A94504F180
:10886800010691D12046FFF72EFE314602462046EA
:108878000FF082F9264600257AE72DE9F3410646EE
:108888000F461446002514B902B0BDE8F08170689F
:1088980003682246D3F80C80791901ABC047019BC5
:1088A8001D44E41A002BEED1B3681A78032AEAD0E3
:1088B800D3F848219206FBD5B3F848216FF3451247
:1088C800A3F84821DFE72DE9F04F054685B01746A4
:1088D8000E46002979D00C46A4EB060A14F8010BC1
:1088E8000FF00AF90028F7D1BB1B01935FFA87F84C
:1088F8003046FFF7E8FDAB685C7EA0EB0A00E41B9E
:10890800A04206EB0A095ED9019BCB46A3EB0A02FB
:10891800ABEB09039BF80000039202930FF0ECF80D
:10892800039A28B19BF80000029B0A281C4607D02E
:10893800A868407E02EB0B0398420BF1010BE7D8C5
:10894800286901F069FE224649462846FFF795FF47
:1089580054443444A4EB060A14F8010B0FF0CCF885
:108968000028F7D12C4654F8100FFFF7ADFE41460A
:108978002046FFF7B7FEBBE70134A04218D019F82C
:1089880004300A2B0AEB0408F6D1286901F044FEEA
:1089980022462C4649462846FFF76FFF54F8100F29
:1089A800FFF792FEF9B2204608F1010AFFF79AFE96
:1089B800286906EB0A0101F03AFE286905B0BDE80E
:1089C800F04FFFF781BE0024D7E705B0BDE8F08F70
:1089D8000A4619B10249006801F029BE704700BF74
:1089E800B9FA03000A4619B10249006801F01FBE2E
:1089F800704700BFC5FA030070B50546FFF779FD5B
:108A080083790278817801339A42044601D1012999
:108A180015D0012905F1100604D90139C9B230462B
:108A2800FFF7E0FF2378A1798B4209D9013B591A56
:108A3800C9B23046FFF7CCFFAB680022DA7770BDC9
:108A48000131C91AC9B23046FFF74CFEF4E7F8B550
:108A58000546FFF74EFD04468778C6782846FFF797
:108A680036FD78B12869FFF72FFEB74205F11005EA
:108A78000ED161782378C91A2846C9B2BDE8F840F2
:108A8800FFF7A6BF2846FFF753FD0028EAD1ECE719
:108A9800A378E178C91AC9B22846FFF7A3FF23785B
:108AA80061788B42E7D9591A2846C9B2BDE8F8401F
:108AB800FFF718BE2DE9F34106468068414F0024B0
:108AC80080222146A0308DF803400FF046FA3E4937
:108AD800306901F0ACFD306901F09EFD4FF47A7504
:108AE80047F00107706803680122D3F810800DF180
:108AF800030101ABC047019B5BB94FF6C010B847F3
:108B0800019B002BEED1013DADB2002DEAD10D2025
:108B180034E09DF80320B3681B2A47D093F8A010CF
:108B28001B29EDD1522A41D11C44002284F8A020EF
:108B380093F8A1105B291ED103F1A200022510F8B9
:108B4800011B0135EDB23B296CB21AD1002C20DB98
:108B580005F19F041C44002114F8010FD8B9FA2923
:108B680088BFFA21FA2A88BFFA22002019759A7557
:108B780083F8A00002E083F8A0200B2002B0BDE833
:108B8800F08102EB820201EB4202303A802D92B270
:108B9800D5D10C20F2E70135303801EB8101EDB277
:108BA80000EB4101280689B2F3D4D5E7191901343D
:108BB800E4B2092C81F8A020A2D9002283F8A020D1
:108BC8000420DBE7D0FA0300AAFA030038B505460B
:108BD800FFF78FFC027843789A4204468378C2787C
:108BE80001D1934214D09A4205D9D21AD2B20B4974
:108BF800286901F01CFD237861788B4205F110008B
:108C080007D9591AC9B2FFF7E3FEAB689A7FDA773A
:108C180038BDC91AC9B2FFF765FDF6E7B3FA030014
:108C2800F8B51E46C3685B680546986040680368E7
:108C380017461C682A4A2B46A0470446002845D1F7
:108C4800686902F004FA044600283FD1A8684FF486
:108C5800A6722146C0F83C41C0F840410FF07DF9AA
:108C6800AB68DFF88CC0B3F8482142F02002A3F8C3
:108C78004821B3F8482167F38202A3F84821B3F8E2
:108C8800482142F00802A3F8482101221A7045F24F
:108C980018021A83134A144B9B1AD808214681429A
:108CA80016D1072B04D9114B114804220EF081FF6D
:108CB80066B19DF81810E86803F012FC0028A1BFFF
:108CC800EB68DB6801225A71B8BF04242046F8BD5E
:108CD80002EBC1077F683F684CF821700131DEE77D
:108CE8009784020060ED0300C8ED0300C78402000A
:108CF80078790020FFF7C1BD0CB4F7B508AB02AD19
:108D080053F8046B45F8043D0F468168D1F84831A3
:108D18005B07044620D5CB7EBB421DD002221B3107
:108D280068460FF0F1F839462046FFF78BFC2A46D3
:108D38003146206901F0F8FC9DF800102046FFF745
:108D480081FC9DF8011011B12046FFF79FFC03B08C
:108D5800BDE8F04002B070472A463146206901F06C
:108D6800E3FCF4E7F8B504468068857FAB187F2BF1
:108D78000F4616463ADC002A38D0C37FED1A03F1B5
:108D8800200113442033EDB201446A1C18440EF04C
:108D9800F3FEA068C37F20333246394618440EF0EC
:108DA800EBFEA0682030FFF78EFBA268D37F907798
:108DB8002033134420460E4A0821FFF79DFFA3687D
:108DC800DA7F3244DA772046FFF781FB40B1206929
:108DD800FFF77AFC55B12046BDE8F840FFF737BEEB
:108DE8002046FFF7A5FB0028F1D1F3E7F8BD00BF47
:108DF800B7FD03002DE9F04104468068D0F84831FA
:108E0800827FC3F30008C37F5FFA88F7D51A0E463E
:108E1800EDB2002F3ED17E2A40D83DB103F12001AA
:108E2800213301442A4618440EF0A6FEA368DA7FCF
:108E38001A4482F82060002F72D19A7F0132D2B290
:108E48009A77134483F82080002D72D02046FFF7CC
:108E580050FB8278C3789A4204F1100620D1A268A8
:108E6800D37F2033134408212046354AFFF744FFB7
:108E7800E91BC9B23046FFF7ABFDA268D37F0133C7
:108E8800D3772046FFF723FB10B32069BDE8F041F4
:108E9800FFF71ABC7E2AC9D9002DC7D1BDE8F081D9
:108EA8002069284A264901F0C2FBA268D37F2033F3
:108EB80013442046224A0821FFF71EFF2069224A50
:108EC8001F4901F0B4FB01213046FFF703FCD4E74A
:108ED8002046FFF72DFB0028E0D02046FFF709FBCE
:108EE800C2788378013AD21A12F0FF02054604F1DB
:108EF800100603D01549206901F099FB2069FFF796
:108F0800E3FBE978AB78C91A3046C9B2FFF76AFDC6
:108F1800297801393046C9B2BDE8F041FFF7E2BB14
:108F2800002D93D19A7F0132D2B29A77134483F8F5
:108F3800205032460649206901F079FB9DE700BFC1
:108F4800B7FD030089FA03008CFA0300B3FA0300A3
:108F580054FA0300F0B5826885B000250446CDE9CF
:108F680001558DF80C50D2F844610F46002941D1C3
:108F7800002E3AD0FFF740FDA0683B46D0F84401E8
:108F8800092201A902F0C8F8A068029BC0F8443180
:108F9800857F002B4CD1A030FFF795FAA36830B33A
:108FA80003F1A00103F120000FF00AF8A0682030B7
:108FB800FFF789FA8DF80C009DF80C30A268AB42D7
:108FC800D377937702D22069FFF790FBA3682D4AE5
:108FD800204620330821FFF78FFE2046FFF777FA57
:108FE800002848D02069FFF76FFB05B0F0BD83F873
:108FF8002000DBE7D2F84031B342F6D0D2F83C315A
:10900800002BF2D0FFF7F8FCA368D3F8440130BB7B
:1090180003F12000FFF757FAC5B2A068D0F83C3139
:10902800C0F84431C5B100F12001A0300EF0C8FFEE
:10903800A06801A900230922D0F8440102F06CF8C5
:10904800A0689DF80C2000F1200109230132D0F816
:10905800440102F061F8AFE780F8A050E8E72B463A
:10906800092201A902F058F8A368019A9DF80C504A
:10907800C3F84421DCE72046FFF75AFA0028B1D1AB
:10908800B3E700BFB7FD030038B504468068C37F67
:10909800857FED1A15F0FF0540D003F1210120333B
:1090A80001442A4618440EF067FDA268937F013BED
:1090B80093772046FFF71DFA8278C3789A4215D134
:1090C800A268D37F203313442046154A0821FFF7AE
:1090D80013FE54F8100F1249124A01F0A8FA691E3B
:1090E8002046C9B2BDE83840FFF772BC0E4A0C49A9
:1090F800206901F09CFA2069FFF7F8FAA268D37F8B
:10910800203313442046064A0821FFF7F5FD20695D
:10911800064A0349BDE8384001F089BA38BD00BFA6
:10912800B7FD030093FA030089FA03008CFA0300E1
:109138002DE9F041C3685B6890B004460D460022F3
:1091480003A9186802F06FF9002840F091808DB1EA
:10915800039801F0C7FFA268D2F838310133C2F88A
:10916800383103F00703012B04D00125284610B03D
:10917800BDE8F0812046FFF7BCF981780129064651
:1091880005D90139C9B204F11000FFF72BFC317879
:10919800012905D90139C9B204F11000FFF718FCFB
:1091A8002069FFF7A3FA2DB1324A02212046FFF7C2
:1091B800A3FDDBE70023082204A9039801F0ACFF14
:1091C800069B0793BDF81430ADF82030BDF8163073
:1091D800ADF822309DF810308DF8255003F00302C9
:1091E800012A25D1BDF81060049F0398C3F3C20378
:1091F800C6F383168DF82430B20008230AA901F0BB
:109208008BFFC7F3952723690093324607AB0AA95A
:10921800384603F0EBFA039801F064FFE3685B68F3
:10922800002203A9186802F0FEF80028C2D09CE7C3
:10923800022AF0D1BDF81260C3F3C203B6098DF853
:1092480024304FF00808082E374628BF0827434621
:109258003A460AA9039801F05FFFF61B236907AA9B
:1092680039460AA8B84403F025FB002EEBD1D2E713
:1092780000257BE757FA030013B5436801A90022CC
:1092880018689C6802F0CFF8014610B92046FFF72D
:109298004FFF02B010BDF7B547680191BC68A368DD
:1092A8001E78042E0ED001A9386801F0CBFF0546C0
:1092B80050B9019801F012FF032E03D12946204628
:1092C800FFF736FF03B0F0BDF11E18BF012120469D
:1092D800FFF72EFFE7E700002DE9F04F044680680E
:1092E800A5B0102100F5A470FEF7D8FFA3681B787D
:1092F800022B40F0DA8000230B9304936068036824
:1093080001221D690DF12B010BABA8470B9B002B0C
:1093180000F0B2809DF92B30002BEFDB01F046FF07
:10932800A0684378012B00F07C8449D3022B40F0DD
:10933800EE84049B4370D0F84831190740F19C80B3
:109348009DF82B30313B1B2BD8D801A252F823F0C3
:10935800E39C0200F19C0200119D0200D59C0200D2
:10936800059302000593020005930200059302008D
:10937800059302000593020005930200059302007D
:10938800059302000593020005930200059302006D
:10939800379C0200439C0200479C0200939C0200F9
:1093A80005930200D99C020005930200E79C020085
:1093B800059302000593020005930200F59C020044
:1093C8009DF82B500D2D31D00A2D2FD0B0F84831F3
:1093D8006FF38D13A0F84831092D00F0F88100F2E1
:1093E800E581002D8AD0082D00F0C18328460EF0B3
:1093F80088FB002882D0A3689DF82B10D3F8482159
:109408001007C2F3C00600F10A83987F7E283FF652
:1094180075AFDD7F6A1CD2B2DA771D441A44013079
:1094280085F8201082F82060987767E7D0F84831EF
:1094380013F47F5F05D0D0F84831C3F387139D42FA
:10944800CAD1B0F8483165F38D13A0F84831837F4D
:10945800002B37D1C0F844312069FFF735F9A368EC
:1094680002221A700022DA8383F820202368AF4A88
:1094780003212046FFF740FC00212046FFF758FE55
:1094880098B12368A94A03212046FFF735FCA36851
:10949800D3F84821120708D520462033A34A0821CB
:1094A800FFF72AFC2046FFF7D2FA206901F0B4F84A
:1094B800A0686FF0100100F5A470FEF705FF25B055
:1094C800BDE8F08F90F82030002B5BD1A0682030E9
:1094D800FEF7F9FFA3680026C5B2C3F844610DB3CF
:1094E800D3F83C01002800F088800922334617A9E8
:1094F80001F012FE9DF86420AA427ED1A0680923DB
:1095080000F1A0010132D0F83C0101F005FEA0688D
:1095180000F1A00120300EF075FDA36800286AD183
:1095280083F8A0002046FFF751FB2046FEF7CFFF47
:1095380010B92069FFF7C8F8A26817A920320EA849
:10954800FFF7DCF80E9A0346002A85D0002840F081
:109558009C80774F774EF61BF6080546AE42179B60
:1095680040F09980744A00920221744A2046FFF71D
:10957800C3FB74E70135B5F5807F04D1002283F879
:109588002020A3E70025A3682B44EEB293F820001F
:109598000EF0B2FAA3680028ECD16EB19A7F03F1FD
:1095A80020000132521B41190EF0E6FAA268937F9F
:1095B8009B1BDBB29377D377A568AB7F1F331D4422
:1095C8002E46B046AB1B98F80000DFB2013E0EF005
:1095D80093FA0028F5D1A268937F03F11F01114483
:1095E80088453FF473AFDB1BD118DBB281F820004C
:1095F8009377D3776AE783F8A060082705F10A060E
:1096080004EB07083146606901F039FD054600287A
:1096180035D0A368D3F83C01B8B9C3F83C51C3F8B6
:109628004051CDE917009B7F8DF8643017A9284673
:109638000023092201F065FDA1688A7F0923013210
:109648002031284601F05DFD6CE70023092217A9A7
:1096580001F062FDA06818950023092217A9D0F827
:109668003C0101F04EFD00231893A368D3F83C2178
:1096780017929A7F8DF86420C3F83C51D6E740468C
:10968800FEF7AAFF013FBDD14CE72D4A0221204633
:10969800FFF732FBE3E67A68184611680EF0B2FC71
:1096A800B846083718B10135AE42BFF457AFA068C5
:1096B8000021102204300F910EF04FFCD8F804500E
:1096C800EB682BB195E80F00A668043686E80F0012
:1096D800D5F808B0DFF86C90DFF86CA018AF00265A
:1096E8004FF0010800250E9B43450BD949463868C1
:1096F8000EF088FC50BBA268B2F8483143F0020370
:10970800A2F84831A3681B69002B49D00E9917AA03
:1097180002EB8602891B20469847A368B3F84821C4
:109728006FF34102A3F8482199E600BFB7FD030093
:1097380060ED0300C8ED030048FD030072FC030060
:1097480034FD03005CFD03005FFD030051463868EB
:109758000EF058FC0028CED013AB00932A460FAB6E
:1097680041465846FEF7F6FE6A1CCBD00F9B002BED
:10977800C8D0196838680EF045FC01350028B2D108
:109788000F9DEB6833B195E80F00A668043686E8AC
:109798000F00464608F10108D5F808B00437A1E7DC
:1097A800AF4A02212046FFF7A7FAB6E71B2D0BD0D8
:1097B8007F2D7FF41BAED0F848311D077FF59EAD95
:1097C8002046FFF761FC99E50123437096E5D0F840
:1097D80048311B077FF592AD837FC3F17F0313F0F8
:1097E800FF0303933FF48AAD00F12001C27FA0304C
:1097F8000EF08AFBA368DA7F1344049A83F8A0204A
:10980800D87F0EF079F9031C18BF0123A2680793CB
:10981800049BC2F844310690A03217A90CA8FEF7A1
:109828006DFF1798FEF74FFE0023CDE90D33C7B241
:109838001E4605931D4602939A469B460C9B2BB1E8
:10984800079A013B1344AB4200F2C280069B002BEF
:1098580037D124AB03EB850353F8340CFEF733FE02
:10986800C7B224AB03EB85034FF00009099309F154
:10987800010308930FAB00934A460DAB29463046C7
:10988800FEF768FE0D9B002B59D01968099B3A46D4
:1098980053F8340C0EF008FB8046A8B9029B01333C
:1098A80002930D9B18680E9B8BB9FEF70CFE039A6A
:1098B800C3B20593DB1B9A4201DDDBB20393CA46B0
:1098C80031E00027CDE7CB46DDF82090CFE7FEF763
:1098D800FAFD059BC0B2834238BF03460593039B3C
:1098E8000BB313AB009330460EAB5A462946FEF72E
:1098F80031FE0D9B18680E9BD3F800C008EB0702D9
:109908005FFA88F1835C2BB9039B8B4228BF0B4617
:10991800039308E01CF802209A42F5D108F10108E7
:10992800B8F5807FEAD10D9B0E93089B002BCAD116
:109938004C4A04212046FFF7DFF94FF0FF3B4EB1B8
:109948000D9B3BB10C9B079A0135EDB213449D4228
:10995800FFF474AF029B002B3FF4D0AC012B40F016
:10996800838033783BB10FAB00935A460EAB294640
:109978003046FEF7EFFD0E9B1868FEF7A4FDB842CF
:1099880006D00E9B039A196820463944FFF7EAF976
:10999800A368DA7F134493F820000EF0ADF8A368AB
:1099A800002840D1D3F84821D70737D5B3F8482144
:1099B80060F30002A3F8482120212046FFF71AFA95
:1099C800A268B2F8483143F00103A2F8483195E49F
:1099D80024AB4FF0000803EB85090FAB0093424618
:1099E8000DAB29463046FEF7B5FDB8F1FF3F05D16E
:1099F8001C4A04212046FFF77FF97FE40D9B002BCA
:109A08003FF47CAC196859F8340C0EF0FBFA08F1F5
:109A180001080028E1D10D9B9E6890E7202120468F
:109A2800FFF7E8F96AE4DA7F9B7F9A42BFF466ACF5
:109A38002046FEF75EFDA2688578D37F0133D37791
:109A48002046FEF756FD8378AB4205D1012104F18B
:109A58001000FEF73FFE51E42069FEF735FE4DE4A5
:109A680066FD030084FD0300A368049A5A7724ABBB
:109A780003EB8503DFF8C49207930AF10103069309
:109A88000FAB009352460DAB29463046FEF762FDF8
:109A98000D9B1968079B3A4653F8340C0EF004FAEC
:109AA80028BB029B013B02930D9BD3F800B0BBF18E
:109AB800000F1FD1A36883F81DB0029BBBB92368B0
:109AC800944A20460321FFF717F9A368924A2033E6
:109AD80008212046FFF710F92046FEF7B8FF0E9B35
:109AE800039A196820463944FFF73CF906E4DDF883
:109AF80018A0C2E74846FEF7E6FC059BA268184492
:109B0800C3B2484692F819800993FEF7DCFC089026
:109B18005846FEF7D8FC099B089A181A5FFA80FA8B
:109B2800A068417FA8EB0208B8FBF3F3DBB2B1FBF6
:109B3800F3F203FB121301F1010C13F0FF0F80F88D
:109B48001DC00DD1CDF800B04B46744A0721204600
:109B5800FFF7D2F8514604F11000FEF7C3FDACE759
:109B68005B466D4A07212046FFF7C6F8F2E7D0F8B2
:109B780048311E077FF5C2AB867F002E3FF4BEAB8F
:109B8800C37F002B3FF4BAABF61A03F12001F6B2FB
:109B98001F33721C014418440DF0EEFFA368DA7FEE
:109BA800013ADA779A7F013A9A77002E37D02A4617
:109BB8005B49206900F03BFD2046FEF79AFC82785D
:109BC800C3789A4213D1A268D37F29462033254609
:109BD80013442046504AFFF78FF855F8100FFEF748
:109BE80085FD31462846FEF7F3FEFFF787BB4D4A51
:109BF8004949206900F01BFD2069FEF777FDA2683E
:109C0800D37F203313442946434A2046FFF774F88C
:109C1800454A4149206900F00AFDFFF76FBB434AF6
:109C2800F7E79DF82B305B2B71D10223CDE501219D
:109C38002046FFF78FF9FFF761BB0021F8E72046C0
:109C4800FEF757FC037842789A42054604D181789A
:109C5800C27891423FF452AB6A799A4204F11006F5
:109C68000ED133492069012200F0E1FC69793046C0
:109C7800FEF7AEFEA268D37F0133D377FFF73EBB72
:109C880001213046FEF726FDF4E72046FEF731FCB9
:109C98008379027801339A42054603D18378012BF0
:109CA8003FF42CAB012A20690BD1224900F0BFFCFC
:109CB800697904F11000FEF715FDA268D37F013B16
:109CC800DBE701221C4900F0B2FCF6E703234370EE
:109CD8002046FEF77BFFFFF711BB032343702046A6
:109CE800FEF78AFEFFF70ABB03234370D0F848311A
:109CF800B0F8482103F0010383F0010363F3000285
:109D0800A0F84821FFF7FABA0323437053E5049BF0
:109D18005BE500BFB6FD0300B7FD0300B0FD03001F
:109D280054FA030089FA03008CFA0300A6FA030028
:109D3800B3FA0300C5FA0300B9FA03009B0F040045
:109D4800836870B51E78012E044620D140680368E8
:109D580000219B6898470546B8B908212046FEF7B8
:109D680071FC31462046FEF791FC0A49206900F053
:109D78005EFCA3680222DD8383F820501A70032159
:109D88002368054A2046FEF7B7FF284670BD082518
:109D9800FBE700BFCCFD0300B7FD03002DE9F04F42
:109DA800044689B08048DFF8249217460E460EF024
:109DB80050F905467D480EF04CF9A368CDF800909F
:109DC8007B4A5B6808212D1A2046FEF795FFA36899
:109DD8005868FEF778FB804648460EF03AF9A368C3
:109DE80008EB000292B299682046FEF76CFD714AB2
:109DF80000212046ADB2FEF77FFF3FB136B14FF0EC
:109E08000C09B04609FB0769C14527D167480EF020
:109E180020F902300544ADB2634B009305F1030805
:109E2800654A082120462B461FFA88F8FEF764FF8A
:109E3800424662492046FEF746FD36B10C23DFF85C
:109E4800789103FB0767BE4222D1A368D3F80C9030
:109E5800B9F1000F5AD109B0BDE8F08FD8F8040065
:109E6800FEF731FB8246D8F80000FEF72CFB504481
:109E7800A8420AD9D8F80400FEF725FB0546D8F809
:109E88000000FEF720FB0544ADB208F10C08BBE763
:109E9800D6E9002393B34AB30192444A00920821B9
:109EA800474A2046FEF728FF7068FEF70CFB8346FA
:109EB8003068FEF708FB82463C480EF0CAF8A5EB6E
:109EC8000B03A3EB0A031B1AD9B204F11000FEF727
:109ED80009FC3A223B49206900F0A9FBB16889B125
:109EE80042462046FEF7EFFC0C36ACE700932B46C3
:109EF8004A4608212046FEF7FFFEEFE7002AEDD08C
:109F08000092F4E72069FEF7DFFBEDE70DF120088A
:109F1800002248F8142D164604AF00974346012145
:109F2800484602F1010AFEF715FB039D5DB128685A
:109F3800FEF7C9FAB04204D9039B1868FEF7C3FAC2
:109F480086B25246E9E7BAF1010F84D01E4A294683
:109F58002046FEF7D1FE06F1020A2A46164D1FFAE0
:109F68008AFA434600970121484602F1010BFEF7A1
:109F7800F1FA039B002B3FF46EAF1B680093082196
:109F880053462A462046FEF7B7FE039B596831B16F
:109F9800721D92B22046FEF796FC5A46E1E7206908
:109FA800FEF792FBF9E700BFD6FA0300DCFD0300D9
:109FB800B1FD0300E6FC0300F0FC0300F8FC03001D
:109FC8000BFD030054FA030014FD0300AFFA03006D
:109FD800022910B504460AD18368D3F848319B0793
:109FE80005D500221146BDE81040FFF7D7BE20690D
:109FF800054A064900F01BFB2069054A0349BDE8EC
:10A00800104000F014BB00BF97FA0300B7FD03002F
:10A018009BFA030010B58368D3F8482192070C46D1
:10A0280006D500221146FFF7B9FE0124204610BDCF
:10A038000029FBD05B68024A0221FEF75DFEF5E7C6
:10A04800FCFB0300012937B50546144606D100225A
:10A05800114603B0BDE83040FFF7A0BE023918BF73
:10A068000121FFF7D7FF48B963680193044B0093B8
:10A07800044A236802212846FEF73EFE03B030BD9D
:10A0880078FC03006FFC030011F1FF3110B518BF15
:10A0980001210446FFF7BEFF40B9054A054920697A
:10A0A80000F0C5FAA36845F218021A8310BD00BF74
:10A0B800A0FA0300B7FD030001292DE9F341044686
:10A0C800154637D18668FEF7F5FC38BBA36804F15E
:10A0D8001005FA21284693F814809F7DFEF7FAFAB6
:10A0E80020691E49FA2200F0A2FA2046FEF7E2FC97
:10A0F800A0B9A368197D7176A368A1EB08019B7DBF
:10A1080033762846C9B2FEF763FC317EC91BC9B253
:10A11800284602B0BDE8F041FEF764BCA36845F2EA
:10A1280018021A830E4A0421204602B0BDE8F04105
:10A13800FEF7E2BD022994BF00210121FFF76AFF63
:10A1480048B96B680193074B00932B68064A0221B4
:10A158002046FEF7D1FD02B0BDE8F081B3FA030056
:10A16800ACFC030078FC03006FFC03002DE9F04110
:10A1780011F1FF3186B018BF01210546FFF74AFFEC
:10A1880040BBAB68DFF85480D3F840610446EEB1B9
:10A19800082C1BD030460023092203A900F0BCFF7D
:10A1A8009DF81420A968304609230132A03100F037
:10A1B800B3FFAB68049EA0330093671C2346424656
:10A1C80000212846FEF798FD3C46E0E7AB680022F0
:10A1D80083F8A02006B0BDE8F08100BFA2FC030010
:10A1E80011F1FF3110B518BF01210446FFF712FF26
:10A1F80030B9A368B3F8482160F38202A3F8482174
:10A2080010BD11F1FF3110B518BF01210446FFF749
:10A2180001FF30B9A268B2F8483143F00403A2F84C
:10A22800483110BD11F1FF3110B518BF01210446A6
:10A23800FFF7F0FE30B9A368B3F8482160F3C30212
:10A24800A3F8482110BD11F1FF3110B518BF012145
:10A258000446FFF7DFFE30B9A268B2F8483143F090
:10A268000803A2F8483110BD022973B50D4694BF02
:10A278000021012104461646FFF7CCFE014658B9D5
:10A28800022D0BD1736801930C4B00930C4A336871
:10A2980029462046FEF730FD02B070BDA368094A82
:10A2A800D3F8483113F0080F074B18BF1346074A75
:10A2B800204602B0BDE87040FEF71EBD78FC0300E2
:10A2C8006FFC0300491404008DFC030091FC03009B
:10A2D80011F1FF3110B518BF01210446FFF79AFEAE
:10A2E80048B9A368C3F83801E3685B68BDE8104063
:10A2F800186801F0DFB810BD7FB511F1FF3118BF44
:10A3080001210446FFF786FE0546B8B9E3685B6895
:10A318001E68304601F0CBF8B368A268C1B2CDE937
:10A32800011364204843B0FBF3F0C0B20090D2F8A8
:10A338003831034A29462046FEF7DEFC04B070BDDA
:10A3480038FC0300012906D0022908D18368D3F814
:10A3580048319B0703D500221146FFF71FBD024A6B
:10A368000221FEF7C9BC00BF66FD0300012907B53D
:10A3780006D10022114603B05DF804EBFFF70EBDCD
:10A3880002290AD153680193084B00931368084ABD
:10A39800FEF7B2FC03B05DF804FB8CBF012100217D
:10A3A80003B05DF804EBFFF735BE00BF78FC03008F
:10A3B8006FFC03001A60C0681A4601F04FB900002C
:10A3C80010B4074C0378E35C23B104305DF8044B08
:10A3D80004F010BC0C305DF8044B04F069B900BF00
:10A3E800548600204069054A0378D35C13B10430D1
:10A3F80004F0BCBC0C3004F027BA00BF548600201F
:10A408000378044AD35C13B1043004F09DBB0C30CC
:10A4180004F0F8B85486002010B504464069FFF7E8
:10A42800EFFFA368BDE810401868FCF741BE0000C4
:10A4380037B51A6004461A46006901F099F80546CE
:10A4480010BB6069144A0378D35C03B3043004F08A
:10A4580015FCC8B902AAFF2342F8043D6946012346
:10A46800206901F0C0F878B99DF804200099606966
:10A47800FFF7A6FF636893F82930054623B118B99A
:10A488000199206901F024F9284603B030BD0C3049
:10A4980004F058F9DDE700BF5486002037B502AA5A
:10A4A800FF23044642F8083D01A90123C06801F0D2
:10A4B8000EF898B9009A8AB160690B4D0378019932
:10A4C800EB5CD2B263B1043004F0E4FB30B9A368AA
:10A4D800224640F6CD411868FCF7A6FD03B030BD12
:10A4E8000C3004F03BF9F1E75486002073B503788B
:10A4F800FF26012B05460C4601960BD017D3022BDD
:10A5080006D1017AE06801F01CF82046FFF7C6FF83
:10A5180002B070BD017AE06801F013F82B7A002BC5
:10A52800F3D063680020D3E900219047EDE7017A72
:10A53800206901F0CDF802AA012342F8046D6946AA
:10A54800206901F050F8019A22B1D2B200996069ED
:10A55800FFF736FF63680120D3E900219047D7E76A
:10A5680038B5436893F8283004460D460BB3836822
:10A578001868FCF79DFD30F008030ED175B16069CD
:10A58800FFF73EFF616860690022083102F000FDB4
:10A5980068B96368012283F8292038BD636893F895
:10A5A800283043B12046BDE83840FFF777BF062082
:10A5B800F3E70029E3D1064AA0680021FCF722FD51
:10A5C8006368012283F828200028EBD0E5E700BF64
:10A5D800EDA3020038B5044640680D46C0E90023E3
:10A5E800002380F8283080F82930202208300DF028
:10A5F8008BFC2C612946074A606902F0C9FC0546B4
:10A6080028B9E06800F05AFF206900F057FF284693
:10A6180038BD00BFF5A40200826810B504462AB10F
:10A6280043690168006998470023A36010BD0EB410
:10A6380003B5039929B102AA04AB42F8043D00F01E
:10A6480073F802B05DF804EB03B070470A2938B517
:10A6580004460D4602D10D21FFF7F8FFA3682268D2
:10A66800591CA160D554D4E901329A4204D320463A
:10A67800BDE83840FFF7D0BF38BD00002DE9F84FDE
:10A688009946DDE90A431746824688460A46012666
:10A69800BA420FD24E4538BF4E4613F0010B01D1D6
:10A6A80064B900240125B9F1010F1AD909F1FF395C
:10A6B8007D43F8E7B2FBF7F20136E9E79B070ED5D1
:10A6C800B9F1000F0CBF30252025A642EAD2013C83
:10A6D80029465046FFF7BAFF002CF6D1E1E72025BE
:10A6E800F3E7B8FBF5F39F42E2D9DFF83890B8FBFF
:10A6F800F5F3504619F8031005FB1388FFF7A6FF7A
:10A70800B5FBF7F5002DF2D1BBF1000F02D00CB16B
:10A71800A64201D3BDE8F88F20215046013CFFF73F
:10A7280095FFF4E7850004002DE9F74F05469046AC
:10A738000E46002900F03A8116F8011B002958D06E
:10A74800252940F0D180002702E047F0010716468E
:10A75800324612F8013B2D2BF7D0302B04D02B2B8F
:10A7680005D147F00407F2E747F00207EFE70024B6
:10A778002A2B06F101021BD1D8F80030191D1B68DD
:10A78800C8F800101C44164633782E2B1CD101360D
:10A798004FF0000A314611F8012BA2F130000928C8
:10A7A80014D80A2303FB0A23A3F1300A0E46F1E763
:10A7B80012F8013CA3F130010929E5D80A2101FB6F
:10A7C8000434303C1646D3E74FF0000A324612F8FC
:10A7D800011B01F0FB0068281646F8D0692916D03D
:10A7E80054D8582970D00ED825297DD03378002B1D
:10A7F800A2D12B7B002B00F0D980284603B0BDE8FE
:10A80800F04FFFF709BF632968D06429EED1D8F863
:10A818000020D2F80090111D89EAE972C8F80010EA
:10A82800A2EBE9724FF0010B092A61DCD34538BF6E
:10A83800D3462CB1B9F1000F01DB790700D5013CF3
:10A84800BA0702D5BAF1000F04D0FB0702D4002CD6
:10A8580054D10024B9F1000F58DAC9F100092D21AB
:10A868002846FFF7F3FE07F00302022A05D1BAF1E2
:10A87800000F02D1002C4DD10024CDE900475346EA
:10A888000A2249462846FFF7F9FEAFE7732954D054
:10A8980016D87029AAD1D8F800301A1DC8F8002097
:10A8A800302128461C68FFF7D1FE78212846FFF79B
:10A8B800CDFE00220823CDE9003221461022E1E72F
:10A8C80075292FD0782991D1D8F800100A1DC8F819
:10A8D8000020CDE90047534610222CE0D8F800307C
:10A8E8001A1D1978C8F800202846FFF7AFFE7DE743
:10A8F8000A230BF1010B92FBF3F295E7A345A9D2CA
:10A9080020212846013CFFF7A1FEA0E77807AAD539
:10A918002B21A5E7A345B0D230212846013CFFF7FB
:10A9280095FEA7E7D8F80010CDE900470A1DC8F83A
:10A93800002053460A220968A4E7D8F800301A1DF7
:10A94800C8F80020F907D3F8009012D54F46A7EBB6
:10A95800090B17F8011B41B9A345BFF447AF2021E4
:10A968002846013CFFF772FEF6E72846FFF76EFE21
:10A97800EDE7B9F1000F17D048460DF06AFB07461E
:10A98800BC4200D954B909F1FF3919F8011F00294F
:10A998003FF42CAF2846FFF759FEF6E7202128465A
:10A9A800013CFFF753FEEBE74F46E9E703B0BDE88C
:10A9B800F08F000007B50B46A0B9154B5B886BB14B
:10A9C800144B1548154AC01A0E23C0080093144B9F
:10A9D8000004144940F0010001F068FD0E2003B0A6
:10A9E8005DF804FB6BB90A4B5B88002BF6D0094B6A
:10A9F80009480D4AC01AC0080E2300930004084BEA
:10AA0800E7E703601B68114603B05DF804EB1847DD
:10AA1800247A002050EE030040EF030042010400B6
:10AA28009500040047010400BE0104002DE9F3412C
:10AA38009646B0B9504B5B88002B00F095804F4B81
:10AA48004F48504AC01AC0080E244F4B00940004C7
:10AA58004E4940F0010001F029FD204602B0BDE852
:10AA6800F0816AB9444B5B88002B7DD0434B444846
:10AA7800474AC01AC0080E2400040094424BE7E776
:10AA8800D0F800C0BCF1000F0DD13B4B5B88002B08
:10AA98006CD03A4B3A483F4AC01AC0080824000410
:10AAA8000094394BD4E76BB9334B5B88002B5FD0EC
:10AAB800324B3348384AC01AC008092400040094AD
:10AAC800314BC5E74768D7F80480B3FBF8F708FBB4
:10AAD80017376FB1284B5B88002B49D0274B284884
:10AAE8002E4AC01AC008092400040094264BAFE778
:10AAF8008F070DD0204B5B88002B3BD01F4B204885
:10AB0800274AC01AC0081024000400941E4B9FE76F
:10AB180012F0030F0CD0184B5B885BB3174B184827
:10AB2800204AC01AC008102400040094164B8FE76E
:10AB3800C768B9420BD34C1E05691C44AC4206D801
:10AB4800DCF80C40A44602B0BDE8F04160470A4B6F
:10AB58005B887BB1094B0A48134AC01AC008102405
:10AB680000040094084B73E70E2476E7082474E782
:10AB7800092472E7102470E7247A002050EE0300BD
:10AB880040EF030042010400A7000400470104004D
:10AB9800C4010400B801040077010400CA010400DC
:10ABA800F40104000C0204002F020400F7B5A0B958
:10ABB800374B5B88002B63D0364B3748374AC01A6F
:10ABC800C0080E24364B00940004364940F00100BA
:10ABD80001F06CFC204603B0F0BDD0F800C0BCF119
:10ABE800000F0DD12A4B5B88002B4BD0294B2A48EC
:10ABF8002D4AC01AC008082400040094284BE4E732
:10AC08006AB9234B5B88002B3ED0224B2248274A47
:10AC1800C01AC008092400040094214BD5E74768EE
:10AC2800D7F800E00EF1FF370F420CD0184B5B88C5
:10AC380063B3184B18481E4AC01AC00810240004F1
:10AC48000094174BC1E7C768B9420CD34C1E05697D
:10AC58000EFB0244AC4206D8DCF81040A44603B010
:10AC6800BDE8F04060470A4B5B887BB1094B0A4856
:10AC7800104AC01AC008102400040094084BA4E726
:10AC88000E24A7E70824A5E70924A3E71024A1E7D1
:10AC9800247A002050EE030040EF03004201040034
:10ACA800BA00040047010400B80104007701040059
:10ACB800CD000400F300040029DF704728DF704747
:10ACC80070B503689D6886B004460E466DB11422BF
:10ACD800002168460DF041F9A36805932379019690
:10ACE8002BB1012B0DD06846A84706B070BD0123D3
:10ACF8008DF8003023690293E36803936369049332
:10AD0800F1E702238DF80030E3681B030293F5E7AF
:10AD18000846704700207047024B187A003018BF69
:10AD280001207047A07F0020034B187A0122B0FA57
:10AD380080F05A7440097047A07F002008B510467B
:10AD48001A460DF0E1F8002008BD000008B51422ED
:10AD5800002104480DF001F90348FDF79CF9002093
:10AD680008BD00BFA07F00205C7B002010B5094C07
:10AD7800094B43602046FDF7D3FA40B906F0DEF9E7
:10AD88001C2320748C2205490548FDF771F9002021
:10AD980010BD00BFA07F002064020400147F0020C3
:10ADA8005C7B002070B5244D244E2B7A2C463BB991
:10ADB80023492448FDF7CBF9306008B9686070BDB5
:10ADC8000223237233681A7972B1012A24D01846F3
:10ADD8000321FFF775FF00232372636018491948A0
:10ADE800BDE87040FDF7DEB9D3E90520121AB2F5C7
:10ADF800805F28BF4FF48052D3E903159208012AD7
:10AE0800014438BF01222844FFF756FF50B11128EA
:10AE1800DDD101232372D2E7D3E903021044FFF7FF
:10AE28004DFFF3E7237C002BC9D10146BDE87040F4
:10AE3800022000F009B800BFA07F0020B87F0020E2
:10AE4800B47F00205C7B002038B5831E012B45D8D9
:10AE5800234C237A002B41D0022B09D1032830D070
:10AE6800204B1B680022E2601A793AB1012A22D0ED
:10AE7800637C7BBBBDE83840FFF794BFD3E905127C
:10AE88008D1AB5F5805F94BF521902F580529A6108
:10AE98009142EDD102284FF0000308BF19462372F2
:10AEA800104B18BF0D211868FFF70AFF0E490F480D
:10AEB800FDF778F9DCE71A6901321A615B699A4291
:10AEC800E7E7E3680133082B01D8E360D0E7002304
:10AED800E360DFE7BDE8384006F020B938BD00BFC1
:10AEE800A07F0020B87F0020B47F00205C7B00207A
:10AEF80000F0FD03012B08D1044B00225A74421EB6
:10AF0800504250411874FFF74DBF7047A07F002092
:10AF180010B5064C201DFDF703FA28B9637C1BB950
:10AF2800BDE81040FFF73EBF10BD00BFA07F002066
:10AF38002DE9F34180460D460F4801A916461F46E4
:10AF4800FDF7CBF80446A8B11C2200210DF005F846
:10AF58002D0B0123237101A9C4F80080A760E560C7
:10AF680066610548FDF7E3F8FFF7D2FF002002B05D
:10AF7800BDE8F0810420FAE75C7B00202DE9F74367
:10AF880081468846104801A917461E46FDF7A5F8D0
:10AF98000446B0B11C2200210CF0DFFF00250A9BFB
:10AFA800A36001A92571C4F80090C4E9037866611B
:10AFB8000548FDF7BCF8FFF7ABFF284603B0BDE82E
:10AFC800F0830420FAE700BF5C7B00202DE9F047FE
:10AFD800B0F806904479D2F800A09DF8208009FBCB
:10AFE80004F4043C06460AEB0300A0420F4688BF5F
:10AFF800A4EB030A191DC2F800A0B1FBF9F509FB7F
:10B0080015114DB9A9EB0104544528BF5446BAF1AE
:10B01800000F04D1BDE8F0873668013DF1E704313F
:10B028007B1970182246B8F1000F0ED00146184659
:10B03800AAEB040A0CF068FFD145254436684C4653
:10B048004FF0000128BF5446E1E71946F0E7FDF745
:10B05800CBB9F8B546790146721E054600239342DE
:10B068002D6803D30024A64202D8F8BD0133F6E7C1
:10B078000F682846FDF7F2F901343946F3E72DE960
:10B08800F843068BCD1C0746FDF7C5F9043E354449
:10B098000446B5FBF6F5F0B14FF48073EDB283804A
:10B0A800C680013D076081464FF00008A84512D2CE
:10B0B8003846FDF7B0F9064648B163790133637144
:10B0C80008F10108C9F8000007608146EEE720464C
:10B0D800FFF7BFFF34462046BDE8F883012104305E
:10B0E800FDF708B910B5012104460430FDF70DF944
:10B0F80010F0FF0F04D12046BDE81040FFF7A9BFAC
:10B1080010BD1FB504AC44F8042D0022009222465D
:10B11800FFF75CFF04B010BD1FB504AC44F8042D64
:10B12800012200922246FFF751FF04B010BD41DF13
:10B1380070470000064B10B500241C70054B1C60BE
:10B14800BFF35F8F0449054800F0D3FA204610BDCD
:10B15800C47F0020C87F0020A0020400BC7F00201C
:10B1680007B502A8002300F8013DFBF7B7FFF1EE91
:10B17800103A23F09F03E1EE103ABFF35F8F0A4BBA
:10B188004022C3F884219DF80700FBF7CBFF05F0A8
:10B19800D5FF20B1FFF7CBFF03B05DF804FB20BF5C
:10B1A80040BF20BFF8E700BF00E100E07047026839
:10B1B80013685268934291BFD01A80680130801892
:10B1C80088BFC01A70472DE9F84303681D685C689A
:10B1D800A54284BF836801331746884694BF641B21
:10B1E8005C1BC2684168BC42064605FB02110CD3D1
:10B1F8007A4340460CF088FEB3683D449D4288BFC0
:10B20800002533681D60BDE8F88304FB02F94A464F
:10B2180040460CF079FEF26871683C1B624308EB0B
:10B2280009000CF071FE33681C60ECE70368816864
:10B238001A685B688B4234BF01330023D31A584223
:10B2480058417047F7B5044602A8002300F8013DAD
:10B258000D46FBF743FF2046FFF7E8FF10B1237CBC
:10B26800002B3CD12268A66853685168B14234BFAC
:10B2780001310021516030B11168A068814234BFAA
:10B28800013100211160E2686068511E072920D849
:10B29800DFE801F004101F141F1F1F182A78C2547A
:10B2A8002046FFF784FF23689A68824200D298609C
:10B2B800002415E02A8820F81320F1E72A6840F8CE
:10B2C8002320EDE7D5E9006700EBC300C0E900677C
:10B2D800E6E7294602FB03000CF016FEE0E704242B
:10B2E8009DF80700FBF71EFF204603B0F0BDF7B539
:10B2F80006460F46144600259AB102A800F8015DDB
:10B30800FBF7ECFE3046FFF752FFA0420CD3224673
:10B3180039463046FFF757FF2C469DF80700FBF7E4
:10B3280001FF204603B0F0BD0524F6E713B5044637
:10B3380002A8002300F8013DFBF7D0FE2046FFF7E6
:10B3480036FF04469DF80700FBF7ECFE204602B0E6
:10B3580010BD00002DE9F04F8368D3F848319B07F2
:10B368008BB0064606D5002211460BB0BDE8F04F5B
:10B37800FEF714BD012906D9214A02210BB0BDE808
:10B38800F04FFDF7B9BC1F4C1F4D204FDFF88080F0
:10B39800DFF880901C232D1BB5FBF3F503FB054557
:10B3A800AC4202D10BB0BDE8F08FE3680993236883
:10B3B800D4F808A0D3F808B02046FFF7B7FF94F8F0
:10B3C80010C0642303FB00F1BCF1000F0CBF3A4628
:10B3D800424603FB0BF3B3FBFAF3CDE9043BB1FBA5
:10B3E800FAF1099B0191CDE906A2CDE9020A009381
:10B3F8004A46636908213046FDF77EFC1C34CFE7D6
:10B4080058F9030018EE030050EE0300F0020400A0
:10B41800F902040005030400036818685B68C31A8E
:10B4280058425841704773B5054602A8002300F8F2
:10B43800013D0C461646FBF751FE2846FFF7ECFF88
:10B44800002832D129680B682EB90A68A868824298
:10B4580038BF561C0E60EA686968501E07281ED857
:10B46800DFE800F0040E1D121D1D1D16CB5C2370B5
:10B4780000249DF80700FBF755FE204602B070BD7A
:10B4880031F813302380F3E751F823302360EFE7D6
:10B4980001EBC301D1E90023C4E90023E8E703FB7A
:10B4A800021120460CF030FDE2E70524E1E70368CD
:10B4B80098687047036800229A6070478368002282
:10B4C8005A609A60C3E90422DA601A6070472DE96D
:10B4D800F04106460F4690461D468BB9B068736822
:10B4E800D0E9031403F1010C0A1B62450FD10024B3
:10B4F800C8F800401DB3FCF71CFF0020BDE8F08130
:10B508008068FCF70DFF0028E8D01120F6E701EA73
:10B51800030223409A4238BF6444D8F800302CBF55
:10B52800ACEB0204641A9C4228BF1C463368C8F876
:10B53800004013443B60C3681C44C460DDE72846F0
:10B54800DCE782684368106910B5013394680344E6
:10B558001B1B8B420AD32144C2E902111046FCF797
:10B56800E5FE00280CBF0820002010BD0420FCE7E1
:10B578002DE9F843064680680F469046FCF7D0FE52
:10B58800814670BBD6E901431A69013414449A68AC
:10B59800A41AD8F80020944228BF1446C8F80040DE
:10B5A80075689868284001352D1AAC4208D9336867
:10B5B80039462A4618440CF0A7FC641B2F44484619
:10B5C80033682246394618440CF09EFCB068D8F817
:10B5D8000020836813448360FCF7ABFE0020BDE8BD
:10B5E800F8831120FBE72DE9F84306460F469046FD
:10B5F8001C46CBB9B06882684569B2EB05091BD017
:10B608007468D8F800302540224095421DD29945EB
:10B6180001D2C8F800903368D8F800201D44436967
:10B628003D60134443610DE080680430FCF778FE08
:10B638000028DFD0112006E0C8F8009064B104307B
:10B64800FCF777FE0020BDE8F8830134641B9C42B8
:10B6580038BFC8F80040DEE72046F4E72DE9F0419E
:10B6680006468068043088461746FCF759FE68BBD2
:10B67800B26813699568ED1A3B689D4228BF1D465C
:10B688003D6073681169946819401C40A14228BF45
:10B698005C1C641AA54208D93368404619442246FE
:10B6A8000CF032FC2D1BA044002133682A461944B3
:10B6B80040460CF029FCB0683A68036913440361FA
:10B6C8000430FCF736FE0020BDE8F0811120FBE7CE
:10B6D800806808B582680369D21A8A4207D3194478
:10B6E800C0E904110430FCF724FE002008BD042042
:10B6F800FCE70B684A684360934208BF0023016077
:10B7080008BF43607047436843B102689168526854
:10B718000B449342436004BF00234360704700001A
:10B728000D4930B5A1F594720225914201D8002047
:10B738000EE08B1ADB1093FBF5F302EBC30452F80F
:10B748003330834205D802D204F10802EDE760687D
:10B7580030BD2146E9E700BFE004040008B5FFF763
:10B76800DFFF024B002808BF184608BDA2030400EB
:10B77800F0B595B01C46164608460D46FFF7AEFCD8
:10B788001A9B0D93CDE9086400242346082205A9D5
:10B7980028460A948DF82C400C94FFF7BDFC079BB3
:10B7A8000293BDF81830ADF80C30BDF81A30ADF87A
:10B7B8000E309DF814308DF8114003F00302012A71
:10B7C8001DD1BDF81440059EC3F3C203C4F383140E
:10B7D8008DF81030A20008230EA92846FFF79CFC1C
:10B7E800C6F3952608AB0093224602AB0EA9304655
:10B7F80000F0FCFF2846FFF775FC15B0F0BD022AE3
:10B80800F8D1BDF81640C3F3C203A4098DF810306F
:10B818000827082C264628BF08263B4632460EA98C
:10B828002846FFF779FCA41B08AB02AA31460EA8EC
:10B83800374401F03FF8002CEBD1DBE7014B012244
:10B848001A7070474D8000207047000070B50E4D8B
:10B8580006460FCD88B06C460FC495E80F0084E803
:10B868000F0008A9002E4FF00603084A41F8203DB2
:10B8780008BF0022064801F08BFB08B1FBF734F93A
:10B88800044B1E7008B070BDC408040045B802001F
:10B89800707B0020CC7F002007B5044B0093044A3E
:10B8A8008023FFF765FF03B05DF804FBBDB8020015
:10B8B800CD7F002038B50D4B0D4D002018700D4878
:10B8C80004782D5DD2B21C4665B1043003F092F9BC
:10B8D80008B1FBF709F9084B1A7812B12378002B45
:10B8E800FBD038BD0C3002F0E3FEF1E74D800020BC
:10B8F80054860020707B0020CC7F002008B50848C3
:10B90800084A0378D35C3BB1043003F01DF90020EA
:10B91800BDE80840FFF79ABF0C3002F073FEF6E767
:10B92800707B00205486002000230428CB604B60E5
:10B9380098BF044B044A98BF53F820308A600B60C4
:10B94800704700BF200B0400FC0A0400CB680022EB
:10B958005A717047C368DB6800225A717047CB6818
:10B9680001225A717047C368DB6801225A71704717
:10B97800104A8A60F0B5104A104C0023121BCB60A5
:10B988004B600B6022F00F021D46264693420DD0F5
:10B9980006EB030CE718DCF80CC09CF804C0BCF1FB
:10B9A800FF0F05D0854202D1BB680B60F0BD0135A1
:10B9B8001033EBE7340B040084F0030064F0030059
:10B9C8002DE9F74F174E184D0093AD1B52F8043C64
:10B9D80007468A46904625F00F050024B146A54241
:10B9E80007D1124A0221384603B0BDE8F04FFDF7EF
:10B9F80083B909EB04011846896801930CF002FB2E
:10BA080006EB040B019B10340028E8D1DDED007A29
:10BA180017EE90CA434652465946384603B0BDE829
:10BA2800F04F604764F0030084F003006C0C0400DE
:10BA3800014BFFF7C5BF00BF19C00200014BFFF75C
:10BA4800BFBF00BF55B90200014BFFF7B9BF00BF28
:10BA580067B90200014BFFF7B3BF00BF51BE020038
:10BA6800037813F0040216D003F00303012B03D06C
:10BA7800022B09D0012070470A6800880232C0F3FF
:10BA8800831002440A60F5E70B684288023303EB2F
:10BA980092130B60EEE71046704700002DE9F04F57
:10BAA80089B00546861C08A8484C019200230F4619
:10BAB80000F8113DFBF712FB23683B60D4E9012332
:10BAC8001344226801339B1A04F21C4704F5836A65
