:020000022000DC
:106000000000042079630200616302006363020000
:10601000656302006763020069630200000000001C
:106020000000000000000000000000006B630200A0
:106030006D630200000000006F63020071630200E4
:10604000CD92020073630200959702007363020011
:106050007363020073630200F19502007363020030
:1060600073630200736302007363020073630200D0
:1060700073630200B198020073630200736302004D
:1060800073630200196D0200736302007363020000
:10609000B56D0200736302001D14030073630200F8
:1060A0007363020073630200736302007363020090
:1060B0007363020073630200000000000000000030
:1060C0007363020073630200736302007363020070
:1060D0007363020073630200736302007363020060
:1060E0007363020073630200994103000000000023
:1060F00000000000736302000000000073630200F0
:10610000000000000000000000000000000000008F
:10611000000000000000000000000000000000007F
:10612000000000000000000000000000000000006F
:10613000000000000000000000000000000000005F
:10614000000000000000000000000000000000004F
:10615000000000000000000000000000000000003F
:10616000000000000000000000000000000000002F
:10617000000000000000000000000000000000001F
:10618000000000000000000000000000000000000F
:1061900000000000000000000000000000000000FF
:1061A00000000000000000000000000000000000EF
:1061B00000000000000000000000000000000000DF
:1061C00000000000000000000000000000000000CF
:1061D00000000000000000000000000000000000BF
:1061E00000000000000000000000000000000000AF
:1061F000000000000000000000000000000000009F
:10620000364937480A1A02D0072291438D4635494C
:1062100035480A1A06D00722914381F309880222E1
:1062200082F3148831483249324A00F045F8324846
:106230003249334A00F040F832483349334A00F0DB
:106240003BF833483349344A00F036F83348344990
:10625000344A00F031F834483449354A00F02CF81B
:1062600034483549354A00F027F835483549002289
:1062700000F02DF834483549002200F028F8344861
:106280003449091A082903DB002202600430016046
:10629000314A90471F482049884205D0026804309F
:1062A00003B4904703BCF7E700208646EC46002085
:1062B00000212A4A9047FEE7884207D0521A05D0AB
:1062C000037801300B700131013AF9D170478842EF
:1062D00002D002700130FAE770470000000004208D
:1062E00000E003200000042000000420ACD40300E0
:1062F0009C2B0020F82B0020D8630200D8630200FA
:10630000A47F0300ACD403009C2B00209C2B002016
:1063100070810300708103007081030070810300AD
:10632000708103007081030070810300708103009D
:10633000ACD4030008D50300F82B0020F82B002074
:10634000F82B00204C6A00204C6A00204C6A002088
:106350004C6A00204C8A0020A163020045B502006F
:10636000FEE7FEE7FEE7FEE7FEE7FEE7FEE7FEE705
:10637000FEE7FEE7704700BF1048804710484FF027
:106380000701884385460F4880470F48016841F45C
:1063900070010160BFF34F8FBFF36F8FFFF730BF06
:1063A0000A480B490B4A884207D0521A05D0037895
:1063B00001300B700131013AF9D170477563020069
:1063C000000004206DB9020088ED00E05C8103004C
:0863D000882B00209C2B00200B
:1063D8001F288ABF094B4FF0A04300F01F0003EBB2
:1063E8008000D0F8003723F44033C0F80037D0F8E5
:1063F800003743EA0141C0F8001770470003005016
:10640800022003F033BF00002DE9F04781460D4616
:1064180003F05AFF0328044604D8012D04D024D3DE
:10642800022D2FD0BDE8F087194D47003A18A9185A
:10643800AE5C4A7852B1DFF86880164842464FF49D
:10644800004100F04BFE08B988F800903B192B4436
:106458009A78114B1A55002EE4D0104B1B68002B6C
:10646800E0D03046BDE8F04718470A4800F07AFE09
:10647800074B04EB440213449E78074B1B5DB34261
:10648800D0D1E8E7024B00EB40041C446678E2E711
:106498005C2C00201C2C0020752C0020702C002067
:1064A800F82B002002210078FFF7AEBF08B5094B92
:1064B8001B7853B1002003F0A7FE012003F0A4FECF
:1064C8000320BDE8084003F09FBEBDE8084003F084
:1064D800AFBE00BFF92B0020F8B57B4C23780546EA
:1064E8001BB100232370FFF7E1FF172D00F288800E
:1064F800DFE805F00C17174354657680888D888D82
:10650800959A9A9A9A9AC4C9D1D9E4E4FFF7CEFF2A
:106518006E4800F027FE6E4B002204461A70204693
:10652800F8BD002003F048FEF8B1002003F06CFE2F
:10653800022D0CBF4FF4E1614FF47A61644B1D707A
:106548004FF400404FF4FA740025E0FB01454FF486
:106558007A720023204629460BF0CEF80022014625
:106568005A48BDE8F84000F0B9BD03F039FE022DE5
:106578000CBFC8214FF4C871E0E7002003F01CFEEF
:1065880040B1002003F040FE4FF44871504B032205
:106598001A70D5E703F024FEC821F7E7002003F0BE
:1065A8000BFE38B1002003F02FFE4FF47A61484B00
:1065B8000422EDE703F014FE4FF4C871F7E700205A
:1065C80003F0FAFD48B1002003F01EFE404B0522FF
:1065D8001A7041F69A110022C2E703F001FEF5E7AE
:1065E800002003F043FE3A4B06221A70002240F6C0
:1065F800CD41B5E7002003F0F3FD354B07221A70B3
:1066080000248CE70120207003F030FEEEE7012023
:10661800207003F02BFE00224FF48041A0E703F026
:1066280016FE2B4B0C22EAE72A482B4E00F09AFD67
:10663800D5F1110504461CD0D8B9012D13D0C823B3
:106648005D434FF400474FF4FA7000214FF47A721B
:106658000023C7FB05010BF04FF8224601461D48F1
:1066680000F03CFD0446022003F0BAFD012333701C
:1066780055E7022003F0C8FD0023F8E7FFF716FFEF
:10668800134B1222BBE7FFF711FF002003F0A8FD10
:106698000F4B1322B3E7FFF709FF012003F0A0FD1A
:1066A8000B4B1422ABE7FFF701FF002003F098FD26
:1066B800012003F095FD064B1522A0E703F0C7FD66
:1066C800034B1D709CE700BF6C2C00203C2C002065
:1066D800742C0020FC2B0020F92B0020044B1B6895
:1066E800DB0703D5034B1878FFF7F6BE704700BFEA
:1066F800682C0020742C0020032801D803F0D0BD9A
:1067080000207047044B1B6813F0010301D0FFF70A
:10671800E3BE1846704700BF682C002038B51C4BF4
:1067280018601C4B10F00204054619601AD01A4B69
:106738001A480E221A700F22DA7010229A7111224A
:106748005A72042140F2666200F0CAF9044648B958
:1067580000F01AFA044628B90146114A114800F017
:10676800ABFC0446EB0711D5012003F0C5FD6CB95D
:1067780021460D4A0D4800F09FFC044630B90C4AEA
:106788000C480121BDE8384000F096BC204638BDD1
:10679800682C0020702C00205C2C002070810300E5
:1067A800AD64020094810300E5660200988103004D
:1067B8000964020090810300032812D8012A0BD132
:1067C800012908D100F10E02D2B200EB40000C4BB7
:1067D8001A540020704700220129F6D009D3022953
:1067E80001D007207047064B00EB40001844427068
:1067F800EFE7034B00EB400018448270E9E700BF65
:106808005C2C0020032808B506D803F06FFD03218F
:10681800FFF7DEFD002008BD0620FCE708B50122D1
:1068280002210020FFF7C8FF08B1072810D107226E
:1068380002210120FFF7C0FF08B1072808D1002175
:106848000A220846FFF7B8FF10B1072808BF002042
:1068580008BD00000388102B10B502D0112B1ED0E4
:1068680010BD1A4C2168B1B901220846FFF7A4FFF0
:1068780008B1072824D1072202210120FFF79CFF35
:1068880008B107281CD1042202210020FFF794FF39
:1068980008B1072814D1236801332360E0E70B4AC5
:1068A8001368013B1360002BDAD1FFF7B7FF00280C
:1068B800D6D0074B1B68002BD2D0BDE81040184734
:1068C800034B1B68002BE6D09847E4E7802C002098
:1068D8007C2C002008B50020FFF794FF08B106289B
:1068E80006D10120FFF78EFF10B1062808BF00204F
:1068F80008BD00000D4B10B518600C4629B10120E9
:10690800FFF7FAFE40B102232370094B1B6853B905
:10691800BDE81040FFF782BFFFF7EEFE08B10B237A
:10692800F2E72070F1E7002010BD00BF7C2C0020AA
:10693800802C00202DE9F04F3B4F89B000263B4BBF
:106948001B78F5B2AB4202D809B0BDE8F08F384BDE
:10695800196811F835000124A0F12002C0F12003C4
:1069680004FA02F924FA03F349EA0309D7E90023F0
:1069780004FA00F8CDE9042302EA080203EA09034D
:10698800134301EBC50B4CD0DDE9042322EA0802CE
:1069980023EA0903C7E90023079102F015FE0799C6
:1069A800844611F83500A0F12002C0F1200324FA32
:1069B80003F304FA02F21A4304FA00F300931D4B9E
:1069C8000192DDE90045D3E9002314401D40224629
:1069D8002B465FFA8CF40025CDE90445049CA0F110
:1069E8002005AC400394049CC0F1200124FA01F175
:1069F800039C0C430499039481400291DDE902450C
:106A0800AB4208BFA2420CD19BF801104B1E594261
:106A18005941A1EB0C02DBF804305142514103B15A
:106A2800984701368BE700BFB82C0020842C002043
:106A3800C02C0020B02C00202DE9F84F0646244831
:106A480000F090FB002841D10123A6F12001C6F1F6
:106A5800200203FA01FB23FA02F203FA06FA1D4B9D
:106A6800D3E900014BEA020B00EA0A0801EA0B0924
:106A780058EA09021F4623D1304602F0A5FD164BFD
:106A8800B8B1D3E9000140EA0A0441EA0B05C3E9B9
:106A98000045D7E900234BEA0305104B0C48196859
:106AA8004AEA0204C7E900450022BDE8F84F00F0B1
:106AB80015BBD3E9000120EA0A0421EA0B05E6E741
:106AC80020EA0A0421EA0B05C3E90045BDE8F88F6E
:106AD8008C2C0020B82C0020B02C0020882C002002
:106AE800042A2DE9F34105460C4616463AD902F028
:106AF80091FCD8B11C4B1D491D601D4BDFF88480EB
:106B08001C701C4B00221E600023C1E900231A4997
:106B1800C1E90023013CE4B200260327FF2C0CD175
:106B2800164A1748002100F0C7FA03E002F03CFCBF
:106B38000028DFD002B0BDE8F08123B205EBC30224
:106B480001A992788DF8052015F833008DF80660B4
:106B580042468DF8047002F067FC013CE4B200285C
:106B6800DCD0E7E70720E5E7C02C0020B02C0020A8
:106B7800842C0020882C0020B82C00203D690200BD
:106B88009C810300416A020070B5084D084E00243C
:106B98002B789C4201D3002070BD3368012113F883
:106BA800340002F0C7FC0134F2E700BF842C002057
:106BB800C02C00201FB50021039001AA44F2010057
:106BC800CDE9011100F004F805B05DF804FB000000
:106BD80010B572B603F082FF03F0B0FD0028FBD1B8
:106BE800104B114C1149E41AE408240444F0010044
:106BF80003F010FF0E4B1B68DB0700D500BE0D49E4
:106C080044F0020003F006FFBFF34F8F0A490B4B15
:106C1800CA6802F4E0621343CB60BFF34F8F00BF32
:106C2800FDE700BF6C8003009C800300A081030087
:106C3800F0ED00E0AC81030000ED00E00400FA058F
:106C4800094A537891780133DBB2994208BF00238F
:106C5800117899421FBF03705078182303FB002056
:106C680014BF043000207047C42C002073B50546BB
:106C780002A8002400F8014D0E4600F08DFA0DF12F
:106C88000600FFF7DDFF90B106700A4B9DF806205D
:106C980045605A709DF8070000F0A2FA24B9064B27
:106CA8004FF48012C3F80021204602B070BD0424BE
:106CB800F0E700BFC42C002000E100E0024B4FF4D5
:106CC8003C6043F001031847C081030038B50C4B02
:106CD8000C4C4FF40032C3F8802001254FF4803368
:106CE800C4F84833C4F808336560FFF7E7FF064B7C
:106CF800A56000241C60FFF7E1FF044B1C7038BD41
:106D080000E100E000100140E02D0020D12D00201E
:106D1800F8B51F4B1F491B680025C1F84051C1F841
:106D28004451C1F84851C1F84C51C1F80051C1F85B
:106D380004514BB3D1F8044517490968641A24F083
:106D48007F442F461A68A24209D8A41A15441A7C0F
:106D5800DE691AB11F74D3E905209047AEB90F4B0D
:106D68000F4A197813788B4205D10133DBB2022B15
:106D780008BF0023137012780A4B43F822500A4BBD
:106D88004FF48012C3F80021F8BD3346DAE700BF9C
:106D9800E42D002000100140E02D0020DC2D002013
:106DA800DD2D0020D42D002000E100E02DE9F74F73
:106DB8009E4A9F49137809789E4D99423CD00133E9
:106DC800DBB2022B08BF002313709B4912789B4B40
:106DD8000F6853F822003B1823F07F4300220B6012
:106DE8002B6816461446944613B942B12B6006E048
:106DF800196881420ED902B12B60091A19604FF047
:106E080001082B68DFF83CA200930027BEB9DFF821
:106E18003CB260E0401A0C44D968C3F800C0D3F80B
:106E28001CE031B13A1922F07F42C3E90121DE6149
:106E38001E4601227346D7E70026B046E1E73446EE
:106E4800F6697D4A63681268DFF804C2A068991A77
:106E580021F07F41614500F2A580014421600122B3
:106E680022742A680023C4E90133E361002A40F050
:106E7800A2802C60CAE75A1C9BF80210D2B2914239
:106E88008BF8002004BF00228BF80020182202FB98
:106E980003B32A6819799C68022974D003297ED023
:106EA800012918D1217CB1B9DA6862601A69A26037
:106EB8005A699B69A361624BE2601B78002BC0D0C2
:106EC8006160BEE79C4200F093809946DB69002B25
:106ED800F8D1002323749BF800309BF801209A42D4
:106EE800C9D12B682FB9009A934202D1B8F1000F8B
:106EF80043D0002B79D0D3F800A0524D4E4BD5F893
:106F080004751C68DFF84C813E1B98F8003026F0A9
:106F18007F4603369BB94FF48033C5F84433C5F830
:106F28000433494B4FF400324FF00109C3F8802174
:106F38001A60C5F80090FFF7C1FE88F80090B245C6
:106F48002CBF5444A41924F07F44C5F84045D5F813
:106F58000435DB1B23F07F43E41B033324F07F4419
:106F6800A3420AD9D5F80435C5F84035FFF7A6FE7F
:106F7800354B4FF40032C3F80021314B00221A7010
:106F880003B0BDE8F08F13469146A0E71174D269AB
:106F98000123002AFAD1002B9DD02A609BE7002309
:106FA8001946F6E7D31A23F07F43834234BFC31A46
:106FB8000023236053E721681368994213D8591AAC
:106FC8001160E26155E7091AD8691A4638B10346D3
:106FD80018688842F7D3401A18601846134621608B
:106FE800E061DC6112E71346F2E7FFF76FFEC4E7E2
:106FF8004C450DD1D3692B6053B90F48019201213B
:10700800CAF8081003600E4B1970FFF757FE019A73
:10701800E1692368C9F81C1011B1086803440B60C2
:107028002B689A4218BF012753E700BFDC2D0020C8
:10703800DD2D0020E42D0020E02D0020D42D00209F
:10704800D02D00200010014000E100E0C42C0020F9
:10705800FEFF7F00D12D002008B5FFF737FE104B4B
:1070680000200B2218809A700E4B18600E4B187077
:107078000E4B18700E4B4FF48012C021C3F88021BC
:1070880083F814131A6002F18042A2F56F22C2F845
:10709800080583F81113074BD2F804251A6008BDB8
:1070A800C42C0020E42D0020DC2D0020DD2D002044
:1070B80000E100E0E02D0020074B9B784BB132B196
:1070C80028B10368187C20B959745A6170470720A1
:1070D80070470820704700BFC42C00202DE9F743F3
:1070E8001D4FBB7805460E4690469BB390B30429C6
:1070F8002ED9436973B3437C02A80024012B00F8FE
:10710800014D0CBF8946A14600F046F80DF1060076
:10711800FFF796FDD0B101230370104B4560D3F8FB
:107128000435C0E90498C0E902369DF806307B7042
:107138009DF8070000F054F824B9094B4FF4801269
:10714800C3F80021204603B0BDE8F0830424EFE72C
:107158000724F7E70824F5E7C42C002000100140B5
:1071680000E100E0064A92783AB130B1426922B1B2
:10717800002202740221FFF779BD0820704700BF82
:10718800C42C0020014BD3F80405704700100140BF
:10719800401A20F07F40704770B5EFF3108672B642
:1071A8000C4A946801239CB993600B4B0B4DD3F8A0
:1071B800801029401160C3F88050D3F884105160C2
:1071C8004FF0FF32C3F88420047006B962B670BD70
:1071D8000370FAE7E82D002000E100E0FC06FFBD9F
:1071E800084B9A6810B55AB150B9EFF3108172B6CE
:1071F800054A1C6814605C685460986001B962B6FE
:1072080010BD00BFE82D002000E100E070B5064E7B
:107218000546002456F824300BB128469847013417
:10722800042CF7D170BD00BF002E0020033080B2BF
:1072380040F2FD33984230B51FD8124B1A783AB94C
:107248001C895D892C440444A4B2B4F5806F0AD328
:107258001A7DA2B99A8BDC8B2244024492B2B2F511
:10726800806F0CD201220A801446142202FB0433D8
:107278005A8910445881002030BD0920FCE70720B6
:10728800FAE700BF342E00200B4A0C4B518814201B
:1072980000FB0131CB6833B9042049681070012222
:1072A800074801F0D1BA05230649137002238B80E1
:1072B800012200230968F3E7182E0020342E00204D
:1072C800882B0020FC2E002007B5002305490093D9
:1072D800054A09680548082301F020FA03B05DF85B
:1072E80004FB00BFFC2E0020D4810300882B002063
:1072F80007B50023009301460823034A034801F019
:107308000DFA03B05DF804FBCC810300882B002044
:1073180013B500230C46009301460423074A084886
:1073280001F0FCF938B9074B142202FB043401239D
:10733800237402B010BD0E20FBE700BFC881030014
:10734800882B0020342E002037B50A480A4B4268A3
:107358009C88196853880325033305709BB2002065
:1073680000909B0001EB8401044801F0D7F903B0B9
:1073780030BD00BF182E0020FC2E0020882B0020D6
:1073880010B50146044800F048FE1C2204460021BE
:107398000AF0F3FA204610BDE82E00204388033394
:1073A80000EB8303994209D382884FF6FF739A4210
:1073B80006D00088B0FA80F0400970470220704774
:1073C800012070472DE9F8430223DFF860800B8025
:1073D8000D46174600F5805600F108044FF00109E4
:1073E800B4420FD2236801330CD031462046FFF750
:1073F800D5FF48B10FB187F8009002280BD14FF4A0
:1074080080632B80BDE8F883A368D8F800209342F6
:1074180001D9C8F800302B886288033313442B80C5
:107428006388033304EB8304DAE700BF2C2E0020C3
:10743800144A142303FB002070B50B6844680D46FA
:1074480004F580569BB15C88033403EB8404B44292
:107458000BD22368013308D031462046FFF79EFF40
:10746800012809D005D30228F1D1002003E008340F
:10747800EDE72C60012070BD6388033304EB8304BF
:10748800E5E700BF342E0020436873B505460C4677
:107498006BB3254AD1688B4229D31269934226D807
:1074A80013F0030223D121490089098988421ED19A
:1074B8002868996888421AD11D494868834203D9C7
:1074C80000F5805083420ED38A6993420DD902F5A4
:1074D8008052934209D2012323800020B0FA80F021
:1074E800400902B070BD1346F6E70A20F6E700230C
:1074F80023801E462388012B01D90020F1E701963D
:1075080001A92088FFF794FF18B923880133238045
:10751800F0E7019B2A6899689142F1D16B60034BAF
:107528001B892B81DDE700BF882B0020182E002047
:10753800342E00202DE9F8431C461E4B1B780646C6
:107548000F461546002B30D0002A30D07CB3DFF828
:107558006C804FF01409A388012B01D90A201AE086
:1075680009FB03F318F80330BBB1A3880133A380E8
:10757800F1E723681EB19988328891420DD11FB175
:1075880019883A88914208D19A68C5E900230A4BBC
:107598001B892B810020BDE8F8832146A088FFF7CE
:1075A80047FF0028E5D12060DFE70220F3E7052048
:1075B800F1E700BF102E0020182E0020342E0020E6
:1075C80008B5074B191D5888FFF732FF18B1BDE8F9
:1075D8000840FFF7B9BEBDE80840FFF755BE00BF39
:1075E800182E00202DE9F04FA04FDFF8A49289B0A3
:1075F8000646B8463B6823B949469D4800F047FD12
:107608003860D8F8005029784B1E052B00F21281FB
:10761800DFE813F0060076007600060106015D013A
:1076280026B1944B00225A60012424E02B79032BC5
:107638001DD8DFE803F01502424D8F490B78022B65
:10764800084631D00B7D022B4FF001032ED11422B6
:107658005343C2180020C8545068FFF749FE03E09E
:1076680001232B71FFF730FE002800F0D380814BF7
:1076780000225A600E241422002103A80AF07DF982
:1076880041F61D539C4208BF0024D8F800300494EA
:107698001A78023A042A00F2D381DFE812F0B40122
:1076A800C001E301EB01F2010023D0E7714A137036
:1076B8000023536041F61D54DDE7704970480023EC
:1076C80002222B718A800122096801F0BDF8CBE7FC
:1076D8006A4C00262E712068674DFFF709FE694B3A
:1076E800D4F800C05A8814235343EA18EE5451685A
:1076F8002160A188C2F804C011810222A280B3E7E8
:10770800B5F814A0AA7DDFF870B1AEB1022AEB88F3
:1077180006D9142101FB0AB1DA1C088902440A813E
:10772800142202FB0ABAC3F57F43BAF80A20FD33D4
:107738001344AAF80A3077E7142303FB0AB318891D
:107748005C6804EB8004062A05D8DFE802F0264CC2
:1077580034421C5866000F24AA7DEB88022A06D9F9
:10776800142101FB0AB1DA1C088902440A81142297
:1077780002FB0ABAC3F57F43BAF80A20FD33134463
:10778800AAF80A3077E74048404900234360AB69CC
:107798000360FFF779FE00285AD00223AB75002357
:1077A80000930423EA182146354800F0B7FF002863
:1077B80030D00E24D0E72B69002B0CBF0123032304
:1077C800AB750023009305F10C02042304F10801B2
:1077D800EAE70123AB750022EB8800929B002A6937
:1077E80004F10C01E0E7032914BF06230523AB7558
:1077F80000230093042305F10802E118D4E70623C7
:10780800AB75224B1988204B5868FFF781FD044659
:107818000028A1D109B0BDE8F08F41F61D549BE7BF
:10782800002E7FF401AF2B79012B33D004D3022B28
:107838003FF440AF0F241EE702232B710DF10A011C
:10784800EB68039303A8CDE90466FFF71DFE08B9AA
:107858000A2410E70498BDF80A108388EB8003888F
:107868002B81FFF755FD044627E000BF302E00208E
:10787800E82E0020102E0020342E0020FC2E0020A0
:10788800882B0020182E0020F42D0020082F00201F
:10789800282E0020DFF808A203AA53463146A81D67
:1078A800FFF748FE044660B9BAF804100498FFF7D9
:1078B8002FFD04460A2C3FF4FDAE002C7FF4DBAE0E
:1078C800A8E70822314650460AF057F8F2E7002E9A
:1078D8007FF4AAAE6D4B1A7BB2B11E731A78013AC7
:1078E800062AA7D801A151F822F000BF9B7902000F
:1078F800C1790200DF790200E57902003D780200D3
:10790800EB790200017A02001A78072AE6D801A169
:1079180051F822F03D790200E5780200E57802008E
:10792800637902007779020097790200977902005B
:107938005F7902001A89564901321A8100225A8059
:107948001A730A78B2FA82F252099A720A7DB2FA66
:1079580082F25209DA72012207E04E4958688A8891
:107968004088033202448A8002221A70B6E7484CE3
:107978005A884849142505FB024208685468506033
:107988008888108102228A800C600622EDE707228F
:10799800EBE79A7A32B9DA7A8AB900221A705A80F1
:1079A8005A6087E63A4900229A72CA68002AF2D1D8
:1079B800097C0029EFD05A80FFF702FE53E7002226
:1079C800DA72334A116A0029E7D192F82420002A92
:1079D800E3D00122EFE7FFF7B7FC44E7FFF754FCD9
:1079E80041E706221A702A4A5B88142101FB032307
:1079F8005868FFF77DFC36E707221A7000225A60A4
:107A0800FFF762FC2FE701228DF80C201A89ADF8E8
:107A180018209A88DB68ADF81A20059310E0022236
:107A28008DF80C201A89ADF818209A88ADF81A201C
:107A3800DA689B7D05929A1F534253418DF81C309A
:107A480003A8FFF7E3FB002649461348C8F800607F
:107A580000F048FB0121114800F0F7FB00287FF4F3
:107A6800C9ADD7E603228DF80C20DA88ADF81820C6
:107A78001A89CFE70422DB888DF80C20ADF818307E
:107A8800DEE705238DF80C30DAE700BF182E00205A
:107A9800342E0020FC2E0020E82E0020F82E002096
:107AA8000C2F00204068FFF79DBD000008B501219C
:107AB800044800F0B4FB18B9BDE80840FFF792BDD0
:107AC80008BD00BFF82E00202DE9F3419846354B3C
:107AD8001B7806460D46002B5BD000295BD0098831
:107AE8004FF6FF73994258D06B88002B55D06B68BE
:107AF8009B0754D14AB92F890DF102013846FFF787
:107B080095FB30B102B0BDE8F08113885788ADF815
:107B1800023001A8FFF734FC044658B9BDF802301A
:107B2800214A142101FB032358890338C01B5881BB
:107B38000820E7E700238375BDF8023083826B686D
:107B4800036180F800800121184800F073FB2B883E
:107B58002381B8F1030F6B88A38004BF0423A375A6
:107B68004FF0000508BF3368E06008BFA361E780F5
:107B7800658101A90E4800F07AFA36B1E3683360EE
:107B88000C4B75601B89B5723381FFF78FFF00209E
:107B9800B8E70220B6E70520B4E70420B2E70320DF
:107BA800B0E700BF102E0020342E00202C2E00201D
:107BB800E82E0020182E002008B5084B1A68042A61
:107BC80009D01968064A42F821000121184600F038
:107BD80031FB002008BD0C20FCE700BF042F00206B
:107BE800002E00202DE9F04F89B01422002103A8AF
:107BF80009F0C3FE7D4A137803F0FF010091904617
:107C08003BB103A8FFF702FB0026304609B0BDE8E8
:107C1800F08F101D00F024FB05460028F4D140F633
:107C2800F8734FF080521B68DFF8ECA15C1C04BFAE
:107C38006F4B1B6811695269581C08BF02FB01F39E
:107C4800CAF810300022A3F540536A49CAF80C302C
:107C5800504600F02FFD06460028D6D11C238C2262
:107C68006549664800F0A4F93746B3464FF0030962
:107C78003446CDF804A0019BD9680BEB01000246FD
:107C88005BF80110002835D05D4B994232D141682C
:107C98005C4B994215D0013399422BD1009BDFF8F8
:107CA80070A1002B59D100225749CAF80000FFF7EC
:107CB80089FBBAF80420022A14BF082204221743B9
:107CC8003AE052494FF0140C0CFB04FC01EB0C0297
:107CD8004FF0000E01F80CE050600CF110020CF1AE
:107CE800080C0A446144FFF76DFB47F002070134B2
:107CF800A4B221E000F5805C1168013167D104323B
:107D08009445F9D1424A116829B90221012310602A
:107D1800918000930EE0142262433C4B4FF0020E18
:107D2800991803F802E03B4A486054800134A1F8EE
:107D380008E0A4B247F001070BF5805BBBF5405F94
:107D480099D1B9F1010F88BF3D46EDB2022D02D09D
:107D5800062D12D0DDB90B2657E72C4B14226243AF
:107D680099184FF0020C03F802C00134DAF8002029
:107D78004A60A1F808C0A4B295E7012388F800304A
:107D880003A80023C8F80430FFF740FA3DE702A82B
:107D9800FFF7F6FAC8B10123013D03700A2D09D88F
:107DA800DFE805F006080608070807080F110F00A6
:107DB8000023037102A9114800F059F9FFF776FE74
:107DC80023E70323F5E70223F3E708261DE70F4916
:107DD8001422624301EB020C09F1FF39CCF80400CC
:107DE80003201FFA89F9885481E700BF102E00206C
:107DF80014100010D08303005C2E0020E82E002011
:107E0800DEC0ADDEFE011EF1002F0020342E002062
:107E1800FC2E0020182E0020882B002073B50D465C
:107E28000446C8B1C1B10DF10601FFF72DFBA8B199
:107E38000B4BBDF806006668142202FB00300121D6
:107E48000C3000F0F7F963682E600C336B60012387
:107E5800A372002002B070BD0520FBE70A20F9E7F5
:107E6800342E002013B50446A8B10DF10601FFF722
:107E78000BFB90B10B4ABDF80630142101FB03231C
:107E8800DA6862B1A27A52B1DA680020013ADA609F
:107E9800A07202B010BD0520FBE70A20F9E7062012
:107EA800F7E700BF342E002002230022FFF70CBEA4
:107EB80018B103230022FFF707BE05207047000012
:107EC800104B1B7813B50446ABB14FF6FF739842BD
:107ED80013D001A8FFF754FA88B1052303700123D2
:107EE8000371C48001A9084800F0C1F8FFF7DEFD5E
:107EF800002002B010BD0220FBE70420F9E70820AB
:107F0800F7E700BF102E0020E82E00200E4B1B784C
:107F180007B5A3B101A8FFF733FA90B106230370A0
:107F280001A90A4800F0A3F8094B1A780AB10122FE
:107F38001A73FFF7BBFD002003B05DF804FB0220B5
:107F4800FAE70820F8E700BF102E0020E82E0020EE
:107F5800182E002007B5ADF8060002A820F8041D69
:107F680001460DF10600FFF7E5FA03B05DF804FBE2
:107F780013B502AC134624F8020D0A460020214628
:107F8800FFF7D8FA02B010BD13B502AC134624F8B7
:107F9800020D0A4620460021FFF7CCFA02B010BDB8
:107FA80020B119B103680B600020704705207047A5
:107FB80010B561B1B2FBF3F403FB1424A4B244B9C5
:107FC800C0E9001484608281C381204610BD0E2060
:107FD800FCE70920FAE782B050E8022FC188B2EB2B
:107FE800324F4FF0000317BF92B241EA014142EA13
:107FF800014104E04268B2EB324F08BF012340E878
:108008000212002AE8D18DF807309DF80730002BBE
:108018000CBF1120002002B0704737B550E8013F6F
:108028009DB2C48925448489A54228BF2D1B048993
:10803800A54202BFBFF32F8F002207E0C5EA030560
:1080480040E80154002CE9D14FF001028DF80320DB
:108058000193019B9DF803200B6002F0FF0322B1FE
:108068000B880068184403B030BD1846FBE70A883F
:108078004B889A4209D150E8012FC2EA024240E8EF
:108088000123002BF7D1012070470020704737B536
:1080980050E8023F1FFAA3F5C488A54202BFBFF308
:1080A8002F8F00220DE0C48925448489A54228BF6A
:1080B8002D1BC3EA054540E80254002CE8D14FF0D7
:1080C80001028DF803200193019B9DF803200B60AA
:1080D80002F0FF0322B14B880068184403B030BD9A
:1080E8001846FBE70A884B889A4209D150E8022FC4
:1080F800C2EA224240E80223002BF7D10120704750
:108108000020704701F01F024B090121914000EB4C
:10811800830000F063B84B0910B501F01F0401217A
:10812800A14000EB830000F04EF8E04000F00100B1
:1081380010BD01F01F0301229A404B0900EB830098
:10814800D14300F061B84B0901F01F0150F823003A
:10815800C84000F0010070472DE9F0474E1E76092F
:1081680080460F460136002558F8254008EB850A59
:10817800E44394FAA4F4B4FA84F44FEA4519202CA1
:1081880006D10135AE42EFD83C462046BDE8F0871F
:108198004C44A742F5D921464046FFF7BCFF0028CA
:1081A800F3D0DAF80040E44394FAA4F4B4FA84F47F
:1081B800E5E750E8002F0B4640E8003C9CF0000F34
:1081C800F7D11046704750E8002F42EA010340E813
:1081D800003C9CF0000FF6D11046704750E8003F75
:1081E80043EA010240E8002C9CF0000FF6D110464B
:1081F800704750E8002F02EA010340E8003C9CF079
:10820800000FF6D11046704750E8003F03EA01021C
:1082180040E8002C9CF0000FF6D11046704750E85B
:10822800002F02EB010340E8003C9CF0000FF6D160
:108238001046704750E8003F03EB010240E8002C6D
:108248009CF0000FF6D11046704750E8003FA3EBB2
:10825800010240E8002C9CF0000FF6D11046704750
:108268000121FFF7B0BF0121FFF7B8BF0021FFF7D9
:10827800C0BF10B590B1D0E9012301689B1ADBB2E9
:108288000A60013BDBB2FF2B026802D100201071AB
:1082980010BD11684C1C14600B70F2E70E20F7E754
:1082A80037B5054602A8002400F8014DFEF774FF13
:1082B8002A686B68116899420ED9481E106011F837
:1082C800014CEB68298A01FB0434AB6811791B1A4D
:1082D800DBB2994238BF13719DF80700FEF780FFA3
:1082E800204603B030BD37B5054602A8002300F884
:1082F800013D0C46FEF750FF2A681368591C1160AF
:10830800E968641A298AB4FBF1F41C709DF8070027
:10831800FEF766FF03B030BD826810B504462AB187
:1083280043690168006998470023A36010BD0EB433
:1083380003B5039929B102AA04AB42F8043D00F041
:1083480073F802B05DF804EB03B070470A2938B53A
:1083580004460D4602D10D21FFF7F8FFA3682268F5
:10836800591CA160D554D4E901329A4204D320465D
:10837800BDE83840FFF7D0BF38BD00002DE9F84F01
:108388009946DDE90A431746824688460A46012689
:10839800BA420FD24E4538BF4E4613F0010B01D1F9
:1083A80064B900240125B9F1010F1AD909F1FF397F
:1083B8007D43F8E7B2FBF7F20136E9E79B070ED5F4
:1083C800B9F1000F0CBF30252025A642EAD2013CA6
:1083D80029465046FFF7BAFF002CF6D1E1E72025E1
:1083E800F3E7B8FBF5F39F42E2D9DFF83890B8FB22
:1083F800F5F3504619F8031005FB1388FFF7A6FF9D
:10840800B5FBF7F5002DF2D1BBF1000F02D00CB18E
:10841800A64201D3BDE8F88F20215046013CFFF762
:1084280095FFF4E7E58103002DE9F74F05469046EF
:108438000E46002900F03A8116F8011B002958D091
:10844800252940F0D180002702E047F001071646B1
:10845800324612F8013B2D2BF7D0302B04D02B2BB2
:1084680005D147F00407F2E747F00207EFE70024D9
:108478002A2B06F101021BD1D8F80030191D1B6800
:10848800C8F800101C44164633782E2B1CD1013630
:108498004FF0000A314611F8012BA2F130000928EB
:1084A80014D80A2303FB0A23A3F1300A0E46F1E786
:1084B80012F8013CA3F130010929E5D80A2101FB92
:1084C8000434303C1646D3E74FF0000A324612F81F
:1084D800011B01F0FB0068281646F8D0692916D060
:1084E80054D8582970D00ED825297DD03378002B40
:1084F800A2D12B7B002B00F0D980284603B0BDE821
:10850800F04FFFF709BF632968D06429EED1D8F886
:108518000020D2F80090111D89EAE972C8F800100D
:10852800A2EBE9724FF0010B092A61DCD34538BF91
:10853800D3462CB1B9F1000F01DB790700D5013C16
:10854800BA0702D5BAF1000F04D0FB0702D4002CF9
:1085580054D10024B9F1000F58DAC9F100092D21CE
:108568002846FFF7F3FE07F00302022A05D1BAF105
:10857800000F02D1002C4DD10024CDE9004753460D
:108588000A2249462846FFF7F9FEAFE7732954D077
:1085980016D87029AAD1D8F800301A1DC8F80020BA
:1085A800302128461C68FFF7D1FE78212846FFF7BE
:1085B800CDFE00220823CDE9003221461022E1E752
:1085C80075292FD0782991D1D8F800100A1DC8F83C
:1085D8000020CDE90047534610222CE0D8F800309F
:1085E8001A1D1978C8F800202846FFF7AFFE7DE766
:1085F8000A230BF1010B92FBF3F295E7A345A9D2ED
:1086080020212846013CFFF7A1FEA0E77807AAD55C
:108618002B21A5E7A345B0D230212846013CFFF71E
:1086280095FEA7E7D8F80010CDE900470A1DC8F85D
:10863800002053460A220968A4E7D8F800301A1D1A
:10864800C8F80020F907D3F8009012D54F46A7EBD9
:10865800090B17F8011B41B9A345BFF447AF202107
:108668002846013CFFF772FEF6E72846FFF76EFE44
:10867800EDE7B9F1000F17D0484609F0B1F9074600
:10868800BC4200D954B909F1FF3919F8011F002972
:108698003FF42CAF2846FFF759FEF6E7202128467D
:1086A800013CFFF753FEEBE74F46E9E703B0BDE8AF
:1086B800F08F000007B50B4688B9124B1248134AD1
:1086C800C01A0E23C0080093114B0004114940F052
:1086D800010002F0B7F90E2003B05DF804FB4BB9B6
:1086E800084B09480C4AC01AC0080E23009300041E
:1086F800074BEBE703601B68114603B05DF804EB1A
:10870800184700BF6C800300CC800300A2820300DE
:10871800F5810300A78203001E8303002DE9F341BE
:1087280088B93D4B3D483E4AC01AC0080E243D4B0F
:10873800009400043C4940F0010002F083F920460F
:1087480002B0BDE8F0814AB9334B3448374AC01A01
:10875800C0080E2400040094324BEBE7D0F800C0A8
:10876800BCF1000F09D12C4B2C48314AC01AC00863
:108778000824000400942B4BDCE74BB9264B274810
:108788002C4AC01AC008092400040094254BD1E7DC
:108798004768D7F80480B3FBF8F708FB17374FB1E1
:1087A8001D4B1E48244AC01AC0080924000400941E
:1087B8001C4BBFE78F0709D0174B18481F4AC01A30
:1087C800C008102400040094164BB3E712F0030FFE
:1087D80009D0114B11481A4AC01AC00810240004C5
:1087E8000094104BA6E7C768B9420BD34C1E056925
:1087F8001C44AC4206D8DCF80C40A44602B0BDE8E4
:10880800F0416047044B05480E4AC01AC0081024BE
:1088180000040094034B8DE76C800300CC800300B8
:10882800A282030007820300A782030024830300B7
:1088380018830300D78203002A83030054830300AC
:108848006C8303008F830300F7B580B92A4B2B484C
:108858002B4AC01AC0080E242A4B009400042A4947
:1088680040F0010002F0EEF8204603B0F0BDD0F869
:1088780000C0BCF1000F09D11F4B2048234AC01A81
:10888800C0080824000400941E4BE8E74AB91A4BB4
:108898001A481F4AC01AC008092400040094194B3A
:1088A800DDE74768D7F800E00EF1FF370F4209D03F
:1088B800114B1248174AC01AC0081024000400942B
:1088C800104BCCE7C768B9420CD34C1E05690EFBA8
:1088D8000244AC4206D8DCF81040A44603B0BDE818
:1088E800F0406047044B05480B4AC01AC0081024E2
:1088F80000040094034BB2E76C800300CC800300B3
:10890800A28203001A820300A782030018830300CF
:10891800D78203002D8203005382030029DF7047AA
:1089280028DF704770B503689D6886B004460E4618
:108938006DB114220021684609F01FF8A368059359
:10894800237901962BB1012B0DD06846A84706B0B4
:1089580070BD01238DF8003023690293E368039307
:1089680063690493F1E702238DF80030E3681B0381
:108978000293F5E70846704700207047024B187AC3
:10898800003018BF01207047B02F0020034B187A21
:108998000122B0FA80F05A7440097047B02F0020C5
:1089A80008B510461A4608F0BFFF002008BD0000B1
:1089B80008B514220021044808F0DFFF0348FFF738
:1089C8000AFB002008BD00BFB02F0020A02F002008
:1089D80010B5094C094B43602046FFF741FC40B9EC
:1089E80008F0FEFC1C2320748C2205490548FFF77B
:1089F800DFFA002010BD00BFB02F0020C4830300A1
:108A0800142F0020A02F002070B5244D244E2B7A5F
:108A18002C463BB923492448FFF739FB306008B995
:108A2800686070BD0223237233681A7972B1012A13
:108A380024D018460321FFF775FF002323726360D3
:108A480018491948BDE87040FFF74CBBD3E9052029
:108A5800121AB2F5805F28BF4FF48052D3E903158C
:108A68009208012A014438BF01222844FFF756FF23
:108A780050B11128DDD101232372D2E7D3E90302D3
:108A88001044FFF74DFFF3E7237C002BC9D10146C3
:108A9800BDE87040022000F009B800BFB02F0020E8
:108AA800C82F0020C42F0020A02F002038B5831E17
:108AB800012B45D8234C237A002B41D0022B09D116
:108AC800032830D0204B1B680022E2601A793AB1A3
:108AD800012A22D0637C7BBBBDE83840FFF794BFF6
:108AE800D3E905128D1AB5F5805F94BF521902F5C6
:108AF80080529A619142EDD102284FF0000308BFDD
:108B080019462372104B18BF0D211868FFF70AFF8A
:108B18000E490F48FFF7E6FADCE71A6901321A61D5
:108B28005B699A42E7E7E3680133082B01D8E36001
:108B3800D0E70023E360DFE7BDE8384008F040BC39
:108B480038BD00BFB02F0020C82F0020C42F002040
:108B5800A02F002000F0FD03012B08D1044B0022B8
:108B68005A74421E504250411874FFF74DBF704767
:108B7800B02F002010B5064C201DFFF771FB28B957
:108B8800637C1BB9BDE81040FFF73EBF10BD00BFB6
:108B9800B02F00202DE9F34180460D460F4801A96A
:108BA80016461F46FFF739FA0446A8B11C220021D1
:108BB80008F0E3FE2D0B0123237101A9C4F80080FE
:108BC800A760E56066610548FFF751FAFFF7D2FF35
:108BD800002002B0BDE8F0810420FAE7A02F0020B1
:108BE8002DE9F74381468846104801A917461E46D5
:108BF800FFF713FA0446B0B11C22002108F0BDFEAD
:108C080000250A9BA36001A92571C4F80090C4E956
:108C1800037866610548FFF72AFAFFF7ABFF284695
:108C280003B0BDE8F0830420FAE700BFA02F0020BE
:108C38002DE9F047B0F806904479D2F800A09DF8E5
:108C4800208009FB04F4043C06460AEB0300A0421A
:108C58000F4688BFA4EB030A191DC2F800A0B1FB98
:108C6800F9F509FB15114DB9A9EB0104544528BFC5
:108C78005446BAF1000F04D1BDE8F0873668013DCB
:108C8800F1E704317B1970182246B8F1000F0ED0B5
:108C980001461846AAEB040A08F046FED1452544C9
:108CA80036684C464FF0000128BF5446E1E71946A4
:108CB800F0E7FFF7DEBAF8B546790146721E0546B9
:108CC800002393422D6803D30024A64202D8F8BD9E
:108CD8000133F6E70F682846FFF705FB01343946EC
:108CE800F3E72DE9F843068ACD1C0746FFF7D8FAC3
:108CF800043E35440446B5FBF6F5F0B14FF48073F5
:108D0800EDB28380C680013D076081464FF00008C0
:108D1800A84512D23846FFF7C3FA064648B1637928
:108D28000133637108F10108C9F800000760814642
:108D3800EEE72046FFF7BFFF34462046BDE8F8833C
:108D480001210430FFF776BA10B50121044604303A
:108D5800FFF77BFA10F0FF0F04D12046BDE8104062
:108D6800FFF7A9BF10BD1FB504AC44F8042D0022BD
:108D780000922246FFF75CFF04B010BD1FB504AC9B
:108D880044F8042D012200922246FFF751FF04B057
:108D980010BD41DF70470000064B10B500241C7061
:108DA800054B1C60BFF35F8F0449054800F0A6F827
:108DB800204610BDD42F0020D82F0020F0830300B8
:108DC800CC2F002007B502A8002300F8013DFEF7CC
:108DD800E3F9F1EE103A23F09F03E1EE103ABFF306
:108DE8005F8F0A4B4022C3F884219DF80700FEF7E5
:108DF800F7F908F0F5FA20B1FFF7CBFF03B05DF8FB
:108E080004FB20BF40BF20BFF8E700BF00E100E03F
:108E1800026813685268934291BFD01A8068013083
:108E2800801888BFC01A7047036881681A685B6831
:108E38008B4234BF01330023D31A5842584170473C
:108E4800F7B5044602A8002300F8013D0D46FEF7D9
:108E5800A3F92046FFF7E8FF10B1237C002B3CD193
:108E68002268A66853685168B14234BF01310021B5
:108E7800516030B11168A068814234BF01310021CE
:108E88001160E2686068511E072920D8DFE801F008
:108E980004101F141F1F1F182A78C2542046FFF7FA
:108EA800B7FF23689A68824200D29860002415E0D0
:108EB8002A8820F81320F1E72A6840F82320EDE7F4
:108EC800D5E9006700EBC300C0E90067E6E729467B
:108ED80002FB030008F028FDE0E704249DF80700E2
:108EE800FEF77EF9204603B0F0BD836800225A6081
:108EF8009A60C3E90422DA601A6070470B684A680E
:108F08004360934208BF0023016008BF4360704775
:108F1800436843B10268916852680B4493424360C6
:108F280004BF0023436070470D4930B5A1F5947222
:108F38000225914201D800200EE08B1ADB1093FB2A
:108F4800F5F302EBC30452F83330834205D802D25A
:108F580004F10802EDE7606830BD2146E9E700BF8B
:108F68004085030008B5FFF7DFFF024B002808BF64
:108F7800184608BD058403000B7B23B14B680360CA
:108F88000023037170470B6803600123F9E7036846
:108F98004A68896810B5D41A8C428BBF5B180023C5
:108FA8000360026098BF037110BD03680A6889688E
:108FB80010B59C1A8C428BBF5B1A012303600260B8
:108FC80098BF037110BD037910B504461BB1FFF7B4
:108FD800DEFF206810BDFFF7E8FFFAE738B5084C58
:108FE80004F108030546002818BF1C4623682BB166
:108FF8001A6822605B6828469847F7E738BD00BFC3
:10900800E42F002020B9054B01225A70FFF7E6BF74
:10901800012802D1014A9070F8E77047DC2F002040
:1090280020B9034B01225A70FFF7D8BF704700BF21
:10903800DC2F002038B50B4C237883B90A486360CD
:10904800A3602361E36000F011F9054608F0C8F950
:1090580008B900F019F901232370284638BD852581
:10906800FBE700BFDC2F00200D90020037B502A8F7
:109078000023094C00F8013DFEF78EF8E368013B38
:10908800E360E56815B900F011F9A5709DF80700CF
:10909800FEF7A6F803B030BDDC2F0020012813B579
:1090A80009D003D303281BD002B010BD0F4B0122F7
:1090B800C3F88020F8E702A800230D4C00F8013D12
:1090C800FEF76AF823780BB9FFF7B4FFE3689DF859
:1090D80007000133E3600123A370FEF781F8E3E79B
:1090E80000F0D2F8FFF7C2FFDEE700BF00E100E0C2
:1090F800DC2F00201FB58DF8070004A8002300F816
:10910800013DFEF749F808F06BF950B90DF1070178
:109118000748FFF795FE0648FFF786FE08B100F0FE
:10912800A7FB9DF80F00FEF75BF805B05DF804FBA0
:109138000C80030007B520B103280BD003B05DF8FD
:1091480004FB0F4B1B78012BF8D100F091FB00F0CA
:1091580097FBF3E702A8002300F8013DFEF71CF88F
:1091680007480378012B05D10649013000F040FB80
:1091780000F06CFB9DF80700FEF732F8DEE700BF51
:1091880040300020FD9002001FB503788DF80030B4
:109198004368019383688DF80830C3680393054AD0
:1091A800054B684653F8213052F82110984705B00E
:1091B8005DF804FB443000204C3000201FB50378D4
:1091C8008DF800304368019383688DF80830C368D0
:1091D8000393054A054B684653F8213052F821108D
:1091E800984705B05DF804FB443000204C3000205F
:1091F800F0B5194B0678DFF870E043F82620174BD6
:1092080094460A6943F826204B7F0EF806300C4630
:1092180007460FCC89B06D460FC594E80F0085E866
:109228000F001EF80630049653B1BCF1000F0C4A2B
:10923800694608BF0022381D00F048FE09B0F0BD9D
:10924800BCF1000F074A694608BF002207F10C006D
:1092580000F02CFCF2E700BF4C3000204430002026
:1092680091910200C591020054300020054A1379FB
:109278002BB9012110601171537118467047852070
:10928800704700BF58300020074B1A68D2075FBFED
:10929800C02283F8002301221A604FF08043012284
:1092A800C3F81825704700BF00E100E0044B012215
:1092B8001A604FF08042D2F81834DB03FBD47047B1
:1092C8000C000040154B07B51A687AB100221A60E5
:1092D8001B680093009B4FF080430122C3F80823CA
:1092E8000F4B587910B95A711B6898470D4B1A687B
:1092F80082B100221A601B680193019B4FF08043E2
:109308000222C3F80823064B1B68012003B05DF84E
:1093180004EB184703B05DF804FB00BF00010040F0
:10932800583000200401004000F1804000F5C040A2
:10933800002382B0036003680193019B02B0704769
:1093480003681F2B83BF03F01F03036001484FF01E
:10935800A04070470003005007B502AB43F8040D66
:109368001846FFF7EDFF019B00EB8300D0F80037AC
:1093780023F44033C0F80037D0F8003743EA0141FE
:10938800C0F8001703B05DF804FB0000054B4FF070
:10939800FF32072843F8202084BF1B1883F8582081
:1093A800704700BF6030002010B5164C94F86A3042
:1093B80033BBFF21E2180133302B82F83010F9D18A
:1093C8000021C8B2FFF7E2FF01310C29F9D10622CA
:1093D80000210D4808F0D1FA0C4BC02283F806236F
:1093E80040221A604FF4BE70FFF79EFF084B4FF003
:1093F8000042C3F80423012384F86A30002010BD1A
:109408000820FCE760300020C430002000E100E0C4
:1094180000600040034B93F86A00003018BF012039
:10942800704700BF60300020F7B5404F3B18044636
:1094380093F93030002B944675DA8B78C3F34003E8
:10944800002B15BF0025082508200C20854202D1D5
:10945800042003B0F0BD57F8252001324FEA8506F5
:1094680049D1381947F825C080F8305013B97B190D
:1094780083F858408B785A071BD4D8073DD502A8E3
:1094880040F8084DFFF75CFF009B00EB8300D0F825
:10949800003723F00203C0F800372548E20804F03B
:1094A800070C012303FA0CF310F802C043EA0C037B
:1094B8008354887891F800C010F002002AD006F191
:1094C800804303F5C0432402D3F8102522F44F3219
:1094D80022F44072C3F810254FEA0C4CD3F810253B
:1094E80004F47C540CF4403C44EA0C041443C3F8E0
:1094F80010450020ADE70135A8E702A84A7840F8F2
:10950800044DFFF71DFF019B03F5E073920040F83F
:109518002320C2E7083D3D4495F8604044EA8C1C8E
:1095280085F860C095E7082093E700BF6030002009
:10953800C430002073B5224C2518064695F9302012
:10954800072A1ADD224492F858309B09032B10D1C0
:1095580002A840F8046DFFF7F3FE019AD0F8103521
:10956800D340DB0707D402213046FFF7F5FE02B0EF
:1095780070BD012BF7D00321F6E7D3B2072BF6D83D
:10958800930003F1804303F5C043D3F8100540F07E
:109598000100C3F8100502F14000800080B2FFF717
:1095A800C3FE0029E3D095F9303054F82330002B5E
:1095B800DDD0012303FA02F2024BC3F80423D6E7F5
:1095C800603000200060004007B502AB43F8040D8E
:1095D8001846FFF7B5FE019BD0F81005D84000F0FB
:1095E800010003B05DF804FB2DE9F04F002489B0B9
:1095F800CDE902445F4A604E604D01211368A2F52F
:10960800C040012B80B206D1D6F804330B4202D0F9
:10961800FFF78AFE0C430432AA424FEA4101EDD11A
:10962800574B1B68012B0ED14FF4BE70FFF77CFE21
:109638004FF0A04344F00044D3F810350293514B47
:10964800D3F81035039314F0FF0F1AD04E4F0025AE
:109658000126344210D0AB0003F1804303F5C04328
:10966800D3F81005D3F8101557F82530C0F30520A6
:10967800C1F3014103B198470135082D4FEA460669
:10968800E7D1002C72DA04AE0023049373604FF024
:10969800FF33CDE906333C4F4FF0010800252C4637
:1096A8007B1993F96020531C47D0D2B222F0C0092D
:1096B80008A84FEAD90300EB030B02F007011BF8D7
:1096C800080C08FA01F1084237D007EB09009209A3
:1096D80090F9300057F820A0BAF1000F05D1032AFD
:1096E8002BD1F05C0843F05401E0032AF9D001A81B
:1096F800CDF80490FFF724FE019B03F5E07350F8C2
:1097080023301BF8180C0842C3F3014305D0022B81
:1097180013D1032A0BD1114604E0032B0DD1032AE0
:1097280005D102214846FFF717FE0134E4B2BAF129
:10973800000F02D011464846D0470135042DAFD15D
:10974800A4B14FF0A0430299D3F8102503F5407354
:109758009142D3F8103502D10399994206D002926A
:109768000393049A059B0692079397E709B0BDE80F
:10977800F08F00BF006100400060004020610040A1
:109788007C6100400003005060300020014B1B68E2
:10979800184700BFCC3000200D4B984237B50D4616
:1097A80010D102A8002300F8013DFDF7F5FC094B94
:1097B8001C7914B901221D601A719DF80700FDF784
:1097C8000FFD14B9002003B030BD1120FBE700BF26
:1097D80000200040CC300020034B984201BF034BCF
:1097E80000221A601A71704700200040CC30002017
:1097F80010B5124C2278FAB9114B1960037813F09E
:10980800010F104B1EBFD3F8042542F00102C3F824
:109818000425D3F8002222F00102C3F8002243787D
:10982800094A5B01DBB282F80D334FF40053136031
:1098380001232370002010BD8520FCE7D8300020CC
:10984800D430002000D0004000E100E0064B0022A8
:109858001A6082B01B680193019B044B0122C3F874
:1098680004231A6002B0704700D1004000D00040C5
:10987800024A0123C2F808335360704700D0004001
:10988800064A0123C2F808335360054B4FF40052CF
:10989800C3F88020034B00221A70704700D00040A4
:1098A80000E100E0D8300020074B00221A6082B0A7
:1098B8001B680193019B054BD3F80805044B1B68F3
:1098C800C0B202B0184700BF00D1004000D000402D
:1098D800D43000200023435082B043580193019BA9
:1098E80002B070470A4610B54FF48E71FFF7F2FFC9
:1098F800136A9168C95C136A01331362C0F81C15B6
:1099080010BD8B690A4610B54FF4847123B9FFF76F
:10991800E1FFD0F8183510BDFFF7DCFF536AD168B6
:10992800D0F81805C854536A01335362F3E70000AE
:109938001FB501238DF80030044BCDE90110D3E9A0
:1099480000126846904705B05DF804FBDC30002043
:1099580030B54C4AD2F8043313F4007F85B015466D
:109968004FD0D2F82431002B4BD04FF492711046CF
:10997800FFF7B0FF4FF40173C2F80833424B93F876
:10998800291009B9012151603E4902228DF80020B1
:10999800D1F88024C1F8802403929A690292DA6887
:1099A80001920022C3E906226846D3E900129047D3
:1099B8003448D0F81C315BB133490A6A4B699A4282
:1099C8000A464BD291F82830002B47D1FFF78AFF7F
:1099D8002C4AD2F8443193B14FF4A2711046FFF7E4
:1099E80079FF294B93F8291009B1012111609A696F
:1099F8002AB100229A61586AD968FFF799FF05B021
:109A080030BDD5F804335B07D2D5D5F80831002B23
:109A1800CED01D4C1B482146FFF773FF636AA2692D
:109A28009A422346C4D1E269E1684AB12369E360F6
:109A38000023606AA261E3616362FFF779FFB7E719
:109A480094F829200AB901226A600E4A4FF401707D
:109A5800C2F8080300229A61586AEEE74FF48E7143
:109A68000848FFF737FF51690029B1D00023029158
:109A780091688DF80030019153616846D2E900136E
:109A88009847A5E700200040DC3000201F2886BF4B
:109A980000F01F00044B4FF0A04300F5E0700222D5
:109AA80043F82020704700BF000300502DE9F84319
:109AB800624F047991462C2202FB0472064692F802
:109AC8002A200D46002A40F0B3805D490068FFF760
:109AD80063FE8046002840F0AE8029684A1C10D0FA
:109AE8001F2987BF01F01F03564A0B464FF0A042BB
:109AF8000120984003F5E073C2F80805032042F8F6
:109B080023006868431C0DD01F288BBF00F01F037B
:109B180003464C4A4FF0A04203F5E0734FF0000CA7
:109B280042F823C03368AA6995F814C0C3F82425FD
:109B38006A7DBCF1010F4CEA0202C3F86C25C3F838
:109B48001405C3F80C152BD1A968481C0DD01F2982
:109B58008BBF01F01F020A463A484FF0A04002F5B9
:109B6800E0724FF0000C40F822C0E868421C13D0A5
:109B78001F2887BF00F01F0C324A84464FF0A042CE
:109B88004FF0010E0EFA0CFE0CF5E07CC2F808E569
:109B98004FF0030E42F82CE0C3F80805C3F810157F
:109BA8002C236343FA18C2F804902A69FA50B9F1D1
:109BB800000F2AD04FF48E7130682D7FFFF78AFE90
:109BC80030684FF4A271FFF785FE32681E4BC2F869
:109BD8000433120B51B20029A8BF01F160404FEACB
:109BE8004513BABF194802F00F0500F56140DBB212
:109BF800B4BF435580F8003302F01F02012303FA73
:109C080002F24909124B43F8212033680422C3F8B1
:109C180000252C2303FB04730022C3E9062283F8E2
:109C280029205A61012283F82A204046BDE8F8839A
:109C38004FF00808F9E74FF01108F6E7DC3000208C
:109C480059990200000300508000020014ED00E062
:109C580000E100E02DE9F04103680479254D002278
:109C6800C3F800252C2202FB04520646526872B142
:109C7800214AC3F80823190B4AB20120520901F0FE
:109C88001F0100FA01F120321C4840F82210D3F8D5
:109C98000C05D3F81485D3F80815D3F810754FF0D0
:109CA800FF329042C3F81425C3F80C25C3F80825E1
:109CB800C3F8102501D0FFF7E9FEB8F1FF3F02D045
:109CC8004046FFF7E3FE7A1C02D03846FFF7DEFE77
:109CD8004B1C02D00846FFF7D9FE3068FFF77CFD21
:109CE8002C2303FB0454002384F82A306360BDE866
:109CF800F08100BFDC3000208402020000E100E0B7
:109D08002DE9F843224F06794FF02C0909FB067418
:109D180080466569002D37D16261A16025624FF4E4
:109D28008E71006884F82850FFF7D4FDD8F8000039
:109D3800012383602146FFF7D5FD6368A1462BBB4D
:109D4800D8F80050226A63699A4212D3D8F80030D2
:109D5800D3F81C21002AFBD00122DA6000202C2332
:109D680003FB067600237361BDE8F88394F8283076
:109D780043B9D5F81C31002BF8D049462846FFF7DF
:109D8800B1FDDFE70F20EAE71120EDE72846EBE712
:109D9800DC3000200023435082B043580193019BDC
:109DA80002B070471FB501238DF80030044BCDE990
:109DB8000110D3E900126846904705B05DF804FB2E
:109DC800083100207FB5374AD2F82461002E48D0E8
:109DD80010464FF49271FFF7DDFF02238DF8003033
:109DE800D2F88034C2F880340393D2F83C35029319
:109DF8002D4BDA6801920022C3E906226846D3E9AE
:109E080000129047274AD2F844317BB14FF4A2712F
:109E18001046FFF7BFFF244B996939B10021C3E908
:109E28000611D968D2F83C05FFF7BCFF1D4AD2F8E5
:109E38002031A3B14FF490711046FFF7ABFF1A4BD6
:109E4800596961B1D2F84C150291002299688DF8D0
:109E5800002001915A616846D3E90012904704B086
:109E680070BDD2F81031002BCCD04FF48871104659
:109E7800FFF790FF0C4BD2F83C0599698842C1D195
:109E8800DC69D96864B1D2F8005225F02005C2F81F
:109E980000521A699C61DA60DE61FFF783FFB1E75F
:109EA8009C61FAE700200040083100201F2886BF87
:109EB80000F01F00044B4FF0A04300F5E0700222B1
:109EC80043F82020704700BF000300502DE9F843F5
:109ED800664F06799146242202FB0672044692F8E0
:109EE80020200D46002A40F0BB8061490068FFF73A
:109EF80053FC8046002840F0B6802868421C10D0E9
:109F08001F2887BF00F01F035A4A03464FF0A0429C
:109F18000121994003F5E073C2F80815032142F8BE
:109F2800231069684B1C0DD01F298BBF01F01F033C
:109F38000B46504A4FF0A04203F5E0734FF0000C77
:109F480042F823C02368AA6995F814C0C3F82425E9
:109F58006A7DBCF1010F4CEA0202C3F86C25C3F814
:109F68000C05C3F814152BD1A968481C0DD01F295E
:109F78008BBF01F01F020A463E484FF0A04002F591
:109F8800E0724FF0000C40F822C0E868421C13D081
:109F98001F2887BF00F01F0C364A84464FF0A042A6
:109FA8004FF0010E0EFA0CFE0CF5E07CC2F808E545
:109FB8004FF0030E42F82CE0C3F80805C3F810155B
:109FC80024237343FA18C2F804902A69FA50B9F1A5
:109FD800000F34D04FF4887120682D7FFFF7DAFE28
:109FE8004FF490712068FFF7D5FE4FF49271206806
:109FF800FFF7D0FE20684FF4A271FFF7CBFE22686E
:10A008001D4BC2F80433120B51B20029A8BF01F14D
:10A0180060404FEA4513BABF184802F00F0500F533
:10A028006140DBB2B4BF435580F8003302F01F0231
:10A03800012303FA02F24909114B43F8212023684E
:10A048000822C3F80025242303FB06730022C3E972
:10A0580006225A61012283F820204046BDE8F88391
:10A068004FF00808F9E74FF01108F6E7083100202B
:10A07800CD9D0200000300501003020014ED00E023
:10A0880000E100E02DE9F04103680479254D002244
:10A09800C3F80025242202FB04520646526872B116
:10A0A800214AC3F80823190B4AB20120520901F0CA
:10A0B8001F0100FA01F120321C4840F82210D3F8A1
:10A0C8000C05D3F81485D3F80815D3F810754FF09C
:10A0D800FF329042C3F80C25C3F81425C3F80825AD
:10A0E800C3F8102501D0FFF7E1FEB8F1FF3F02D019
:10A0F8004046FFF7DBFE7A1C02D03846FFF7D6FE53
:10A108004B1C02D00846FFF7D1FE3068FFF764FB0E
:10A11800242303FB0454002384F820306360BDE843
:10A12800F08100BF083100201003020000E100E0C8
:10A1380001F06043B3F1005F2DE9F041074632D1E9
:10A148001C4B0679242505FB063598466C6964BBCB
:10A158006A61A96000684FF49071FFF71BFE4FF425
:10A16800AC713868FFF716FE3B686A69A968C3F8DE
:10A178004415C3F8482501229A606A68BAB9D3F829
:10A188002011D3F8582149B9002AF8D00F202423E8
:10A1980003FB068600237361BDE8F081002A14BF23
:10A1A8000F200020F3E71020F6E71120F4E72046FF
:10A1B800F2E700BF08310020074B1B5C1F2B8ABF4A
:10A1C800064A4FF0A04203F01F03D2F80405D84016
:10A1D800C04300F0010070472889030000030050C5
:10A1E800074B1B5C1F2B86BF03F01F0305494FF06D
:10A1F800A041012202FA03F3C1F80C35704700BFF1
:10A208002889030000030050074B1B5C1F2B86BFE7
:10A2180003F01F0305494FF0A041012202FA03F39E
:10A22800C1F80835704700BF2889030000030050B3
:10A2380008B50020FFF7E8FF0120FFF7E5FF02203F
:10A24800FFF7E2FF0320BDE80840FFF7DDBF08B5D0
:10A258000020FFF7C5FF0120FFF7C2FF0220FFF72C
:10A26800BFFF0320BDE80840FFF7BABF0A4B185CE0
:10A278001F288ABF094B4FF0A04300F01F00D3F8F6
:10A2880004250121814021EA02000A40C3F808059B
:10A29800C3F80C25704700BF28890300000300504D
:10A2A800074B1B5C1F2B8ABF064A4FF0A04203F0E6
:10A2B8001F03D2F81005D840C04300F001007047D2
:10A2C80024890300000300500B2809D00C2809D06A
:10A2D800182809D019280CBF03204FF0FF30704709
:10A2E800002070470120704702207047014B185C1E
:10A2F800704700BF24890300C20710B504460CD577
:10A308004FF0A0430322C3F83427C3F83827C3F813
:10A318003C27C3F84027FFF78BFFA3070AD54FF068
:10A32800A0430C22C3F82C27C3F83027C3F86027B2
:10A33800C3F8642710BDF0B595B01C46164608460C
:10A348000D46FEF7FDFC1A9B0D93CDE90864002429
:10A358002346082205A928460A948DF82C400C9417
:10A36800FEF70CFD079B0293BDF81830ADF80C30D2
:10A37800BDF81A30ADF80E309DF814308DF8114044
:10A3880003F00302012A1DD1BDF81440059EC3F352
:10A39800C203C4F383148DF81030A20008230EA959
:10A3A8002846FEF7EBFCC6F3952608AB0093224639
:10A3B80002AB0EA9304600F001FC2846FEF7C4FCAB
:10A3C80015B0F0BD022AF8D1BDF81640C3F3C20398
:10A3D800A4098DF810300827082C264628BF08261F
:10A3E8003B4632460EA92846FEF7C8FCA41B08AB1C
:10A3F80002AA31460EA8374400F044FC002CEBD1E9
:10A40800DBE70000014B01221A7070476D31002014
:10A418007047000070B50E4D06460FCD88B06C46EB
:10A428000FC495E80F0084E80F0008A9002E4FF02C
:10A438000603084A41F8203D08BF00220648FEF7F7
:10A44800D7FE08B1FCF7B6FB044B1E7008B070BD10
:10A458002C8903000DA402009C2B00202C31002025
:10A4680007B5044B0093044A4023FFF764FF03B089
:10A478005DF804FB85A402002D31002038B50D4B92
:10A488000D4D002018700D4804782D5DD2B21C4681
:10A4980065B10430FFF74CFE08B1FCF78BFB084BA5
:10A4A8001A7812B12378002BFBD038BD0C30FFF797
:10A4B80027FCF1E76D310020543000209C2B002050
:10A4C8002C31002008B50848084A0378D35C3BB112
:10A4D8000430FFF7D7FD0020BDE80840FFF79ABF1A
:10A4E8000C30FFF7B7FBF6E79C2B00205430002018
:10A4F8000120FFF78FBF000008B5FFF7F9FF04211F
:10A50800034800F0C9FA034B01225A7108BD00BF85
:10A518004C810300B02B0020037813F0040216D0FE
:10A5280003F00303012B03D0022B09D0012070474D
:10A538000A6800880232C0F3831002440A60F5E713
:10A548000B684288023303EB92130B60EEE7104668
:10A55800704700002DE9F04F89B00546861C08A811
:10A56800484C019200230F4600F8113DFCF714FEF9
:10A5780023683B60D4E901231344226801339B1A02
:10A5880004F21C4704F5836A04F21448B3421AD350
:10A59800019A0023002A6DD0012262F3010343F0DF
:10A5A800040365F389132168A2689DF80F000A4027
:10A5B80003320E4444F822302660FCF711FE0120D5
:10A5C80009B0BDE8F08F01213846FDF733FE50464B
:10A5D800FDF749FE4046FDF746FE0DF1200960688B
:10A5E800D4F808B049F8100D00EA0B00033004EB6A
:10A5F80080004946FFF790FF049BB0B90BEA0302BD
:10A6080004EB8202D16805919A1C013303EA0B0B13
:10A6180004EB8B0C01F00303012B0492DCF80CB063
:10A6280020D0022B04D083460BE00BEA0300DDE7C1
:10A63800BDF816309B0903334FEA1B4B02EB93031B
:10A6480004934046FDF712FE08B1049B6360594627
:10A658003846FDF7EFFDD4E901231344226801339E
:10A668009B1A93E7BDF81430C3F383134FEA1B4BCF
:10A678001344E5E7022262F3010343F0040365F3A0
:10A688009F5390E7403200200B4B0C48FF2210B537
:10A698009A600022C3F81824C3E90022C3F81424DE
:10A6A80083F82024FEF705FB044610B90448FEF79A
:10A6B8001CFC204610BD00BF403200205080030023
:10A6C8006C89030030B50A4C71B10A4A0A49121B59
:10A6D800D20800239A4201D1002030BD31F823501E
:10A6E800854202D00133F5E7034654F83300F4E716
:10A6F8006C8003004C8103009C2B0020094B01391E
:10A7080003EBC000032909D8DFE801F00A020406B8
:10A7180004207047007970474079704700207047DF
:10A72800022070476C800300034BD3E90030C31A42
:10A7380058425841704700BF403200202DE9F0438D
:10A7480087B0FFF7F1FF0646002840F0FC807F4DF8
:10A75800C5F81804BFF34F8F6868AC6806AF47F8B0
:10A76800100D2040033005EB80003946FFF7D4FE7A
:10A77800029B18B1D5F81824002A5FD004EA030216
:10A78800991C013305EB8202234005EB8303D26851
:10A79800DB68049302F00303022B0392029162D157
:10A7A800BDF80E306A484FEA9318B8F1500FC14609
:10A7B80028BF4FF0500969F38F1309F10801ADF86C
:10A7C8000E30FEF78EFA0746002800F0A780FEF745
:10A7D800B7FA03A9002308223846FEF7C4FA0299FB
:10A7E80024EA01060136B600B14535D95FFA89F980
:10A7F8007EB3F6B2A9EB0609214003315FFA89F46A
:10A80800B146544E05EB810108234A463846FEF707
:10A81800AAFA36B109F10803224631463846FEF74E
:10A82800A2FA029B08F1030803EB98030293D5F8F8
:10A838001834002B4BD1D5F810445BE02A689A42B3
:10A8480004D86A60304607B0BDE8F08304EA030024
:10A8580088E740493446D7E72140033108234A4670
:10A8680005EB8101DAE7012B58D1BDF80C303848E7
:10A87800C3F38311062928BF062161F38913023126
:10A888008900ADF80C30FEF72CFA0746002845D0B1
:10A89800FEF756FA0023082203A93846FEF763FAA2
:10A8A8000026BDF80C20C2F38312B31C96424FEA6F
:10A8B8008303BCD202994A1C21400331029205EB62
:10A8C800810104223846FEF74EFA0136E9E7384698
:10A8D800FEF73AFAFFF728FF80F00100C6B2B1E7A9
:10A8E800E3685B7923B1236839461B68204698479B
:10A8F800E3681C68002CF3D13846FEF725FA06A851
:10A9080000F8114DFCF748FCD5F818340BB9029B38
:10A918006B609DF80700FCF763FCDBE7D5F8104493
:10A9280054B90D4B0D480E49C01AC008000440F038
:10A93800020000F06FF8CDE7236820469B6898472F
:10A94800E3681C68ECE700267CE700BF4032002083
:10A95800508003004C3200206C8003009C80030070
:10A96800788903002DE9F74F284C80460F46924618
:10A9780001A9012218469B46D4F80890FFF7EAFD82
:10A9880088B3019D0026A91C5E4506EB010234D15F
:10A9980000211F48FDF70DFC80F310006A1C02EA35
:10A9A800090204EB8202000405EA0903033340EAC2
:10A9B8001840D06014F8232068F3C50204F8232057
:10A9C80034F8232066F3891224F8232054F823202E
:10A9D800012167F39F2244F8232061F301026FF3FA
:10A9E800820204F8232094F820341BB1FFF7A6FE56
:10A9F8000028FBD103B0BDE8F08F09EA020204EB9E
:10AA080082025AF82630D3600136BDE74032002072
:10AA18005C36002000231A46FFF7A4BF13B502AC2A
:10AA2800012344F8042D2246FFF79CFF02B010BD15
:10AA380007B5CDE9002302236A46FFF793FF03B069
:10AA48005DF804FB1FB5CDE90123069B039301AA1A
:10AA58000323FFF787FF05B05DF804FB1FB5CDE9B9
:10AA68000023069B0293079B03936A460423FFF780
:10AA780079FF05B05DF804FB7FB5CDE90123089B9C
:10AA88000393099B04930A9B059301AA0523FFF7E7
:10AA980069FF07B05DF804FB30B50F49D1F8102401
:10AAA800002314463CB9C468237152B9C1F8100494
:10AAB8002260184630BDE46825799D4206D0246896
:10AAC800F0E7D268116821601060F2E701330A2BC1
:10AAD800E7D14FF0FF33ECE740320020094A38B5A0
:10AAE8000123D2F8104482F820341D4604B938BD39
:10AAF800E3685D71236820465B689847E3681C68D3
:10AB0800F4E700BF40320020037A052B10B50C464D
:10AB18000FD0437A23B1084A08492046FDF707FCBD
:10AB280007492046FDF703FC2046BDE81040FDF725
:10AB3800F3BB002AF8D0F3E7C3890300CB9D0300D9
:10AB4800E5890300C38873B504460D4633B1144A3A
:10AB580000921449144A2846FDF7E9FB217A052991
:10AB68001CD0637A4BB1A088FFF7C8FD0F4B104982
:10AB780053F820202846FDF7DAFB227A0D4BA088EF
:10AB880053F822600021FFF79DFD0B49034632462A
:10AB9800284602B0BDE87040FDF7C9BB02B070BDE1
:10ABA800C3890300D0890300C88903009089030082
:10ABB800CB9D0300F4890300E88903002DE9F043E5
:10ABC80085B01F460C9D002306460C46904695F816
:10ABD8000C902B7329463846FFF7B4FFB8F1060FDF
:10ABE80009D8DFE808F00412181F2833400031465E
:10ABF8002846FDF79CFB002229463846FFF784FFCC
:10AC080085F80C9005B0BDE8F083226831462846E7
:10AC1800FDF78DFBEFE7D4E9002331462846FDF721
:10AC280086FBE8E7A36800933146D4E90023284669
:10AC3800FDF77DFBDFE7E3680193A36800933146E6
:10AC4800D4E900232846FDF772FBD4E72369029371
:10AC5800E3680193A36800933146D4E900232846AA
:10AC6800FDF765FBC7E76369039323690293E3680C
:10AC78000193A36800933146D4E900232846FDF7E1
:10AC880056FBB8E708292DE9F84F80460E461746C7
:10AC98001C463AD8002593F80C901D7319461046A7
:10ACA800FFF750FFDFF884A0DFF884B0AE422ED95A
:10ACB80018F8052059462046FDF739FB0135082DBF
:10ACC800F4D11849DFF86CB02046FDF730FB4FF09F
:10ACD800000A564520D918F80A507E2D03D8284670
:10ACE80006F0CAFD00B92E252A4659462046FDF72A
:10ACF8001EFB0AF1010ABAF1080FEAD10122214626
:10AD08003846FFF701FF84F80C90BDE8F88F5146EC
:10AD18002046FDF70CFBD1E703492046FDF707FB6A
:10AD2800E7E700BFBE890300BC890300BA890300B6
:10AD3800B4890300C089030028B139B10023C1E9EF
:10AD480000301846704748F21050704748F21350C8
:10AD5800704730B1036848F240508B4208BF00206A
:10AD6800704748F21050704730B119B10B689342E0
:10AD780005D30A600020704748F21350704748F224
:10AD8800145070472DE9F041884600AF0646114639
:10AD9800404615461C46FFF7CFFF08BB21464046F4
:10ADA800FFF7CAFFE0B998F80430104A52F8238038
:10ADB800B8F1000F17D056B90D4A32F8133033B135
:10ADC8000E336A46DB08A2EBC3039D466E46224655
:10ADD80029463046C04718B9064B2B60063B23600E
:10ADE800BD46BDE8F08148F20350F9E7708A0300D8
:10ADF800548A03007652464D70B505460C461E46E9
:10AE0800FFF79AFF70B9AB796AB1B3420ED12979CD
:10AE1800094B53F8213063B111462046984708B9C9
:10AE2800064B236070BD48F21050FBE748F2115002
:10AE3800F8E748F20350F5E7A48A03007052464D3C
:10AE48002DE9F0410D460D4904461746FFF781FFED
:10AE580090B966683946B2792846FFF785FF58B930
:10AE68003279074B53F8223023B129462046BDE8F2
:10AE7800F041184748F20350BDE8F0817052464D42
:10AE8800D88A0300F0B528B14079D1B18AB948F21F
:10AE9800135015E01846F8E7441E00254E5D0F5D77
:10AEA800575516550135013CA542F7D91B1A0144DF
:10AEB80002448342F0D2002B48F2115008BF002010
:10AEC800F0BD48F21050FBE72DE9F8430C4600AFFF
:10AED80081461E49204615461E46FFF73AFF58BBD5
:10AEE8001B492846FFF735FF30BBD4F804806B6850
:10AEF800984524D198F80520396A3046FFF734FF81
:10AF0800D0B998F80430134A52F82380B8F1000FEA
:10AF180018D0B9F1000F0AD10F4A32F8133033B103
:10AF28000E336A46DB08A2EBC3039D46E946334667
:10AF38002A4621464846C047BD46BDE8F88348F240
:10AF48004150F9E748F20350F6E700BF7652464D04
:10AF58007052464D0C8B03003C8B0300F8B50A4F2A
:10AF68000A4C0B4DE41B0121E40829700026A64277
:10AF780003D102232B700020F8BD57F836309847CC
:10AF88000028F9D10136F2E7648003006C800300E1
:10AF9800FC360020054B1A78022A04D01878431E84
:10AFA8005842584170470120704700BFFC360020C6
:10AFB80070B51B4B6A469A4206460D460CD2194B91
:10AFC80019481A49C01AC008000440F00100FFF7E8
:10AFD80021FD48F2195070BDFFF7DCFFB8B1144CE1
:10AFE800236823B1134B1A68134B9A4212D09EB9A7
:10AFF80095B912481249206001F030F80028EAD1CA
:10B008000C4B0D4A1A6023680E4A1A60E3E74FF4A6
:10B018000540E0E70020DEE748F21750DBE700BF15
:10B0280000E003206C8003009C800300548B030025
:10B03800CC4F0020E83700206572E54B0037002030
:10B04800EC3700206169614D10B51346144A6C460F
:10B0580094420CD2134B14481449C01AC008000477
:10B0680040F00100FFF7D6FC48F2195010BD03B1BB
:10B0780069B10F4A14680F4A94420BD168B90E4857
:10B088000A4600680D49BDE8104001F031B848F2A1
:10B098001050EBE748F20250E8E748F21750E5E7AE
:10B0A80000E003206C8003009C800300548B0300A5
:10B0B800E83700206572E54BCC4F0020EC370020C4
:10B0C8002DE9F0410D4617460446F0B109B3144B7B
:10B0D8001A68144B9A421FD1134E3B460A46014642
:10B0E800306800F0E1FF48F2715398420FD1002216
:10B0F80011461046FFF7A8FF48B93B462A462146A5
:10B108003068BDE8F04100F0CFBF48F21350BDE809
:10B11800F08148F21450FAE748F20250F7E700BF0E
:10B12800E83700206572E54BCC4F00200122FFF77D
:10B13800C7BF0022FFF7C4BF33DF704776DF704711
:10B1480078DF70477ADF70477CDF70478FDF7047A2
:10B15800FBF730BD08B50020FBF7D4FA08B1FBF7C0
:10B1680029FDFBF7B7FB08B1FBF724FDFFF7E4FF68
:10B1780018B1BDE80840FBF71DBD08BD034B0448E6
:10B18800197881F00101197006F03FB87853002052
:10B19800C452002010B51249124C1348FDF713FF92
:10B1A800236881B201331148236005F0E6FF30F0CF
:10B1B800080209D020F00202112A05D043F2014208
:10B1C800904201D0FBF7F6FC22680323B2FBF3F3AD
:10B1D80003EB4303D31A064A18BF0123137010BDAB
:10B1E8008C520020D04F00209C520020C4520020D6
:10B1F800C62B002008B50D490D48FDF7E4FE4FF6B3
:10B20800FE72C1B20B4805F062FD30F008020BD0A7
:10B2180020F00202112A07D043F20142904203D0E3
:10B22800BDE80840FBF7C6BC08BD00BF405200207F
:10B23800505200202C52002010B50388182B86B0DD
:10B24800044653D01FD8112B2DD0172B43D0102BC9
:10B258001ED1354B35483649C01AC008000440F0A5
:10B268000300FFF7D7FB0720FBF74CFA08B1FBF701
:10B27800A1FC304BA1883048198003F001FB38B19C
:10B28800FBF798FC04E0212B1DD003D8192B34D0F0
:10B2980006B010BD3B2B01D0562BF9D11321A08845
:10B2A800FFF74CFFEBE7204B2048227A2349C01ACE
:10B2B800C008000440F00300FFF7B0FB1D4B4FF639
:10B2C800FF721A80E4E706A9002321F8043D80886C
:10B2D800FFF73CFFD3E71548134B1949C01AC008BC
:10B2E800000440F00300FFF795FBD1E70F480E4B31
:10B2F8001449C01AC0080004F3E7437A027A0A49DD
:10B308000A48401A617B0291217B0191A17AC00809
:10B31800C1F3C00100040091C3F380030A4940F05F
:10B328000300FFF7A9FBB3E76C8003009C800300D0
:10B338007A8B0300C42B002014530020858B030054
:10B348009E8B0300BB8B0300DA8B03000A8840F650
:10B3580077239A4210B50C460BD1094B09484A8805
:10B36800C01AC00800048B88074940F00300FFF7A3
:10B378005FFB21460548BDE8104005F049BF00BF06
:10B388006C8003009C800300308C0300C4520020B2
:10B3980008B503784BB9054B3B211888FFF7CEFE5B
:10B3A80018B1BDE80840FBF705BC08BDC42B002058
:10B3B800072808B513D00A280DD0042819D10D4B39
:10B3C80013211888FFF7BAFE30F0080311D0BDE842
:10B3D8000840FBF7EFBBBDE80840FFF7BBBE054BD5
:10B3E8001A884FF6FF739A4203D1034801F0A0FC74
:10B3F800EAE708BDC42B0020D44F002008B598B157
:10B40800032815D10B4B0C480C49C01AC00800047E
:10B4180040F00300FFF7FEFA0220FBF773F938B19A
:10B42800BDE80840FBF7C6BBBDE80840FFF792BE81
:10B4380008BD00BF6C8003009C800300B28C030031
:10B4480008B51B4B1B78002B31D01A491A48FDF759
:10B45800BAFD81B2194805F0BEFE16491648FDF737
:10B46800B2FD81B2154805F0B6FE12491248FDF743
:10B47800AAFD81B2114805F0AEFE0E490E48FDF74F
:10B48800A2FD81B20D4805F0A6FE0A490A48FDF75B
:10B498009AFD81B2094805F09EFE06490648FDF767
:10B4A80092FDBDE8084081B2044805F094BE08BD8D
:10B4B800C62B00202053002030530020C452002007
:10B4C80008B50321044801F0ECFA18B1BDE80840BA
:10B4D800FBF770BB08BD00BFD44F002010B5044671
:10B4E80004F0D2FC204604F0F5FA23780C2B03D1A3
:10B4F800BDE81040FFF7E4BF10BDFBF75BBB0000E1
:10B5080008B580B10A4B0B480B49C01AC0080004A3
:10B5180040F00300FFF77EFA04F076F838B1BDE892
:10B528000840FBF747BBBDE80840FFF7C9BF08BDA7
:10B538006C8003009C8003006D8B030080B54FF482
:10B548000041B6B00020FFF79FF808B1FBF732FBC7
:10B55800FEF7D2FFFBF780FD08B1FBF72BFBB84ADB
:10B56800B8480121FBF7A8FD08B1FBF723FBB64A51
:10B57800B6480121FBF7A0FD08B1FBF71BFBB44A55
:10B58800B4480121FBF798FD08B1FBF713FBB24A59
:10B59800B2480121FBF790FD08B1FBF70BFBB0495E
:10B5A8000320FBF7BBF808B1FBF704FB0BA900204D
:10B5B800FBF7A0F908B1FBF7FDFA9DF82C40A71E90
:10B5C8007C427C41FDF7E8FB08B1FBF7F3FA05F094
:10B5D8008BFE08B1FBF7EEFA00230BA901200B93B1
:10B5E80005F04EFF08B1FBF7E5FA0BA806F01AF8CC
:10B5F80008B1FBF7DFFA36AD112305F8BC3D9948D1
:10B6080006F0EEF9974982B22846FFF79DFD08B18A
:10B61800FBF7D0FA40F24130FFF792FD08B1FBF793
:10B62800C9FA082200210BA88F4E06F0A6F94FF0A0
:10B63800C8730BA8CDE90B63FFF784FD08B1FBF7CE
:10B64800B9FA8A498A4802F06DFE08B1FBF7B2FAE6
:10B65800AC2200210BA806F090F9022306228DF8EF
:10B668002C3001234FF496708DF82E308DF82F2052
:10B678008DF8A830032244F25063CDE92D03ADF8CC
:10B688003C207C4B7C4A7D4810920BA9349301F0F6
:10B6980091F908B1FBF78EFA0121784801F087F992
:10B6A80036A9774B41F8D03D764803F0D7F808B172
:10B6B800FBF780FA03231022002103A88DF8073036
:10B6C80006F05BF9002303930DF10702012303A998
:10B6D8006D488DF8103005928DF818308DF81930B6
:10B6E80005F0DAFC08B1FBF765FA102200212846BC
:10B6F80006F043F9002201230792099229466422A1
:10B7080062488DF820308DF828208DF829308DF882
:10B718002A308DF82B3005F069FA08B1FBF74AFAA0
:10B72800402200210BA806F028F90BA8584901F07F
:10B73800C2FD01230BA88DF8683005F05FFB08B146
:10B74800FBF738FA53495448512301266427C1E9C5
:10B7580000378E600E73FDF70FFC504950488C225D
:10B768004FF49673C1E9002300250A238B600D73FB
:10B77800FDF702FC4B494C480F604FF4FA73C1E9DE
:10B7880001360D73FDF7F8FB29461C220BA806F0BD
:10B79800F4F84FF470234FF42031CDE90C13032350
:10B7A8008DF83830384B0B959B89ADF83A303F4BC4
:10B7B80010930BA83E4B8DF83C50119301F0D8FB29
:10B7C80008B1FBF7F7F903F02DFE08B1FBF7F2F922
:10B7D800052200210BA806F0D0F89DF82C3003F0C4
:10B7E800F80343F00503032203F0F70362F306139B
:10B7F8006FF3C7138DF82C3007238DF82D301023E5
:10B808008DF82E309DF82F3013438DF82F309DF88A
:10B8180030300BA813438DF8303003F09DFE08B18B
:10B82800FBF7C8F9234803F07FFE08B1FBF7C2F91C
:10B83800214B22482249C01AC008000442E000BF38
:10B84800FDB10200608C03009DB10200648C03000E
:10B8580049B40200688C030085B102006C8C0300B7
:10B86800B9B30200708C03004001080255B302000E
:10B878007852002005B40200B82B0020D44F0020D5
:10B8880059B1020014530020C45200202C52002049
:10B898007B8C030040520020505200208C52002024
:10B8A8009C520020205300203053002099B30200FE
:10B8B80003B50200E5B402006C8003009C8003001D
:10B8C8008F8C030040F00300FFF7A4F800224FF428
:10B8D80080311848FBF702FC08B1FBF76BF900222E
:10B8E8004FF400411448FBF7F9FB08B1FBF762F984
:10B8F800002242F266611148FBF7F0FB08B1FBF742
:10B9080059F900224FF420310D48FBF7E7FB08B145
:10B91800FBF750F92046FFF7F3FD02F09DFE08B152
:10B92800FBF748F9FEF70AFF0028F6D1FDF74AFAB7
:10B93800F3E700BF58520020A452002038530020DB
:10B9480058530020054B1B68082B01BF044B18688F
:10B95800B0FA80F0400918BF00207047300100108D
:10B968003401001008B54FF080430022C3F80C21C1
:10B97800C3F81021C3F838254FF0805203F540432F
:10B98800D2F80414C3F82015D2F80814C3F8241503
:10B99800D2F80C14C3F82815D2F81014C3F82C15D3
:10B9A800D2F81414C3F83015D2F81814C3F83415A3
:10B9B800D2F81C14C3F84015D2F82014C3F8441563
:10B9C800D2F82414C3F84815D2F82814C3F84C1533
:10B9D800D2F82C14C3F85015D2F83014C3F8541503
:10B9E800D2F83414C3F86015D2F83814C3F86415C3
:10B9F800D2F83C14C3F86815D2F84014C3F86C1593
:10BA0800D2F84424C3F87025FFF79CFF10B1384BD7
:10BA1800384A1A60FFF796FF18B1374BFB22C3F874
:10BA28001825FFF78FFF48B13449354B0A681B6862
:10BA380022F00F0203F00F0313430B60FFF782FF9E
:10BA480018B1304B4FF400721A604FF08043D3F8AE
:10BA58000024D20744BF6FF00102C3F800242A4A29
:10BA6800D2F8883043F47003C2F88830BFF34F8FA0
:10BA7800BFF36F8F4FF01023D3F80022002A03DBA7
:10BA8800D3F80432002B2FDA204B0122C3F8042507
:10BA9800D3F80024002AFBD04FF010221221C2F85C
:10BAA8000012D3F80024002AFBD04FF010231222F2
:10BAB800C3F80422154B1A46D3F800140029FBD00A
:10BAC8000021C3F80415D2F80034002BFBD0BFF3D3
