:020000022000DC
:106000000000042079630200616302006363020000
:10601000656302006763020069630200000000001C
:106020000000000000000000000000006B630200A0
:106030006D630200000000006F63020071630200E4
:1060400085910200736302004D96020073630200A3
:106050007363020073630200A99402007363020079
:1060600073630200736302007363020073630200D0
:1060700073630200119702007363020073630200EE
:1060800073630200196D0200736302007363020000
:10609000B56D0200736302005502030073630200D2
:1060A0007363020073630200736302007363020090
:1060B0007363020073630200000000000000000030
:1060C0007363020073630200736302007363020070
:1060D0007363020073630200736302007363020060
:1060E00073630200736302001530030000000000B8
:1060F00000000000736302000000000073630200F0
:10610000000000000000000000000000000000008F
:10611000000000000000000000000000000000007F
:10612000000000000000000000000000000000006F
:10613000000000000000000000000000000000005F
:10614000000000000000000000000000000000004F
:10615000000000000000000000000000000000003F
:10616000000000000000000000000000000000002F
:10617000000000000000000000000000000000001F
:10618000000000000000000000000000000000000F
:1061900000000000000000000000000000000000FF
:1061A00000000000000000000000000000000000EF
:1061B00000000000000000000000000000000000DF
:1061C00000000000000000000000000000000000CF
:1061D00000000000000000000000000000000000BF
:1061E00000000000000000000000000000000000AF
:1061F000000000000000000000000000000000009F
:10620000364937480A1A02D0072291438D4635494C
:1062100035480A1A06D00722914381F309880222E1
:1062200082F3148831483249324A00F045F8324846
:106230003249334A00F040F832483349334A00F0DB
:106240003BF833483349344A00F036F83348344990
:10625000344A00F031F834483449354A00F02CF81B
:1062600034483549354A00F027F835483549002289
:1062700000F02DF834483549002200F028F8344861
:106280003449091A082903DB002202600430016046
:10629000314A90471F482049884205D0026804309F
:1062A00003B4904703BCF7E700208646EC46002085
:1062B00000212A4A9047FEE7884207D0521A05D0AB
:1062C000037801300B700131013AF9D170478842EF
:1062D00002D002700130FAE770470000000004208D
:1062E00000E003200000042000000420F4C20300AA
:1062F0009C2B0020F02B0020D8630200D863020002
:10630000206E0300F4C203009C2B00209C2B002075
:10631000E46F0300E46F0300E46F0300E46F030025
:10632000E46F0300E46F0300E46F0300E46F030015
:10633000F4C2030048C30300F02B0020F02B002020
:10634000F02B0020346B0020346B0020346B0020D5
:10635000346B0020348B0020A163020001A90200ED
:10636000FEE7FEE7FEE7FEE7FEE7FEE7FEE7FEE705
:10637000FEE7FEE7704700BF1048804710484FF027
:106380000701884385460F4880470F48016841F45C
:1063900070010160BFF34F8FBFF36F8FFFF730BF06
:1063A0000A480B490B4A884207D0521A05D0037895
:1063B00001300B700131013AF9D170477563020069
:1063C0000000042009AD020088ED00E0D06F03005A
:0863D000882B00209C2B00200B
:1063D8001F288ABF094B4FF0A04300F01F0003EBB2
:1063E8008000D0F8003723F44033C0F80037D0F8E5
:1063F800003743EA0141C0F8001770470003005016
:10640800022003F0F1B900002DE9F04781460D465E
:1064180003F018FA0328044604D8012D04D024D325
:10642800022D2FD0BDE8F087194D47003A18A9185A
:10643800AE5C4A7852B1DFF86880164842464FF49D
:10644800004100F04BFE08B988F800903B192B4436
:106458009A78114B1A55002EE4D0104B1B68002B6C
:10646800E0D03046BDE8F04718470A4800F07AFE09
:10647800074B04EB440213449E78074B1B5DB34261
:10648800D0D1E8E7024B00EB40041C446678E2E711
:10649800542C0020142C00206D2C0020682C002087
:1064A800F02B002002210078FFF7AEBF08B5094B9A
:1064B8001B7853B1002003F065F9012003F062F95D
:1064C8000320BDE8084003F05DB9BDE8084003F0CB
:1064D8006DB900BFF12B0020F8B57B4C2378054639
:1064E8001BB100232370FFF7E1FF172D00F288800E
:1064F800DFE805F00C17174354657680888D888D82
:10650800959A9A9A9A9AC4C9D1D9E4E4FFF7CEFF2A
:106518006E4800F027FE6E4B002204461A70204693
:10652800F8BD002003F006F9F8B1002003F02AF9BD
:10653800022D0CBF4FF4E1614FF47A61644B1D707A
:106548004FF400404FF4FA740025E0FB01454FF486
:106558007A7200232046294609F0EAFF0022014604
:106568005A48BDE8F84000F0B9BD03F0F7F8022D2D
:106578000CBFC8214FF4C871E0E7002003F0DAF837
:1065880040B1002003F0FEF84FF44871504B03224D
:106598001A70D5E703F0E2F8C821F7E7002003F006
:1065A800C9F838B1002003F0EDF84FF47A61484B90
:1065B8000422EDE703F0D2F84FF4C871F7E70020A2
:1065C80003F0B8F848B1002003F0DCF8404B05228E
:1065D8001A7041F69A110022C2E703F0BFF8F5E7F6
:1065E800002003F001F93A4B06221A70002240F607
:1065F800CD41B5E7002003F0B1F8354B07221A70FA
:1066080000248CE70120207003F0EEF8EEE701206B
:10661800207003F0E9F800224FF48041A0E703F06E
:10662800D4F82B4B0C22EAE72A482B4E00F09AFDAF
:10663800D5F1110504461CD0D8B9012D13D0C823B3
:106648005D434FF400474FF4FA7000214FF47A721B
:106658000023C7FB050109F06BFF224601461D48D0
:1066680000F03CFD0446022003F078F80123337063
:1066780055E7022003F086F80023F8E7FFF716FF36
:10668800134B1222BBE7FFF711FF002003F066F857
:106698000F4B1322B3E7FFF709FF012003F05EF861
:1066A8000B4B1422ABE7FFF701FF002003F056F86D
:1066B800012003F053F8064B1522A0E703F085F8F4
:1066C800034B1D709CE700BF642C0020342C002075
:1066D8006C2C0020F42B0020F12B0020044B1B68AD
:1066E800DB0703D5034B1878FFF7F6BE704700BFEA
:1066F800602C00206C2C0020032801D803F08EB8F1
:1067080000207047044B1B6813F0010301D0FFF70A
:10671800E3BE1846704700BF602C002038B51C4BFC
:1067280018601C4B10F00204054619601AD01A4B69
:106738001A480E221A700F22DA7010229A7111224A
:106748005A72042140F2666200F0CAF9044648B958
:1067580000F01AFA044628B90146114A114800F017
:10676800ABFC0446EB0711D5012003F083F86CB9A4
:1067780021460D4A0D4800F09FFC044630B90C4AEA
:106788000C480121BDE8384000F096BC204638BDD1
:10679800602C0020682C0020542C0020E46F03009B
:1067A800AD64020008700300E56602000C70030087
:1067B8000964020004700300032812D8012A0BD1CF
:1067C800012908D100F10E02D2B200EB40000C4BB7
:1067D8001A540020704700220129F6D009D3022953
:1067E80001D007207047064B00EB40001844427068
:1067F800EFE7034B00EB400018448270E9E700BF65
:10680800542C0020032808B506D803F02DF80321DE
:10681800FFF7DEFD002008BD0620FCE708B50122D1
:1068280002210020FFF7C8FF08B1072810D107226E
:1068380002210120FFF7C0FF08B1072808D1002175
:106848000A220846FFF7B8FF10B1072808BF002042
:1068580008BD00000388102B10B502D0112B1ED0E4
:1068680010BD1A4C2168B1B901220846FFF7A4FFF0
:1068780008B1072824D1072202210120FFF79CFF35
:1068880008B107281CD1042202210020FFF794FF39
:1068980008B1072814D1236801332360E0E70B4AC5
:1068A8001368013B1360002BDAD1FFF7B7FF00280C
:1068B800D6D0074B1B68002BD2D0BDE81040184734
:1068C800034B1B68002BE6D09847E4E7782C0020A0
:1068D800742C002008B50020FFF794FF08B10628A3
:1068E80006D10120FFF78EFF10B1062808BF00204F
:1068F80008BD00000D4B10B518600C4629B10120E9
:10690800FFF7FAFE40B102232370094B1B6853B905
:10691800BDE81040FFF782BFFFF7EEFE08B10B237A
:10692800F2E72070F1E7002010BD00BF742C0020B2
:10693800782C00202DE9F04F3B4F89B000263B4BC7
:106948001B78F5B2AB4202D809B0BDE8F08F384BDE
:10695800196811F835000124A0F12002C0F12003C4
:1069680004FA02F924FA03F349EA0309D7E90023F0
:1069780004FA00F8CDE9042302EA080203EA09034D
:10698800134301EBC50B4CD0DDE9042322EA0802CE
:1069980023EA0903C7E90023079102F071FD07996B
:1069A800844611F83500A0F12002C0F1200324FA32
:1069B80003F304FA02F21A4304FA00F300931D4B9E
:1069C8000192DDE90045D3E9002314401D40224629
:1069D8002B465FFA8CF40025CDE90445049CA0F110
:1069E8002005AC400394049CC0F1200124FA01F175
:1069F800039C0C430499039481400291DDE902450C
:106A0800AB4208BFA2420CD19BF801104B1E594261
:106A18005941A1EB0C02DBF804305142514103B15A
:106A2800984701368BE700BFB02C00207C2C002053
:106A3800B82C0020A82C00202DE9F84F0646244841
:106A480000F090FB002841D10123A6F12001C6F1F6
:106A5800200203FA01FB23FA02F203FA06FA1D4B9D
:106A6800D3E900014BEA020B00EA0A0801EA0B0924
:106A780058EA09021F4623D1304602F001FD164BA1
:106A8800B8B1D3E9000140EA0A0441EA0B05C3E9B9
:106A98000045D7E900234BEA0305104B0C48196859
:106AA8004AEA0204C7E900450022BDE8F84F00F0B1
:106AB80015BBD3E9000120EA0A0421EA0B05E6E741
:106AC80020EA0A0421EA0B05C3E90045BDE8F88F6E
:106AD800842C0020B02C0020A82C0020802C002022
:106AE800042A2DE9F34105460C4616463AD902F028
:106AF800EDFBD8B11C4B1D491D601D4BDFF8848090
:106B08001C701C4B00221E600023C1E900231A4997
:106B1800C1E90023013CE4B200260327FF2C0CD175
:106B2800164A1748002100F0C7FA03E002F098FB64
:106B38000028DFD002B0BDE8F08123B205EBC30224
:106B480001A992788DF8052015F833008DF80660B4
:106B580042468DF8047002F0C3FB013CE4B2002801
:106B6800DCD0E7E70720E5E7B82C0020A82C0020B8
:106B78007C2C0020802C0020B02C00203D690200D5
:106B880010700300416A020070B5084D084E0024D9
:106B98002B789C4201D3002070BD3368012113F883
:106BA800340002F023FC0134F2E700BF7C2C002003
:106BB800B82C00201FB50021039001AA44F201005F
:106BC800CDE9011100F004F805B05DF804FB000000
:106BD80010B572B603F000FA03F02EF80028FBD1C6
:106BE800104B114C1149E41AE408240444F0010044
:106BF80003F08EF90E4B1B68DB0700D500BE0D496C
:106C080044F0020003F084F9BFF34F8F0A490B4B9D
:106C1800CA6802F4E0621343CB60BFF34F8F00BF32
:106C2800FDE700BFE06E0300106F0300147003005F
:106C3800F0ED00E02070030000ED00E00400FA052C
:106C4800094A537891780133DBB2994208BF00238F
:106C5800117899421FBF03705078182303FB002056
:106C680014BF043000207047BC2C002073B50546C3
:106C780002A8002400F8014D0E4600F08DFA0DF12F
:106C88000600FFF7DDFF90B106700A4B9DF806205D
:106C980045605A709DF8070000F0A2FA24B9064B27
:106CA8004FF48012C3F80021204602B070BD0424BE
:106CB800F0E700BFBC2C002000E100E0024B4FF4DD
:106CC8003C6043F0010318473070030038B50C4BA3
:106CD8000C4C4FF40032C3F8802001254FF4803368
:106CE800C4F84833C4F808336560FFF7E7FF064B7C
:106CF800A56000241C60FFF7E1FF044B1C7038BD41
:106D080000E100E000100140D82D0020C92D00202E
:106D1800F8B51F4B1F491B680025C1F84051C1F841
:106D28004451C1F84851C1F84C51C1F80051C1F85B
:106D380004514BB3D1F8044517490968641A24F083
:106D48007F442F461A68A24209D8A41A15441A7C0F
:106D5800DE691AB11F74D3E905209047AEB90F4B0D
:106D68000F4A197813788B4205D10133DBB2022B15
:106D780008BF0023137012780A4B43F822500A4BBD
:106D88004FF48012C3F80021F8BD3346DAE700BF9C
:106D9800DC2D002000100140D82D0020D42D00202B
:106DA800D52D0020CC2D002000E100E02DE9F74F83
:106DB8009E4A9F49137809789E4D99423CD00133E9
:106DC800DBB2022B08BF002313709B4912789B4B40
:106DD8000F6853F822003B1823F07F4300220B6012
:106DE8002B6816461446944613B942B12B6006E048
:106DF800196881420ED902B12B60091A19604FF047
:106E080001082B68DFF83CA200930027BEB9DFF821
:106E18003CB260E0401A0C44D968C3F800C0D3F80B
:106E28001CE031B13A1922F07F42C3E90121DE6149
:106E38001E4601227346D7E70026B046E1E73446EE
:106E4800F6697D4A63681268DFF804C2A068991A77
:106E580021F07F41614500F2A580014421600122B3
:106E680022742A680023C4E90133E361002A40F050
:106E7800A2802C60CAE75A1C9BF80210D2B2914239
:106E88008BF8002004BF00228BF80020182202FB98
:106E980003B32A6819799C68022974D003297ED023
:106EA800012918D1217CB1B9DA6862601A69A26037
:106EB8005A699B69A361624BE2601B78002BC0D0C2
:106EC8006160BEE79C4200F093809946DB69002B25
:106ED800F8D1002323749BF800309BF801209A42D4
:106EE800C9D12B682FB9009A934202D1B8F1000F8B
:106EF80043D0002B79D0D3F800A0524D4E4BD5F893
:106F080004751C68DFF84C813E1B98F8003026F0A9
:106F18007F4603369BB94FF48033C5F84433C5F830
:106F28000433494B4FF400324FF00109C3F8802174
:106F38001A60C5F80090FFF7C1FE88F80090B245C6
:106F48002CBF5444A41924F07F44C5F84045D5F813
:106F58000435DB1B23F07F43E41B033324F07F4419
:106F6800A3420AD9D5F80435C5F84035FFF7A6FE7F
:106F7800354B4FF40032C3F80021314B00221A7010
:106F880003B0BDE8F08F13469146A0E71174D269AB
:106F98000123002AFAD1002B9DD02A609BE7002309
:106FA8001946F6E7D31A23F07F43834234BFC31A46
:106FB8000023236053E721681368994213D8591AAC
:106FC8001160E26155E7091AD8691A4638B10346D3
:106FD80018688842F7D3401A18601846134621608B
:106FE800E061DC6112E71346F2E7FFF76FFEC4E7E2
:106FF8004C450DD1D3692B6053B90F48019201213B
:10700800CAF8081003600E4B1970FFF757FE019A73
:10701800E1692368C9F81C1011B1086803440B60C2
:107028002B689A4218BF012753E700BFD42D0020D0
:10703800D52D0020DC2D0020D82D0020CC2D0020BF
:10704800C82D00200010014000E100E0BC2C002009
:10705800FEFF7F00C92D002008B5FFF737FE104B53
:1070680000200B2218809A700E4B18600E4B187077
:107078000E4B18700E4B4FF48012C021C3F88021BC
:1070880083F814131A6002F18042A2F56F22C2F845
:10709800080583F81113074BD2F804251A6008BDB8
:1070A800BC2C0020DC2D0020D42D0020D52D002064
:1070B80000E100E0D82D0020074B9B784BB132B19E
:1070C80028B10368187C20B959745A6170470720A1
:1070D80070470820704700BFBC2C00202DE9F743FB
:1070E8001D4FBB7805460E4690469BB390B30429C6
:1070F8002ED9436973B3437C02A80024012B00F8FE
:10710800014D0CBF8946A14600F046F80DF1060076
:10711800FFF796FDD0B101230370104B4560D3F8FB
:107128000435C0E90498C0E902369DF806307B7042
:107138009DF8070000F054F824B9094B4FF4801269
:10714800C3F80021204603B0BDE8F0830424EFE72C
:107158000724F7E70824F5E7BC2C002000100140BD
:1071680000E100E0064A92783AB130B1426922B1B2
:10717800002202740221FFF779BD0820704700BF82
:10718800BC2C0020014BD3F80405704700100140C7
:10719800401A20F07F40704770B5EFF3108672B642
:1071A8000C4A946801239CB993600B4B0B4DD3F8A0
:1071B800801029401160C3F88050D3F884105160C2
:1071C8004FF0FF32C3F88420047006B962B670BD70
:1071D8000370FAE7E02D002000E100E0FC06FFBDA7
:1071E800084B9A6810B55AB150B9EFF3108172B6CE
:1071F800054A1C6814605C685460986001B962B6FE
:1072080010BD00BFE02D002000E100E070B5064E83
:107218000546002456F824300BB128469847013417
:10722800042CF7D170BD00BFF82D0020033080B2C8
:1072380040F2FD33984230B51FD8124B1A783AB94C
:107248001C895D892C440444A4B2B4F5806F0AD328
:107258001A7DA2B99A8BDC8B2244024492B2B2F511
:10726800806F0CD201220A801446142202FB0433D8
:107278005A8910445881002030BD0920FCE70720B6
:10728800FAE700BF2C2E00200B4A0C4B5188142023
:1072980000FB0131CB6833B9042049681070012222
:1072A800074801F0D1BA05230649137002238B80E1
:1072B800012200230968F3E7102E00202C2E00205D
:1072C800882B0020F42E002007B5002305490093E1
:1072D800054A09680548082301F020FA03B05DF85B
:1072E80004FB00BFF42E002044700300882B00200C
:1072F80007B50023009301460823034A034801F019
:107308000DFA03B05DF804FB3C700300882B0020E5
:1073180013B500230C46009301460423074A084886
:1073280001F0FCF938B9074B142202FB043401239D
:10733800237402B010BD0E20FBE700BF38700300B5
:10734800882B00202C2E002037B50A480A4B4268AB
:107358009C88196853880325033305709BB2002065
:1073680000909B0001EB8401044801F0D7F903B0B9
:1073780030BD00BF102E0020F42E0020882B0020E6
:1073880010B50146044800F048FE1C2204460021BE
:1073980009F00FFA204610BDE02E00204388033381
:1073A80000EB8303994209D382884FF6FF739A4210
:1073B80006D00088B0FA80F0400970470220704774
:1073C800012070472DE9F8430223DFF860800B8025
:1073D8000D46174600F5805600F108044FF00109E4
:1073E800B4420FD2236801330CD031462046FFF750
:1073F800D5FF48B10FB187F8009002280BD14FF4A0
:1074080080632B80BDE8F883A368D8F800209342F6
:1074180001D9C8F800302B886288033313442B80C5
:107428006388033304EB8304DAE700BF242E0020CB
:10743800144A142303FB002070B50B6844680D46FA
:1074480004F580569BB15C88033403EB8404B44292
:107458000BD22368013308D031462046FFF79EFF40
:10746800012809D005D30228F1D1002003E008340F
:10747800EDE72C60012070BD6388033304EB8304BF
:10748800E5E700BF2C2E0020436873B505460C467F
:107498006BB3254AD1688B4229D31269934226D807
:1074A80013F0030223D121490089098988421ED19A
:1074B8002868996888421AD11D494868834203D9C7
:1074C80000F5805083420ED38A6993420DD902F5A4
:1074D8008052934209D2012323800020B0FA80F021
:1074E800400902B070BD1346F6E70A20F6E700230C
:1074F80023801E462388012B01D90020F1E701963D
:1075080001A92088FFF794FF18B923880133238045
:10751800F0E7019B2A6899689142F1D16B60034BAF
:107528001B892B81DDE700BF882B0020102E00204F
:107538002C2E00202DE9F8431C461E4B1B780646CE
:107548000F461546002B30D0002A30D07CB3DFF828
:107558006C804FF01409A388012B01D90A201AE086
:1075680009FB03F318F80330BBB1A3880133A380E8
:10757800F1E723681EB19988328891420DD11FB175
:1075880019883A88914208D19A68C5E900230A4BBC
:107598001B892B810020BDE8F8832146A088FFF7CE
:1075A80047FF0028E5D12060DFE70220F3E7052048
:1075B800F1E700BF082E0020102E00202C2E0020FE
:1075C80008B5074B191D5888FFF732FF18B1BDE8F9
:1075D8000840FFF7B9BEBDE80840FFF755BE00BF39
:1075E800102E00202DE9F04FA04FDFF8A49289B0AB
:1075F8000646B8463B6823B949469D4800F047FD12
:107608003860D8F8005029784B1E052B00F21281FB
:10761800DFE813F0060076007600060106015D013A
:1076280026B1944B00225A60012424E02B79032BC5
:107638001DD8DFE803F01502424D8F490B78022B65
:10764800084631D00B7D022B4FF001032ED11422B6
:107658005343C2180020C8545068FFF749FE03E09E
:1076680001232B71FFF730FE002800F0D380814BF7
:1076780000225A600E241422002103A809F099F868
:1076880041F61D539C4208BF0024D8F800300494EA
:107698001A78023A042A00F2D381DFE812F0B40122
:1076A800C001E301EB01F2010023D0E7714A137036
:1076B8000023536041F61D54DDE7704970480023EC
:1076C80002222B718A800122096801F0BDF8CBE7FC
:1076D8006A4C00262E712068674DFFF709FE694B3A
:1076E800D4F800C05A8814235343EA18EE5451685A
:1076F8002160A188C2F804C011810222A280B3E7E8
:10770800B5F814A0AA7DDFF870B1AEB1022AEB88F3
:1077180006D9142101FB0AB1DA1C088902440A813E
:10772800142202FB0ABAC3F57F43BAF80A20FD33D4
:107738001344AAF80A3077E7142303FB0AB318891D
:107748005C6804EB8004062A05D8DFE802F0264CC2
:1077580034421C5866000F24AA7DEB88022A06D9F9
:10776800142101FB0AB1DA1C088902440A81142297
:1077780002FB0ABAC3F57F43BAF80A20FD33134463
:10778800AAF80A3077E74048404900234360AB69CC
:107798000360FFF779FE00285AD00223AB75002357
:1077A80000930423EA182146354800F0B7FF002863
:1077B80030D00E24D0E72B69002B0CBF0123032304
:1077C800AB750023009305F10C02042304F10801B2
:1077D800EAE70123AB750022EB8800929B002A6937
:1077E80004F10C01E0E7032914BF06230523AB7558
:1077F80000230093042305F10802E118D4E70623C7
:10780800AB75224B1988204B5868FFF781FD044659
:107818000028A1D109B0BDE8F08F41F61D549BE7BF
:10782800002E7FF401AF2B79012B33D004D3022B28
:107838003FF440AF0F241EE702232B710DF10A011C
:10784800EB68039303A8CDE90466FFF71DFE08B9AA
:107858000A2410E70498BDF80A108388EB8003888F
:107868002B81FFF755FD044627E000BF282E002096
:10787800E02E0020082E00202C2E0020F42E0020C0
:10788800882B0020102E0020EC2D0020002F002037
:10789800202E0020DFF808A203AA53463146A81D6F
:1078A800FFF748FE044660B9BAF804100498FFF7D9
:1078B8002FFD04460A2C3FF4FDAE002C7FF4DBAE0E
:1078C800A8E708223146504608F073FFF2E7002E79
:1078D8007FF4AAAE6D4B1A7BB2B11E731A78013AC7
:1078E800062AA7D801A151F822F000BF9B7902000F
:1078F800C1790200DF790200E57902003D780200D3
:10790800EB790200017A02001A78072AE6D801A169
:1079180051F822F03D790200E5780200E57802008E
:10792800637902007779020097790200977902005B
:107938005F7902001A89564901321A8100225A8059
:107948001A730A78B2FA82F252099A720A7DB2FA66
:1079580082F25209DA72012207E04E4958688A8891
:107968004088033202448A8002221A70B6E7484CE3
:107978005A884849142505FB024208685468506033
:107988008888108102228A800C600622EDE707228F
:10799800EBE79A7A32B9DA7A8AB900221A705A80F1
:1079A8005A6087E63A4900229A72CA68002AF2D1D8
:1079B800097C0029EFD05A80FFF702FE53E7002226
:1079C800DA72334A116A0029E7D192F82420002A92
:1079D800E3D00122EFE7FFF7B7FC44E7FFF754FCD9
:1079E80041E706221A702A4A5B88142101FB032307
:1079F8005868FFF77DFC36E707221A7000225A60A4
:107A0800FFF762FC2FE701228DF80C201A89ADF8E8
:107A180018209A88DB68ADF81A20059310E0022236
:107A28008DF80C201A89ADF818209A88ADF81A201C
:107A3800DA689B7D05929A1F534253418DF81C309A
:107A480003A8FFF7E3FB002649461348C8F800607F
:107A580000F048FB0121114800F0F7FB00287FF4F3
:107A6800C9ADD7E603228DF80C20DA88ADF81820C6
:107A78001A89CFE70422DB888DF80C20ADF818307E
:107A8800DEE705238DF80C30DAE700BF102E002062
:107A98002C2E0020F42E0020E02E0020F02E0020B6
:107AA800042F00204068FFF79DBD000008B50121A4
:107AB800044800F0B4FB18B9BDE80840FFF792BDD0
:107AC80008BD00BFF02E00202DE9F3419846354B44
:107AD8001B7806460D46002B5BD000295BD0098831
:107AE8004FF6FF73994258D06B88002B55D06B68BE
:107AF8009B0754D14AB92F890DF102013846FFF787
:107B080095FB30B102B0BDE8F08113885788ADF815
:107B1800023001A8FFF734FC044658B9BDF802301A
:107B2800214A142101FB032358890338C01B5881BB
:107B38000820E7E700238375BDF8023083826B686D
:107B4800036180F800800121184800F073FB2B883E
:107B58002381B8F1030F6B88A38004BF0423A375A6
:107B68004FF0000508BF3368E06008BFA361E780F5
:107B7800658101A90E4800F07AFA36B1E3683360EE
:107B88000C4B75601B89B5723381FFF78FFF00209E
:107B9800B8E70220B6E70520B4E70420B2E70320DF
:107BA800B0E700BF082E00202C2E0020242E002035
:107BB800E02E0020102E002008B5084B1A68042A71
:107BC80009D01968064A42F821000121184600F038
:107BD80031FB002008BD0C20FCE700BFFC2E002074
:107BE800F82D00202DE9F04F89B01422002103A8B8
:107BF80008F0DFFD7D4A137803F0FF0100919046FD
:107C08003BB103A8FFF702FB0026304609B0BDE8E8
:107C1800F08F101D00F024FB05460028F4D140F633
:107C2800F8734FF080521B68DFF8ECA15C1C04BFAE
:107C38006F4B1B6811695269581C08BF02FB01F39E
:107C4800CAF810300022A3F540536A49CAF80C302C
:107C5800504600F02FFD06460028D6D11C238C2262
:107C68006549664800F0A4F93746B3464FF0030962
:107C78003446CDF804A0019BD9680BEB01000246FD
:107C88005BF80110002835D05D4B994232D141682C
:107C98005C4B994215D0013399422BD1009BDFF8F8
:107CA80070A1002B59D100225749CAF80000FFF7EC
:107CB80089FBBAF80420022A14BF082204221743B9
:107CC8003AE052494FF0140C0CFB04FC01EB0C0297
:107CD8004FF0000E01F80CE050600CF110020CF1AE
:107CE800080C0A446144FFF76DFB47F002070134B2
:107CF800A4B221E000F5805C1168013167D104323B
:107D08009445F9D1424A116829B90221012310602A
:107D1800918000930EE0142262433C4B4FF0020E18
:107D2800991803F802E03B4A486054800134A1F8EE
:107D380008E0A4B247F001070BF5805BBBF5405F94
:107D480099D1B9F1010F88BF3D46EDB2022D02D09D
:107D5800062D12D0DDB90B2657E72C4B14226243AF
:107D680099184FF0020C03F802C00134DAF8002029
:107D78004A60A1F808C0A4B295E7012388F800304A
:107D880003A80023C8F80430FFF740FA3DE702A82B
:107D9800FFF7F6FAC8B10123013D03700A2D09D88F
:107DA800DFE805F006080608070807080F110F00A6
:107DB8000023037102A9114800F059F9FFF776FE74
:107DC80023E70323F5E70223F3E708261DE70F4916
:107DD8001422624301EB020C09F1FF39CCF80400CC
:107DE80003201FFA89F9885481E700BF082E002074
:107DF8001410001040720300542E0020E02E0020C2
:107E0800DEC0ADDEFE011EF1F82E00202C2E002073
:107E1800F42E0020102E0020882B002073B50D466C
:107E28000446C8B1C1B10DF10601FFF72DFBA8B199
:107E38000B4BBDF806006668142202FB00300121D6
:107E48000C3000F0F7F963682E600C336B60012387
:107E5800A372002002B070BD0520FBE70A20F9E7F5
:107E68002C2E002013B50446A8B10DF10601FFF72A
:107E78000BFB90B10B4ABDF80630142101FB03231C
:107E8800DA6862B1A27A52B1DA680020013ADA609F
:107E9800A07202B010BD0520FBE70A20F9E7062012
:107EA800F7E700BF2C2E002002230022FFF70CBEAC
:107EB80018B103230022FFF707BE05207047000012
:107EC800104B1B7813B50446ABB14FF6FF739842BD
:107ED80013D001A8FFF754FA88B1052303700123D2
:107EE8000371C48001A9084800F0C1F8FFF7DEFD5E
:107EF800002002B010BD0220FBE70420F9E70820AB
:107F0800F7E700BF082E0020E02E00200E4B1B785C
:107F180007B5A3B101A8FFF733FA90B106230370A0
:107F280001A90A4800F0A3F8094B1A780AB10122FE
:107F38001A73FFF7BBFD002003B05DF804FB0220B5
:107F4800FAE70820F8E700BF082E0020E02E0020FE
:107F5800102E002007B5ADF8060002A820F8041D71
:107F680001460DF10600FFF7E5FA03B05DF804FBE2
:107F780013B502AC134624F8020D0A460020214628
:107F8800FFF7D8FA02B010BD13B502AC134624F8B7
:107F9800020D0A4620460021FFF7CCFA02B010BDB8
:107FA80020B119B103680B600020704705207047A5
:107FB80010B561B1B2FBF3F403FB1424A4B244B9C5
:107FC800C0E9001484608281C381204610BD0E2060
:107FD800FCE70920FAE782B050E8022FC188B2EB2B
:107FE800324F4FF0000317BF92B241EA014142EA13
:107FF800014104E04268B2EB324F08BF012340E878
:108008000212002AE8D18DF807309DF80730002BBE
:108018000CBF1120002002B0704737B550E8013F6F
:108028009DB2C48925448489A54228BF2D1B048993
:10803800A54202BFBFF32F8F002207E0C5EA030560
:1080480040E80154002CE9D14FF001028DF80320DB
:108058000193019B9DF803200B6002F0FF0322B1FE
:108068000B880068184403B030BD1846FBE70A883F
:108078004B889A4209D150E8012FC2EA024240E8EF
:108088000123002BF7D1012070470020704737B536
:1080980050E8023F1FFAA3F5C488A54202BFBFF308
:1080A8002F8F00220DE0C48925448489A54228BF6A
:1080B8002D1BC3EA054540E80254002CE8D14FF0D7
:1080C80001028DF803200193019B9DF803200B60AA
:1080D80002F0FF0322B14B880068184403B030BD9A
:1080E8001846FBE70A884B889A4209D150E8022FC4
:1080F800C2EA224240E80223002BF7D10120704750
:108108000020704701F01F024B090121914000EB4C
:10811800830000F063B84B0910B501F01F0401217A
:10812800A14000EB830000F04EF8E04000F00100B1
:1081380010BD01F01F0301229A404B0900EB830098
:10814800D14300F061B84B0901F01F0150F823003A
:10815800C84000F0010070472DE9F0474E1E76092F
:1081680080460F460136002558F8254008EB850A59
:10817800E44394FAA4F4B4FA84F44FEA4519202CA1
:1081880006D10135AE42EFD83C462046BDE8F0871F
:108198004C44A742F5D921464046FFF7BCFF0028CA
:1081A800F3D0DAF80040E44394FAA4F4B4FA84F47F
:1081B800E5E750E8002F0B4640E8003C9CF0000F34
:1081C800F7D11046704750E8002F42EA010340E813
:1081D800003C9CF0000FF6D11046704750E8003F75
:1081E80043EA010240E8002C9CF0000FF6D110464B
:1081F800704750E8002F02EA010340E8003C9CF079
:10820800000FF6D11046704750E8003F03EA01021C
:1082180040E8002C9CF0000FF6D11046704750E85B
:10822800002F02EB010340E8003C9CF0000FF6D160
:108238001046704750E8003F03EB010240E8002C6D
:108248009CF0000FF6D11046704750E8003FA3EBB2
:10825800010240E8002C9CF0000FF6D11046704750
:108268000121FFF7B0BF0121FFF7B8BF0021FFF7D9
:10827800C0BF10B590B1D0E9012301689B1ADBB2E9
:108288000A60013BDBB2FF2B026802D100201071AB
:1082980010BD11684C1C14600B70F2E70E20F7E754
:1082A80037B5054602A8002400F8014DFEF774FF13
:1082B8002A686B68116899420ED9481E106011F837
:1082C800014CEB68298A01FB0434AB6811791B1A4D
:1082D800DBB2994238BF13719DF80700FEF780FFA3
:1082E800204603B030BD37B5054602A8002300F884
:1082F800013D0C46FEF750FF2A681368591C1160AF
:10830800E968641A298AB4FBF1F41C709DF8070027
:10831800FEF766FF03B030BD826810B504462AB187
:1083280043690168006998470023A36010BD0EB433
:1083380003B5039929B102AA04AB42F8043D00F041
:1083480073F802B05DF804EB03B070470A2938B53A
:1083580004460D4602D10D21FFF7F8FFA3682268F5
:10836800591CA160D554D4E901329A4204D320465D
:10837800BDE83840FFF7D0BF38BD00002DE9F84F01
:108388009946DDE90A431746824688460A46012689
:10839800BA420FD24E4538BF4E4613F0010B01D1F9
:1083A80064B900240125B9F1010F1AD909F1FF397F
:1083B8007D43F8E7B2FBF7F20136E9E79B070ED5F4
:1083C800B9F1000F0CBF30252025A642EAD2013CA6
:1083D80029465046FFF7BAFF002CF6D1E1E72025E1
:1083E800F3E7B8FBF5F39F42E2D9DFF83890B8FB22
:1083F800F5F3504619F8031005FB1388FFF7A6FF9D
:10840800B5FBF7F5002DF2D1BBF1000F02D00CB18E
:10841800A64201D3BDE8F88F20215046013CFFF762
:1084280095FFF4E7557003002DE9F74F0546904690
:108438000E46002900F03A8116F8011B002958D091
:10844800252940F0D180002702E047F001071646B1
:10845800324612F8013B2D2BF7D0302B04D02B2BB2
:1084680005D147F00407F2E747F00207EFE70024D9
:108478002A2B06F101021BD1D8F80030191D1B6800
:10848800C8F800101C44164633782E2B1CD1013630
:108498004FF0000A314611F8012BA2F130000928EB
:1084A80014D80A2303FB0A23A3F1300A0E46F1E786
:1084B80012F8013CA3F130010929E5D80A2101FB92
:1084C8000434303C1646D3E74FF0000A324612F81F
:1084D800011B01F0FB0068281646F8D0692916D060
:1084E80054D8582970D00ED825297DD03378002B40
:1084F800A2D12B7B002B00F0D980284603B0BDE821
:10850800F04FFFF709BF632968D06429EED1D8F886
:108518000020D2F80090111D89EAE972C8F800100D
:10852800A2EBE9724FF0010B092A61DCD34538BF91
:10853800D3462CB1B9F1000F01DB790700D5013C16
:10854800BA0702D5BAF1000F04D0FB0702D4002CF9
:1085580054D10024B9F1000F58DAC9F100092D21CE
:108568002846FFF7F3FE07F00302022A05D1BAF105
:10857800000F02D1002C4DD10024CDE9004753460D
:108588000A2249462846FFF7F9FEAFE7732954D077
:1085980016D87029AAD1D8F800301A1DC8F80020BA
:1085A800302128461C68FFF7D1FE78212846FFF7BE
:1085B800CDFE00220823CDE9003221461022E1E752
:1085C80075292FD0782991D1D8F800100A1DC8F83C
:1085D8000020CDE90047534610222CE0D8F800309F
:1085E8001A1D1978C8F800202846FFF7AFFE7DE766
:1085F8000A230BF1010B92FBF3F295E7A345A9D2ED
:1086080020212846013CFFF7A1FEA0E77807AAD55C
:108618002B21A5E7A345B0D230212846013CFFF71E
:1086280095FEA7E7D8F80010CDE900470A1DC8F85D
:10863800002053460A220968A4E7D8F800301A1D1A
:10864800C8F80020F907D3F8009012D54F46A7EBD9
:10865800090B17F8011B41B9A345BFF447AF202107
:108668002846013CFFF772FEF6E72846FFF76EFE44
:10867800EDE7B9F1000F17D0484608F0EFF80746C4
:10868800BC4200D954B909F1FF3919F8011F002972
:108698003FF42CAF2846FFF759FEF6E7202128467D
:1086A800013CFFF753FEEBE74F46E9E703B0BDE8AF
:1086B800F08F000007B50B4688B9124B1248134AD1
:1086C800C01A0E23C0080093114B0004114940F052
:1086D800010001F035FC0E2003B05DF804FB4BB936
:1086E800084B09480C4AC01AC0080E23009300041E
:1086F800074BEBE703601B68114603B05DF804EB1A
:10870800184700BFE06E0300406F030012710300BA
:1087180065700300177103008E7103002DE9F341A2
:1087280088B93D4B3D483E4AC01AC0080E243D4B0F
:10873800009400043C4940F0010001F001FC20468F
:1087480002B0BDE8F0814AB9334B3448374AC01A01
:10875800C0080E2400040094324BEBE7D0F800C0A8
:10876800BCF1000F09D12C4B2C48314AC01AC00863
:108778000824000400942B4BDCE74BB9264B274810
:108788002C4AC01AC008092400040094254BD1E7DC
:108798004768D7F80480B3FBF8F708FB17374FB1E1
:1087A8001D4B1E48244AC01AC0080924000400941E
:1087B8001C4BBFE78F0709D0174B18481F4AC01A30
:1087C800C008102400040094164BB3E712F0030FFE
:1087D80009D0114B11481A4AC01AC00810240004C5
:1087E8000094104BA6E7C768B9420BD34C1E056925
:1087F8001C44AC4206D8DCF80C40A44602B0BDE8E4
:10880800F0416047044B05480E4AC01AC0081024BE
:1088180000040094034B8DE7E06E0300406F0300F3
:10882800127103007770030017710300947103003D
:1088380088710300477103009A710300C471030033
:10884800DC710300FF710300F7B580B92A4B2B4890
:108858002B4AC01AC0080E242A4B009400042A4947
:1088680040F0010001F06CFB204603B0F0BDD0F8E9
:1088780000C0BCF1000F09D11F4B2048234AC01A81
:10888800C0080824000400941E4BE8E74AB91A4BB4
:108898001A481F4AC01AC008092400040094194B3A
:1088A800DDE74768D7F800E00EF1FF370F4209D03F
:1088B800114B1248174AC01AC0081024000400942B
:1088C800104BCCE7C768B9420CD34C1E05690EFBA8
:1088D8000244AC4206D8DCF81040A44603B0BDE818
:1088E800F0406047044B05480B4AC01AC0081024E2
:1088F80000040094034BB2E7E06E0300406F0300EE
:10890800127103008A700300177103008871030055
:10891800477103009D700300C370030029DF70478F
:1089280028DF704770B503689D6886B004460E4618
:108938006DB114220021684607F03BFFA368059338
:10894800237901962BB1012B0DD06846A84706B0B4
:1089580070BD01238DF8003023690293E368039307
:1089680063690493F1E702238DF80030E3681B0381
:108978000293F5E70846704700207047024B187AC3
:10898800003018BF01207047A82F0020034B187A29
:108998000122B0FA80F05A7440097047A82F0020CD
:1089A80008B510461A4607F0DBFE002008BD000097
:1089B80008B514220021044807F0FBFE0348FFF71E
:1089C8000AFB002008BD00BFA82F0020982F002018
:1089D80010B5094C094B43602046FFF741FC40B9EC
:1089E80007F01AFC1C2320748C2205490548FFF760
:1089F800DFFA002010BD00BFA82F0020347203004A
:108A08000C2F0020982F002070B5244D244E2B7A6F
:108A18002C463BB923492448FFF739FB306008B995
:108A2800686070BD0223237233681A7972B1012A13
:108A380024D018460321FFF775FF002323726360D3
:108A480018491948BDE87040FFF74CBBD3E9052029
:108A5800121AB2F5805F28BF4FF48052D3E903158C
:108A68009208012A014438BF01222844FFF756FF23
:108A780050B11128DDD101232372D2E7D3E90302D3
:108A88001044FFF74DFFF3E7237C002BC9D10146C3
:108A9800BDE87040022000F009B800BFA82F0020F0
:108AA800C02F0020BC2F0020982F002038B5831E2F
:108AB800012B45D8234C237A002B41D0022B09D116
:108AC800032830D0204B1B680022E2601A793AB1A3
:108AD800012A22D0637C7BBBBDE83840FFF794BFF6
:108AE800D3E905128D1AB5F5805F94BF521902F5C6
:108AF80080529A619142EDD102284FF0000308BFDD
:108B080019462372104B18BF0D211868FFF70AFF8A
:108B18000E490F48FFF7E6FADCE71A6901321A61D5
:108B28005B699A42E7E7E3680133082B01D8E36001
:108B3800D0E70023E360DFE7BDE8384007F05CBB1F
:108B480038BD00BFA82F0020C02F0020BC2F002058
:108B5800982F002000F0FD03012B08D1044B0022C0
:108B68005A74421E504250411874FFF74DBF704767
:108B7800A82F002010B5064C201DFFF771FB28B95F
:108B8800637C1BB9BDE81040FFF73EBF10BD00BFB6
:108B9800A82F00202DE9F34180460D460F4801A972
:108BA80016461F46FFF739FA0446A8B11C220021D1
:108BB80007F0FFFD2D0B0123237101A9C4F80080E4
:108BC800A760E56066610548FFF751FAFFF7D2FF35
:108BD800002002B0BDE8F0810420FAE7982F0020B9
:108BE8002DE9F74381468846104801A917461E46D5
:108BF800FFF713FA0446B0B11C22002107F0D9FD93
:108C080000250A9BA36001A92571C4F80090C4E956
:108C1800037866610548FFF72AFAFFF7ABFF284695
:108C280003B0BDE8F0830420FAE700BF982F0020C6
:108C38002DE9F047B0F806904479D2F800A09DF8E5
:108C4800208009FB04F4043C06460AEB0300A0421A
:108C58000F4688BFA4EB030A191DC2F800A0B1FB98
:108C6800F9F509FB15114DB9A9EB0104544528BFC5
:108C78005446BAF1000F04D1BDE8F0873668013DCB
:108C8800F1E704317B1970182246B8F1000F0ED0B5
:108C980001461846AAEB040A07F062FDD1452544AF
:108CA80036684C464FF0000128BF5446E1E71946A4
:108CB800F0E7FFF7DEBAF8B546790146721E0546B9
:108CC800002393422D6803D30024A64202D8F8BD9E
:108CD8000133F6E70F682846FFF705FB01343946EC
:108CE800F3E72DE9F843068ACD1C0746FFF7D8FAC3
:108CF800043E35440446B5FBF6F5F0B14FF48073F5
:108D0800EDB28380C680013D076081464FF00008C0
:108D1800A84512D23846FFF7C3FA064648B1637928
:108D28000133637108F10108C9F800000760814642
:108D3800EEE72046FFF7BFFF34462046BDE8F8833C
:108D480001210430FFF776BA10B50121044604303A
:108D5800FFF77BFA10F0FF0F04D12046BDE8104062
:108D6800FFF7A9BF10BD1FB504AC44F8042D0022BD
:108D780000922246FFF75CFF04B010BD1FB504AC9B
:108D880044F8042D012200922246FFF751FF04B057
:108D980010BD41DF70470000064B10B500241C7061
:108DA800054B1C60BFF35F8F0449054800F0A6F827
:108DB800204610BDCC2F0020D02F00206072030069
:108DC800C42F002007B502A8002300F8013DFEF7D4
:108DD800E3F9F1EE103A23F09F03E1EE103ABFF306
:108DE8005F8F0A4B4022C3F884219DF80700FEF7E5
:108DF800F7F907F011FA20B1FFF7CBFF03B05DF8E0
:108E080004FB20BF40BF20BFF8E700BF00E100E03F
:108E1800026813685268934291BFD01A8068013083
:108E2800801888BFC01A7047036881681A685B6831
:108E38008B4234BF01330023D31A5842584170473C
:108E4800F7B5044602A8002300F8013D0D46FEF7D9
:108E5800A3F92046FFF7E8FF10B1237C002B3CD193
:108E68002268A66853685168B14234BF01310021B5
:108E7800516030B11168A068814234BF01310021CE
:108E88001160E2686068511E072920D8DFE801F008
:108E980004101F141F1F1F182A78C2542046FFF7FA
:108EA800B7FF23689A68824200D29860002415E0D0
:108EB8002A8820F81320F1E72A6840F82320EDE7F4
:108EC800D5E9006700EBC300C0E90067E6E729467B
:108ED80002FB030007F044FCE0E704249DF80700C8
:108EE800FEF77EF9204603B0F0BD836800225A6081
:108EF8009A60C3E90422DA601A6070470B684A680E
:108F08004360934208BF0023016008BF4360704775
:108F1800436843B10268916852680B4493424360C6
:108F280004BF0023436070470D4930B5A1F5947222
:108F38000225914201D800200EE08B1ADB1093FB2A
:108F4800F5F302EBC30452F83330834205D802D25A
:108F580004F10802EDE7606830BD2146E9E700BF8B
:108F6800B073030008B5FFF7DFFF024B002808BF06
:108F7800184608BD7572030038B5084C04F108039B
:108F88000546002818BF1C4623682BB11A682260C2
:108F98005B6828469847F7E738BD00BFDC2F0020FC
:108FA80020B9054B01225A70FFF7E6BF012802D10C
:108FB800014A9070F8E77047D42F002020B9034B7E
:108FC80001225A70FFF7D8BF704700BFD42F002086
:108FD80038B50B4C237883B90A486360A3602361D2
:108FE800E36000F09FF8054607F016F908B900F0AD
:108FF800A7F801232370284638BD8525FBE700BF65
:10900800D42F0020A98F020037B502A80023094CED
:1090180000F8013DFEF7C0F8E368013BE360E5684E
:1090280015B900F09FF8A5709DF80700FEF7D8F86D
:1090380003B030BDD42F0020012813B509D003D3C5
:1090480003281BD002B010BD0F4B0122C3F88020AB
:10905800F8E702A800230D4C00F8013DFEF79CF844
:1090680023780BB9FFF7B4FFE3689DF807000133D5
:10907800E3600123A370FEF7B3F8E3E700F060F8BC
:10908800FFF7C2FFDEE700BF00E100E0D42F0020B9
:109098001FB58DF8070004A8002300F8013DFEF76E
:1090A8007BF807F0B9F850B90DF107010748FFF749
:1090B800C7FE0648FFF7B8FE08B100F009FB9DF8A7
:1090C8000F00FEF78DF805B05DF804FB806E030015
:1090D80007B520B103280BD003B05DF804FB0F4B94
:1090E8001B78012BF8D100F0F3FA00F0F9FAF3E756
:1090F80002A8002300F8013DFEF74EF80748037860
:10910800012B05D10649013000F0A2FA00F0CEFA91
:109118009DF80700FEF764F8DEE700BF383000204E
:1091280099900200054A13792BB901211060117139
:109138005371184670478520704700BF3C300020A7
:10914800074B1A68D2075FBFC02283F800230122A9
:109158001A604FF080430122C3F81825704700BFFA
:1091680000E100E0044B01221A604FF08042D2F87F
:109178001834DB03FBD470470C000040154B07B5CF
:109188001A687AB100221A601B680093009B4FF09E
:1091980080430122C3F808230F4B587910B95A713C
:1091A8001B6898470D4B1A6882B100221A601B6829
:1091B8000193019B4FF080430222C3F80823064B1A
:1091C8001B68012003B05DF804EB184703B05DF895
:1091D80004FB00BF000100403C30002004010040B7
:1091E80000F1804000F5C040002382B003600368AE
:1091F8000193019B02B0704703681F2B83BF03F0E4
:109208001F03036001484FF0A0407047000300505F
:1092180007B502AB43F8040D1846FFF7EDFF019BB5
:1092280000EB8300D0F8003723F44033C0F8003750
:10923800D0F8003743EA0141C0F8001703B05DF8E1
:1092480004FB0000054B4FF0FF32072843F82020AD
:1092580084BF1B1883F85820704700BF4430002093
:1092680010B5164C94F86A3033BBFF21E21801336D
:10927800302B82F83010F9D10021C8B2FFF7E2FF95
:1092880001310C29F9D1062200210D4807F091FA85
:109298000C4BC02283F8062340221A604FF4BE709C
:1092A800FFF79EFF084B4FF00042C3F80423012349
:1092B80084F86A30002010BD0820FCE74430002004
:1092C800A830002000E100E000600040034B93F864
:1092D8006A00003018BF0120704700BF44300020EA
:1092E800F7B5404F3B18044693F93030002B9446AD
:1092F80075DA8B78C3F34003002B15BF00250825CA
:1093080008200C20854202D1042003B0F0BD57F894
:10931800252001324FEA850649D1381947F825C07A
:1093280080F8305013B97B1983F858408B785A0766
:109338001BD4D8073DD502A840F8084DFFF75CFFBD
:10934800009B00EB8300D0F8003723F00203C0F83D
:1093580000372548E20804F0070C012303FA0CF350
:1093680010F802C043EA0C038354887891F800C0CF
:1093780010F002002AD006F1804303F5C04324020E
:10938800D3F8102522F44F3222F44072C3F8102586
:109398004FEA0C4CD3F8102504F47C540CF4403CF0
:1093A80044EA0C041443C3F810450020ADE7013526
:1093B800A8E702A84A7840F8044DFFF71DFF019B73
:1093C80003F5E073920040F82320C2E7083D3D44CE
:1093D80095F8604044EA8C1C85F860C095E7082041
:1093E80093E700BF44300020A830002073B5224C1A
:1093F8002518064695F93020072A1ADD224492F8E6
:1094080058309B09032B10D102A840F8046DFFF7D0
:10941800F3FE019AD0F81035D340DB0707D40221B8
:109428003046FFF7F5FE02B070BD012BF7D00321DF
:10943800F6E7D3B2072BF6D8930003F1804303F580
:10944800C043D3F8100540F00100C3F8100502F13D
:109458004000800080B2FFF7C3FE0029E3D095F9F1
:10946800303054F82330002BDDD0012303FA02F208
:10947800024BC3F80423D6E74430002000600040C4
:1094880007B502AB43F8040D1846FFF7B5FE019B7C
:10949800D0F81005D84000F0010003B05DF804FBD7
:1094A8002DE9F04F002489B0CDE902445F4A604EAF
:1094B800604D01211368A2F5C040012B80B206D18E
:1094C800D6F804330B4202D0FFF78AFE0C4304326D
:1094D800AA424FEA4101EDD1574B1B68012B0ED12F
:1094E8004FF4BE70FFF77CFE4FF0A04344F00044F9
:1094F800D3F810350293514BD3F81035039314F079
:10950800FF0F1AD04E4F00250126344210D0AB0071
:1095180003F1804303F5C043D3F81005D3F81015C1
:1095280057F82530C0F30520C1F3014103B198472E
:109538000135082D4FEA4606E7D1002C72DA04AE51
:109548000023049373604FF0FF33CDE906333C4F9B
:109558004FF0010800252C467B1993F96020531C15
:1095680047D0D2B222F0C00908A84FEAD90300EBCD
:10957800030B02F007011BF8080C08FA01F1084276
:1095880037D007EB0900920990F9300057F820A06E
:10959800BAF1000F05D1032A2BD1F05C0843F0542F
:1095A80001E0032AF9D001A8CDF80490FFF724FEC2
:1095B800019B03F5E07350F823301BF8180C0842A0
:1095C800C3F3014305D0022B13D1032A0BD1114653
:1095D80004E0032B0DD1032A05D102214846FFF7E9
:1095E80017FE0134E4B2BAF1000F02D01146484622
:1095F800D0470135042DAFD1A4B14FF0A043029953
:10960800D3F8102503F540739142D3F8103502D1F1
:109618000399994206D002920393049A059B0692F5
:10962800079397E709B0BDE8F08F00BF00610040DD
:1096380000600040206100407C6100400003005051
:1096480044300020014B1B68184700BFB030002091
:1096580010B5124C2278FAB9114B1960037813F03F
:10966800010F104B1EBFD3F8042542F00102C3F8C6
:109678000425D3F8002222F00102C3F8002243781F
:10968800094A5B01DBB282F80D334FF400531360D3
:1096980001232370002010BD8520FCE7BC3000208A
:1096A800B830002000D0004000E100E0064B002266
:1096B8001A6082B01B680193019B044B0122C3F816
:1096C80004231A6002B0704700D1004000D0004067
:1096D800024A0123C2F808335360704700D00040A3
:1096E800064A0123C2F808335360054B4FF4005271
:1096F800C3F88020034B00221A70704700D0004046
:1097080000E100E0BC300020074B00221A6082B064
:109718001B680193019B054BD3F80805044B1B6894
:10972800C0B202B0184700BF00D1004000D00040CE
:10973800B8300020074B1B5C1F2B8ABF064A4FF02E
:10974800A04203F01F03D2F80405D840C04300F03C
:10975800010070479877030000030050074B1B5C1B
:109768001F2B86BF03F01F0305494FF0A0410122BC
:1097780002FA03F3C1F80C35704700BF987703006D
:1097880000030050074B1B5C1F2B86BF03F01F0311
:1097980005494FF0A041012202FA03F3C1F8083548
:1097A800704700BF987703000003005008B50020F9
:1097B800FFF7E8FF0120FFF7E5FF0220FFF7E2FFD0
:1097C8000320BDE80840FFF7DDBF08B50020FFF71C
:1097D800C5FF0120FFF7C2FF0220FFF7BFFF0320EC
:1097E800BDE80840FFF7BABF0A4B185C1F288ABFBC
:1097F800094B4FF0A04300F01F00D3F804250121C6
:10980800814021EA02000A40C3F80805C3F80C2584
:10981800704700BF9877030000030050074B1B5C9C
:109828001F2B8ABF064A4FF0A04203F01F03D2F84D
:109838001005D840C04300F001007047947703003A
:10984800000300500B2809D00C2809D0182809D08B
:1098580019280CBF03204FF0FF30704700207047D5
:109868000120704702207047014B185C704700BF09
:1098780094770300C20710B504460CD54FF0A043F7
:109888000322C3F83427C3F83827C3F83C27C3F8A2
:109898004027FFF78BFFA3070AD54FF0A0430C2200
:1098A800C3F82C27C3F83027C3F86027C3F8642708
:1098B80010BD704707B5044B0093044A402300F0DD
:1098C80032F803B05DF804FBD9980200BE300020DE
:1098D8002DE9F84389461446B2B10F4B0F4E0325C4
:1098E800002743F00108224609EB0701002001F098
:1098F800C1F90744241A48B933782BB14FF47A4098
:10990800C047013D02D13570BDE8F88301233370AB
:10991800002CE8D1F8E700BFA0770300BD30002095
:10992800704701F0DBB9F0B595B01C4616460846FD
:109938000D46FFF705FA1A9B0D93CDE9086400243C
:109948002346082205A928460A948DF82C400C9431
:10995800FFF714FA079B0293BDF81830ADF80C30E6
:10996800BDF81A30ADF80E309DF814308DF811405E
:1099780003F00302012A1DD1BDF81440059EC3F36C
:10998800C203C4F383148DF81030A20008230EA973
:109998002846FFF7F3F9C6F3952608AB009322464D
:1099A80002AB0EA9304600F087FB2846FFF7CCF93A
:1099B80015B0F0BD022AF8D1BDF81640C3F3C203B2
:1099C800A4098DF810300827082C264628BF082639
:1099D8003B4632460EA92846FFF7D0F9A41B08AB30
:1099E80002AA31460EA8374400F0CAFB002CEBD17E
:1099F800DBE7000008B5FFF794FF0421034800F0F7
:109A0800C9FA034B01225A7108BD00BFC06F030099
:109A18009C2B0020037813F0040216D003F00303F4
:109A2800012B03D0022B09D0012070470A68008857
:109A38000232C0F3831002440A60F5E70B684288DB
:109A4800023303EB92130B60EEE7104670470000F9
:109A58002DE9F04F89B00546861C08A8484C0192AC
:109A680000230F4600F8113DFDF796FB23683B6085
:109A7800D4E901231344226801339B1A04F21C47DA
:109A880004F5836A04F21448B3421AD3019A0023F6
:109A9800002A6DD0012262F3010343F0040365F349
:109AA80089132168A2689DF80F000A4003320E440A
:109AB80044F822302660FDF793FB012009B0BDE889
:109AC800F08F01213846FEF7B5FB5046FEF7CBFB79
:109AD8004046FEF7C8FB0DF120096068D4F808B0CD
:109AE80049F8100D00EA0B00033004EB80004946EA
:109AF800FFF790FF049BB0B90BEA030204EB820264
:109B0800D16805919A1C013303EA0B0B04EB8B0C0B
:109B180001F00303012B0492DCF80CB020D0022BD7
:109B280004D083460BE00BEA0300DDE7BDF81630EE
:109B38009B0903334FEA1B4B02EB93030493404604
:109B4800FEF794FB08B1049B636059463846FEF75C
:109B580071FBD4E901231344226801339B1A93E76C
:109B6800BDF81430C3F383134FEA1B4B1344E5E7E6
:109B7800022262F3010343F0040365F39F5390E765
:109B8800D03100200B4B0C48FF2210B59A60002200
:109B9800C3F81824C3E90022C3F8142483F8202446
:109BA800FFF787F8044610B90448FFF79EF92046E6
:109BB80010BD00BFD0310020C46E0300C47703007D
:109BC80030B50A4C71B10A4A0A49121BD20800235F
:109BD8009A4201D1002030BD31F82350854202D08D
:109BE8000133F5E7034654F83300F4E7E06E030069
:109BF800C06F03009C2B0020094B013903EBC00008
:109C0800032909D8DFE801F00A0204060420704796
:109C180000797047407970470020704702207047EC
:109C2800E06E0300034BD3E90030C31A5842584191
:109C3800704700BFD03100202DE9F04387B0FFF70F
:109C4800F1FF0646002840F0FC807F4DC5F8180457
:109C5800BFF34F8F6868AC6806AF47F8100D204017
:109C6800033005EB80003946FFF7D4FE029B18B19C
:109C7800D5F81824002A5FD004EA0302991C01339E
:109C880005EB8202234005EB8303D268DB6804936B
:109C980002F00303022B0392029162D1BDF80E3049
:109CA8006A484FEA9318B8F1500FC14628BF4FF0E1
:109CB800500969F38F1309F10801ADF80E30FFF769
:109CC80010F80746002800F0A780FFF739F803A925
:109CD800002308223846FFF746F8029924EA0106CD
:109CE8000136B600B14535D95FFA89F97EB3F6B2C7
:109CF800A9EB0609214003315FFA89F4B146544EB5
:109D080005EB810108234A463846FFF72CF836B19F
:109D180009F10803224631463846FFF724F8029B2A
:109D280008F1030803EB98030293D5F81834002BC5
:109D38004BD1D5F810445BE02A689A4204D86A608F
:109D4800304607B0BDE8F08304EA030088E74049DD
:109D58003446D7E72140033108234A4605EB810101
:109D6800DAE7012B58D1BDF80C303848C3F383111A
:109D7800062928BF062161F3891302318900ADF84D
:109D88000C30FEF7AEFF0746002845D0FEF7D8FF97
:109D98000023082203A93846FEF7E5FF0026BDF890
:109DA8000C20C2F38312B31C96424FEA8303BCD241
:109DB80002994A1C21400331029205EB81010422D9
:109DC8003846FEF7D0FF0136E9E73846FEF7BCFF14
:109DD800FFF728FF80F00100C6B2B1E7E3685B79BE
:109DE80023B1236839461B6820469847E3681C68F6
:109DF800002CF3D13846FEF7A7FF06A800F8114D4E
:109E0800FDF7CAF9D5F818340BB9029B6B609DF8B9
:109E18000700FDF7E5F9DBE7D5F8104454B90D4B19
:109E28000D480E49C01AC008000440F0020000F0B6
:109E38006FF8CDE7236820469B689847E3681C685D
:109E4800ECE700267CE700BFD0310020C46E030099
:109E5800DC310020E06E0300106F0300D0770300B0
:109E68002DE9F74F284C80460F46924601A901225A
:109E780018469B46D4F80890FFF7EAFD88B3019D81
:109E88000026A91C5E4506EB010234D100211F48BB
:109E9800FEF78FF980F310006A1C02EA090204EB4E
:109EA8008202000405EA0903033340EA1840D0603F
:109EB80014F8232068F3C50204F8232034F823207B
:109EC80066F3891224F8232054F82320012167F32C
:109ED8009F2244F8232061F301026FF3820204F801
:109EE800232094F820341BB1FFF7A6FE0028FBD1ED
:109EF80003B0BDE8F08F09EA020204EB82025AF8C7
:109F08002630D3600136BDE7D0310020EC35002083
:109F180000231A46FFF7A4BF13B502AC012344F887
:109F2800042D2246FFF79CFF02B010BD07B5CDE90E
:109F3800002302236A46FFF793FF03B05DF804FB92
:109F48001FB5CDE90123069B039301AA0323FFF75D
:109F580087FF05B05DF804FB1FB5CDE90023069B1C
:109F68000293079B03936A460423FFF779FF05B022
:109F78005DF804FB7FB5CDE90123089B0393099B9A
:109F880004930A9B059301AA0523FFF769FF07B00D
:109F98005DF804FB30B50F49D1F8102400231446AE
:109FA8003CB9C468237152B9C1F81004226018463C
:109FB80030BDE46825799D4206D02468F0E7D26870
:109FC800116821601060F2E701330A2BE7D14FF0E6
:109FD800FF33ECE7D0310020094A38B50123D2F825
:109FE800104482F820341D4604B938BDE3685D7119
:109FF800236820465B689847E3681C68F4E700BF5D
:10A00800D0310020037A052B10B50C460FD0437AC7
:10A0180023B1084A08492046FEF789F9074920462E
:10A02800FEF785F92046BDE81040FEF775B9002A0D
:10A03800F8D0F3E71B780300138C03003D78030086
:10A04800C38873B504460D4633B1144A00921449C7
:10A05800144A2846FEF76BF9217A05291CD0637A41
:10A068004BB1A088FFF7C8FD0F4B104953F82020CB
:10A078002846FEF75CF9227A0D4BA08853F8226037
:10A088000021FFF79DFD0B4903463246284602B0E2
:10A09800BDE87040FEF74BB902B070BD1B780300F5
:10A0A8002878030020780300E8770300138C030066
:10A0B8004C780300407803002DE9F04385B01F4633
:10A0C8000C9D002306460C46904695F80C902B7381
:10A0D80029463846FFF7B4FFB8F1060F09D8DFE87C
:10A0E80008F00412181F2833400031462846FEF7AE
:10A0F8001EF9002229463846FFF784FF85F80C90A0
:10A1080005B0BDE8F083226831462846FEF70FF90E
:10A11800EFE7D4E9002331462846FEF708F9E8E7D7
:10A12800A36800933146D4E900232846FEF7FFF8D8
:10A13800DFE7E3680193A36800933146D4E900237D
:10A148002846FEF7F4F8D4E723690293E3680193FD
:10A15800A36800933146D4E900232846FEF7E7F8C0
:10A16800C7E76369039323690293E3680193A368CC
:10A1780000933146D4E900232846FEF7D8F8B8E71B
:10A1880008292DE9F84F80460E4617461C463AD84E
:10A19800002593F80C901D7319461046FFF750FFE1
:10A1A800DFF884A0DFF884B0AE422ED918F8052075
:10A1B80059462046FEF7BBF80135082DF4D1184959
:10A1C800DFF86CB02046FEF7B2F84FF0000A5645AB
:10A1D80020D918F80A507E2D03D8284606F068FAC8
:10A1E80000B92E252A4659462046FEF7A0F80AF15E
:10A1F800010ABAF1080FEAD1012221463846FFF7D1
:10A2080001FF84F80C90BDE8F88F51462046FEF710
:10A218008EF8D1E703492046FEF789F8E7E700BF43
:10A228001678030014780300127803000C780300F2
:10A238001878030028B139B10023C1E90030184665
:10A24800704748F21050704748F21350704730B1C9
:10A25800036848F240508B4208BF0020704748F21C
:10A268001050704730B119B10B68934205D30A609A
:10A278000020704748F21350704748F21450704756
:10A288002DE9F041884600AF06461146404615467E
:10A298001C46FFF7CFFF08BB21464046FFF7CAFF21
:10A2A800E0B998F80430104A52F82380B8F1000F4A
:10A2B80017D056B90D4A32F8133033B10E336A4607
:10A2C800DB08A2EBC3039D466E462246294630466C
:10A2D800C04718B9064B2B60063B2360BD46BDE856
:10A2E800F08148F20350F9E7C8780300AC7803001E
:10A2F8007652464D70B505460C461E46FFF79AFF46
:10A3080070B9AB796AB1B3420ED12979094B53F8C8
:10A31800213063B111462046984708B9064B23609F
:10A3280070BD48F21050FBE748F21150F8E748F2C8
:10A338000350F5E7FC7803007052464D2DE9F041D3
:10A348000D460D4904461746FFF781FF90B9666828
:10A358003946B2792846FFF785FF58B93279074B55
:10A3680053F8223023B129462046BDE8F04118476A
:10A3780048F20350BDE8F0817052464D3079030031
:10A38800F0B528B14079D1B18AB948F2135015E037
:10A398001846F8E7441E00254E5D0F5D57551655C3
:10A3A8000135013CA542F7D91B1A014402448342F6
:10A3B800F0D2002B48F2115008BF0020F0BD48F23F
:10A3C8001050FBE72DE9F8430C4600AF81461E49C3
:10A3D800204615461E46FFF73AFF58BB1B4928463C
:10A3E800FFF735FF30BBD4F804806B68984524D15B
:10A3F80098F80520396A3046FFF734FFD0B998F845
:10A408000430134A52F82380B8F1000F18D0B9F17C
:10A41800000F0AD10F4A32F8133033B10E336A46AF
:10A42800DB08A2EBC3039D46E94633462A4621468C
:10A438004846C047BD46BDE8F88348F24150F9E7B1
:10A4480048F20350F6E700BF7652464D7052464D2B
:10A458006479030094790300F8B50A4F0A4C0B4D50
:10A46800E41B0121E40829700026A64203D1022337
:10A478002B700020F8BD57F8363098470028F9D1DE
:10A488000136F2E7D86E0300E06E03008C36002038
:10A49800054B1A78022A04D01878431E58425841AE
:10A4A80070470120704700BF8C36002070B51B4BE9
:10A4B8006A469A4206460D460CD2194B19481A4963
:10A4C800C01AC008000440F00100FFF721FD48F25F
:10A4D800195070BDFFF7DCFFB8B1144C236823B1E5
:10A4E800134B1A68134B9A4212D09EB995B9124869
:10A4F8001249206000F080FF0028EAD10C4B0D4A79
:10A508001A6023680E4A1A60E3E74FF40540E0E753
:10A518000020DEE748F21750DBE700BF00E0032029
:10A52800E06E0300106F0300AC7903005C4F00205D
:10A53800783700206572E54B903600207C37002084
:10A548006169614D10B51346144A6C4694420CD2A9
:10A55800134B14481449C01AC008000440F0010005
:10A56800FFF7D6FC48F2195010BD03B169B10F4A84
:10A5780014680F4A94420BD168B90E480A4600681D
:10A588000D49BDE8104000F081BF48F21050EBE7DC
:10A5980048F20250E8E748F21750E5E700E00320E8
:10A5A800E06E0300106F0300AC79030078370020D9
:10A5B8006572E54B5C4F00207C3700202DE9F041A7
:10A5C8000D4617460446F0B109B3144B1A68144BEC
:10A5D8009A421FD1134E3B460A460146306800F0A6
:10A5E80031FF48F2715398420FD1002211461046AC
:10A5F800FFF7A8FF48B93B462A4621463068BDE820
:10A60800F04100F01FBF48F21350BDE8F08148F256
:10A618001450FAE748F20250F7E700BF78370020F5
:10A628006572E54B5C4F00200122FFF7C7BF00228F
:10A63800FFF7C4BF33DF704776DF70477ADF7047B4
:10A648007CDF70478FDF7047FCF7B4BA08B500208D
:10A65800FCF758F808B1FCF7ADFAFCF73BF908B17C
:10A66800FCF7A8FAFFF7E6FF18B1BDE80840FCF7C9
:10A67800A1BA08BD10B50388182B86B0044653D07C
:10A688001FD8112B2DD0172B43D0102B1ED1354B93
:10A6980035483649C01AC008000440F00300FFF7E7
:10A6A80037FC0720FCF72EF808B1FCF783FA304B8B
:10A6B800A1883048198003F051FA38B1FCF77AFACA
:10A6C80004E0212B1DD003D8192B34D006B010BDBF
:10A6D8003B2B01D0562BF9D11321A088FFF7ACFFF3
:10A6E800EBE7204B2048227A2349C01AC00800040F
:10A6F80040F00300FFF710FC1D4B4FF6FF721A8065
:10A70800E4E706A9002321F8043D8088FFF79AFFB3
:10A71800D3E71548134B1949C01AC008000440F084
:10A728000300FFF7F5FBD1E70F480E4B1449C01A99
:10A73800C0080004F3E7437A027A0A490A48401A33
:10A74800617B0291217B0191A17AC008C1F3C0010C
:10A7580000040091C3F380030A4940F00300FFF7A7
:10A7680009FCB3E7E06E0300106F0300D279030021
:10A77800BC2B00201C520020DD790300F679030071
:10A78800137A0300327A03000A8840F677239A4244
:10A7980010B50C460BD1094B09484A88C01AC008A5
:10A7A80000048B88074940F00300FFF7BFFB2146F0
:10A7B8000548BDE8104005F047BC00BFE06E030047
:10A7C800106F0300887A0300CC51002008B5037885
:10A7D8004BB9054B3B211888FFF72EFF18B1BDE890
:10A7E8000840FCF7E7B908BDBC2B0020072808B5CE
:10A7F80013D00A280DD0042819D10D4B132118881D
:10A80800FFF71AFF30F0080311D0BDE80840FCF745
:10A81800D1B9BDE80840FFF719BF054B1A884FF6B4
:10A82800FF739A4203D1034801F050FCEAE708BDE0
:10A83800BC2B0020604F002008B598B1032815D123
:10A848000B4B0C480C49C01AC008000440F0030028
:10A85800FFF75EFB0220FBF755FF38B1BDE8084063
:10A86800FCF7A8B9BDE80840FFF7F0BE08BD00BF77
:10A87800E06E0300106F0300E57A030008B50321BA
:10A88800044801F0DCFA18B1BDE80840FCF792B9B9
:10A8980008BD00BF604F002010B5044604F062FCFC
:10A8A800204604F085FA23780C2B03D1BDE810402C
:10A8B800FFF7E4BF10BDFCF77DB9000008B580B113
:10A8C8000A4B0B480B49C01AC008000440F00300AB
:10A8D800FFF71EFB04F006F838B1BDE80840FCF7A6
:10A8E80069B9BDE80840FFF7C9BF08BDE06E0300BD
:10A8F800106F0300C579030000B54FF40041AFB0F5
:10A908000020FFF73FF908B1FCF754F9FFF772F898
:10A91800FCF7A2FB08B1FCF74DF983490320FBF7CC
:10A92800FDFE08B1FCF746F903A90020FBF7E2FF9A
:10A9380008B1FCF73FF99DF80C40A01E4442444181
:10A94800FEF72AFA08B1FCF735F905F0E9FB08B17A
:10A95800FCF730F9002303A90120039305F0ACFCB0
:10A9680008B1FCF727F903A805F078FD08B1FCF752
:10A9780021F92EAD11236D4805F8B83D05F06EFF9D
:10A988006A4982B22846FFF75BFE08B1FCF712F964
:10A998000021082203A805F00CFF65494FF0C87391
:10A9A80003A8CDE90313FFF749FE08B1FCF702F944
:10A9B8006049614802F024FE08B1FCF7FBF85F4BE0
:10A9C8000293AC221723002103A8ADF8043005F048
:10A9D800F0FE022306228DF80C3001238DF80E308C
:10A9E8008DF80F208DF888304FF4FA720023CDE9E6
:10A9F800252303A9524B53481B952C9301F0A8F922
:10AA080008B1FCF7D7F801214E4801F09EF94E4BEA
:10AA18004E480093294603F08FF808B1FCF7CAF8AE
:10AA28000021102203A805F0C4FE0023039303A904
:10AA3800012347488DF810308DF818308DF81930FB
:10AA480005F091FA08B1FCF7B5F81C22002103A81B
:10AA580005F0AFFE00234FF42032CDE903324FF466
:10AA68007022059203228DF81820394A8DF81C307F
:10AA7800384B9289089303A8374BADF81A200993ED
:10AA880001F044FC08B1FCF795F803F039FE08B171
:10AA9800FCF790F80522002103A805F08AFE9DF82E
:10AAA8000C3003F0F80343F00503032203F0F70327
:10AAB80062F306136FF3C7138DF80C3007238DF874
:10AAC8000D3010238DF80E309DF80F3013438DF89C
:10AAD8000F309DF8103003A813438DF8103003F0A1
:10AAE800A9FE08B1FCF766F81C4803F08BFE08B114
:10AAF800FCF760F81A4B1B481B49C01AC008000431
:10AB080040F00300FFF704FA2046FFF7D7FE02F0F3
:10AB180011FF08B1FCF74EF8FFF78EF80028F6D1C0
:10AB2800FEF750F9F3E700BFF5A70200B77A030074
:10AB38004001080291A70200B8510020A42B002070
:10AB480041A80200604F002051A602001C520020BC
:10AB5800CC510020D5A70200BFA80200A1A802007E
:10AB6800E06E0300106F0300C27A03000369C16836
:10AB78008B429DBF8268D21802F1FF3203F1FF3386
:10AB880094BF501A581A70472DE9F041D0E902676E
:10AB98000446F61B4068964288461546384405D94F
:10ABA80005F0DEFD3D44E560BDE8F0813246AD1BB1
:10ABB80005F0D6FD2A4608EB0601606805F0D0FDD1
:10ABC800F1E72DE9F843C5680646894617464FF070
:10ABD80000083469B3687068A54228BFE418013CCE
:10ABE800621B5C1BBC4228BF3C46944228BF1446EB
:10ABF80049462844224605F0B3FDB3682544AB42D4
:10AC080008BF00253F1BA044A144F560E1D14046A0
:10AC1800BDE8F88310B5114C114AA2610223C4E9BA
:10AC28000433104BE361A2644FF400730E4A2362AD
:10AC3800E264002310220D49A362E01D6362E3620F
:10AC4800A3656365E365226505F0E6FD08492046CE
:10AC580005F0E2FD2023A37110BD00BF285200209B
:10AC6800F77A0300B0520020A0520020007B0300B6
:10AC7800047B0300F8B5184C182300FB033503FBCD
:10AC880000402544C46A012C0F46164611D003D350
:10AC9800022C1BD000240AE02846FFF767FF8642F3
:10ACA80005D8324639462846FFF76EFF3446204617
:10ACB800F8BD2846FFF75AFF8642344628BF0446A7
:10ACC800224639462846FFF75FFFF0E72846BDE8E9
:10ACD800F840FFF776BF00BF28520020FFF79ABF61
:10ACE800054B1B68082B01BF044B1868B0FA80F0AD
:10ACF800400918BF002070473001001034010010CF
:10AD080008B54FF080430022C3F80C21C3F8102186
:10AD1800C3F838254FF0805203F54043D2F80414A5
:10AD2800C3F82015D2F80814C3F82415D2F80C1467
:10AD3800C3F82815D2F81014C3F82C15D2F8141437
:10AD4800C3F83015D2F81814C3F83415D2F81C1407
:10AD5800C3F84015D2F82014C3F84415D2F82414C7
:10AD6800C3F84815D2F82814C3F84C15D2F82C1497
:10AD7800C3F85015D2F83014C3F85415D2F8341467
:10AD8800C3F86015D2F83814C3F86415D2F83C1427
:10AD9800C3F86815D2F84014C3F86C15D2F84424E7
:10ADA800C3F87025FFF79CFF10B1384B384A1A607A
:10ADB800FFF796FF18B1374BFB22C3F81825FFF7AA
:10ADC8008FFF48B13449354B0A681B6822F00F02DF
:10ADD80003F00F0313430B60FFF782FF18B1304BEA
:10ADE8004FF400721A604FF08043D3F80024D20762
:10ADF80044BF6FF00102C3F800242A4AD2F8883011
:10AE080043F47003C2F88830BFF34F8FBFF36F8FDE
:10AE18004FF01023D3F80022002A03DBD3F80432C2
:10AE2800002B2FDA204B0122C3F80425D3F8002485
:10AE3800002AFBD04FF010221221C2F80012D3F8DA
:10AE48000024002AFBD04FF010231222C3F804225A
:10AE5800154B1A46D3F800140029FBD00021C3F87B
:10AE68000415D2F80034002BFBD0BFF34F8F0D49E7
:10AE78000E4BCA6802F4E0621343CB60BFF34F8FF6
:10AE880000BFFDE70A4B0B4A1A6008BD8C5600400C
:10AE98004881030000F00040E40E00405802001012
:10AEA8004096024000ED00E000E001400400FA0591
:10AEB800C02B00200090D003BFF35F8F014B00220E
:10AEC8001A607047B054002008B501210448FDF706
:10AED80070F9BFF35F8FB0FA80F0400908BD00BF7A
:10AEE800B05400200A4B98420CD003D808B148F25D
:10AEF80016507047074B984207D003F5B8531833DC
:10AF08009842F4D148F24250704748F202507047D4
:10AF18008408F000080CF0002DE9F043037AA5B08E
:10AF280006468946ABBB456824ACA86807F0D4FE42
:10AF3800042304F8883D06F10C078046AA793946AF
:10AF48000DF1090005F00CFCFFF7BEFF18B300F087
:10AF5800D3FAAA79012321461A44CDE9007940465B
:10AF680007F0D4FA044600F0DBFAFFF7A5FF204605
:10AF7800FFF7B8FF044628B901233372204625B0ED
:10AF8800BDE8F083AA790DF10901384605F0E8FB20
:10AF9800F4E70024F2E748F20454EFE7F0B54B6811
:10AFA80085B0054698680E46144607F095FE074694
:10AFB800FFF78AFFD8B100F09FFA0023CDE90153CB
:10AFC80004F10C033A460C490093284606F108039D
:10AFD80007F0E0FB054600F0A3FAFFF76DFF012339
:10AFE8002846237205B0BDE8F040FFF77BBF48F262
:10AFF800045005B0F0BD00BF51B5020010B543685C
:10B0080004469A790C3005F0ABFB0020207210BD85
:10B01800F0B5047A4668A5B005460F4644B900F174
:10B028000C01B279384605F09BFB204625B0F0BDEF
:10B03800FFF74AFF08B3B27924AB013243F88C2DED
:10B04800042102AA05F10C0007F028FB0446FFF7CB
:10B0580033FFB279019B511C994211D19DF80830F8
:10B06800042B0DD10DF10901384605F079FB204676
:10B0780025B0BDE8F040FFF735BF48F20450D5E7EA
:10B0880048F21650D2E7000070B5202386B0044677
:10B098000E461546CDE90433FFF716FFC0B100F0A0
:10B0A8002BFA0D4B0294CDE9004306F1080205ABDB
:10B0B80004A905F1080007F05FFD044600F030FA26
:10B0C800FFF7FAFE204606B0BDE87040FFF70ABF5A
:10B0D80048F2045006B070BD51B5020008B52022F0
:10B0E800083005F03DFB002008BD08B50B462022BE
:10B0F80000F10801184605F033FB002008BD0000E8
:10B1080070B5402386B01646202204460D46CDE988
:10B118000423FFF7D9FEC0B100F0EEF90D4B0294FD
:10B12800CDE9004306F1080204AB05A905F10800C2
:10B1380007F080FD044600F0F3F9FFF7BDFE204656
:10B1480006B0BDE87040FFF7CDBE48F2045006B027
:10B1580070BD00BF51B5020008B52022083005F0C7
:10B16800FFFA002008BD08B50B46202200F10801AF
:10B17800184605F0F5FA002008BD00002DE9F04F4B
:10B18800804695B00F464D680146104616461C4647
:10B19800FFF7C2FE002838D16B79DFF87CA09A0748
:10B1A8001CBF033323F003034FF00101504607BFD0
:10B1B8000293A14602930DF10C09FCF7FAFF8346AE
:10B1C800BFF35F8F20BB00F097F902AB4A4607F147
:10B1D8000801CDF8008006F10C0007F05DFB06467B
:10B1E80000F09EF9BFF35F8FA145CAF800B009D0FF
:10B1F8006A79D11CC94301F0030103AB1944204605
:10B2080005F0AEFA3046FFF76DFE15B0BDE8F08FD9
:10B2180048F20450F9E700BFB05400202DE9F0438C
:10B228009846164D4B6887B05B79059381460F4663
:10B23800284601211446FCF7BCFF0646BFF35F8F82
:10B24800C8B900F059F9083420230193009407F194
:10B25800080205A9CDF80890404607F091FB04467E
:10B2680000F05EF9BFF35F8F20462E60FFF73AFECD
:10B2780007B0BDE8F08348F20450F9E7B054002065
:10B28800002138B50846FFF711F9044638B9054DCD
:10B298000123C5F8003507F095FDC5F8004520469F
:10B2A80038BD00BF00A0025038B50A4B00251D600C
:10B2B800BFF35F8F084C0123C4F8003507F056FD33
:10B2C800C4F80055014618B9BDE83840FFF7EEB894
:10B2D800032038BDB054002000A00250374B9842DC
:10B2E8002FD8023B98425DD20B3B984213D8013BC2
:10B2F80098425AD2043B984247D003D808B148F242
:10B30800165070472E4B984218D002339842F6D107
:10B3180048F2105070472B4B98424CD008D8023B4B
:10B3280098421CD001339842E9D148F271507047D5
:10B33800254B984202D002339842E0D148F203509C
:10B348007047224B984233D015D8033B9842DFD040
:10B3580008D8023B9842DBD001339842CFD148F25B
:10B36800145070471A4B98421FD001339842C6D1E7
:10B3780048F217507047174B9842F0D008D80A3B4C
:10B38800984215D009339842B9D148F21350704702
:10B39800114B984209D0A0F57000A0F6344001285E
:10B3A800CCD9ACE748F27050704748F2115070475A
:10B3B80048F20150704748F202507047120CF000F2
:10B3C800010CF000080CF0000D0CF000250CF0004A
:10B3D800230CF000310CF000320CF00008B501210C
:10B3E8000448FCF7E6FEBFF35F8FB0FA80F040092F
:10B3F80008BD00BFB054002038B502680F4B9A4210
:10B4080004460D4614D0FFF7E9FF98B100F074F830
:10B418002946201D05F07EFCFFF760FF044600F07A
:10B428007FF8BFF35F8F064B00221A60204638BDB5
:10B438000024FBE748F20454F8E700BF6169614D56
:10B44800B0540020F8B50E461746051D1C469BB99A
:10B4580000F052F83246B9B2284605F041FD0546DB
:10B4680000F05EF82846FFF739FF5CB1BFF35F8F45
:10B47800054B00221A6005E0FFF7B0FF0028E7D16E
:10B4880048F20450F8BD00BFB05400200C2BF8B5AA
:10B4980005460F4616461C4623D8A30724D1FFF7B6
:10B4A8009DFF20B3043500F027F87CB939462846BB
:10B4B80005F090FEFFF712FF044600F031F8BFF3E5
:10B4C8005F8F0C4B00221A602046F8BDA2B23146AD
:10B4D800284605F03BFFFFF701FF04460028E5D0AA
:10B4E800EBE748F21154EFE748F21654ECE748F25C
:10B4F8000454E9E7B0540020064A13680133012BCD
:10B50800136006D1044AC2F80035044B4FF4806238
:10B518005A607047B454002000A0025000E100E0D7
:10B52800064A1368013B13603BB9054AC2F8003567
:10B53800044B4FF48062C3F884207047B454002051
:10B5480000A0025000E100E008B51046FFF76FF8D0
:10B5580038B1044A044B48F2025188420CBF1046E5
:10B56800184608BD080CF0000F0CF000F0B50024D8
:10B578001C4E1D4F4FF0FF32A4463319997C49B138
:10B58800597CC1B1D968814209D9091A8A42D9605E
:10B5980028BF0A461434A02CEFD11046F0BD197C00
:10B5A80083F811C009B99974F4E7B2F5A02F28BF40
:10B5B8004FF4A022EEE71D7C0DB99D74EAE7996867
:10B5C8000144B942996081BFA1F5A02105F1FF3579
:10B5D80099601D749B68C3F5A0239A4228BF1A4638
:10B5E800D8E700BFB8540020FFFF040010B5FFF7EC
:10B5F800BDFF0446FBF7C6FD0C4B1860631C14D056
:10B60800224621460A48FBF769FD70B1FDF7AAFCFE
:10B61800084A094B09499B1ADB081B040246BDE886
:10B62800104043F00200FEF777BC10BD78550020AB
:10B6380058550020E06E0300686F0300A97B0300E3
:10B64800024A03480021FBF737BD00BFF5B50200E9
:10B65800C87B03002DE9F74F6946054601F038FE1F
:10B6680080B1FDF77FFC524C524B5349E41AE40871
:10B67800240402462B4644F00200FEF757FC03B0B0
:10B68800BDE8F08F4D48FBF76DFD054668B1FDF745
:10B6980069FC484A464B4A499B1ADB081B04024688
:10B6A80043F00200FEF738FCE9E7464CDFF820914A
:10B6B800FBF768FD2168FBF76BFDFFF757FF0646B0
:10B6C800FBF760FD4FF001082060CA46082409EB2B
:10B6D800080B1421694309EB0107BB7C002B57D0E9
:10B6E800062259440DF1010004F0E7FF18BB3B7C2A
:10B6F8004FF47A629A40B2F57A4FBCBF0133DBB29D
:10B708004FF47A6C0CFA03FC4FF4004E4FF000082B
:10B718004FF4FA7000213B74C7F8088000234FF4F7
:10B728007A72CEFB0C0104F003FF01238642F86015
:10B7380028BF06467B740135082DCAD1B8F1000F21
:10B7480032D0082C26D0142303FB04A40722694610
:10B75800204605F005F800232374A3604FF4003356
:10B768009E42E36028BF1E4601236374A3743246D9
:10B7780031461248FBF7B2FC002880D0FDF7F2FBF7
:10B788000C4A0B4B10499B1ADB081B04024687E73F
:10B798002C46D0E70648074B0C49C01AC0080004DD
:10B7A80040F00200FEF7B4FB731C3FF468AFDEE71D
:10B7B800686F0300E06E0300187B030058550020F3
:10B7C800667B030078550020A97B0300837B030078
:10B7D800B8540020F7B56946054601F079FD0446DE
:10B7E80080B1FDF7BFFB124C124B1349E41AE40871
:10B7F800240402462B4644F00200FEF797FB012082
:10B8080003B0F0BD0D4E771C3519AB7C23B9143449
:10B81800A02CF9D10020F3E7062239190DF1010017
:10B8280004F04BFF0028F2D1687C0028EFD0E7E74E
:10B83800686F0300E06E0300187B0300B854002013
:10B848006DDF704779DF70477DDF704764DF7047D1
:10B858002DE9F74F0C9CBDF834B0278800258046A9
:10B868008A4691462E46B8F80020B2420BDC35B124
:10B878002288013AD21B92B2FF2A39D8DA55002021
:10B8880003B0BDE8F08FD8F8042052F826000190E4
:10B8980000220DF1030101A8FFF7D8FF0028EFD11E
:10B8A8009DF803204A4521D12288002D14BF00208D
:10B8B800022002EB09010144594519DC3DB9013266
:10B8C80092B2228003F802A02288013222802288C4
:10B8D8000DF103011A4401A8FFF7B8FF0028CFD1E2
:10B8E80021889DF803200A44228001250136BAE701
:10B8F8000C20C5E72DE9F341089CBDF824501746F4
:10B90800CDE9004502220646FFF7A2FF48B91022FA
:10B9180039463046CDE9084502B0BDE8F041FFF7A9
:10B9280097BF02B0BDE8F0812DE9F04F00231688DB
:10B93800138090F82D3085B007460D46144653B352
:10B94800082E01D80C2026E102A8FFF779FF00286D
:10B9580040F0218113880822CA54238801339BB2FE
:10B968001B222380CA542088013080B220800622FE
:10B978000DF10901284404F0F3FE23889DF80820FE
:10B9880006339BB212F0FE0218BF01222380EA544C
:10B99800238801332380BB78FBB123880433B34267
:10B9A800D0D802A8FFF74EFF002840F0F480238883
:10B9B8000322EA54238801339BB219222380EA54D4
:10B9C8002388BDF8082001339BB2E9182380EA5484
:10B9D800120A4A70238802332380FA789AB123889E
:10B9E800D91CB142AED80221E954238801339BB255
:10B9F80001212380E95423880B449BB22380EA5415
:10BA080023880B4423807A68AAB12388D91CB142C1
:10BA180098D8022192F90020E954238801339BB277
:10BA28000A212380E954238801339BB22380EA54F6
:10BA38002388013323803B89002B40F0A0803B8A78
:10BA48005BB1CDE900462B460722032107F1100020
:10BA5800FFF750FF002840F09E803B8B5BB1CDE99B
:10BA680000462B461522142107F11800FFF742FF64
:10BA7800002840F090803A6A002A40F08F80D7F87A
:10BA88002480B8F1000F30D0B8F804302188981C11
:10BA98008A1C0244B2423FF655AFFE283FF652AF29
:10BAA80003336B54238801339BB2FF222380EA546B
:10BAB800238801339BB22380B8F80020EA54E918A0
:10BAC800120A4A702088023080B22080B8F8042018
